{
  "contractName": "MyAccessControlledToken",
  "abi": [
    {
      "inputs": [
        {
          "internalType": "string",
          "name": "name",
          "type": "string"
        },
        {
          "internalType": "string",
          "name": "symbol",
          "type": "string"
        }
      ],
      "stateMutability": "nonpayable",
      "type": "constructor"
    },
    {
      "anonymous": false,
      "inputs": [
        {
          "indexed": true,
          "internalType": "address",
          "name": "owner",
          "type": "address"
        },
        {
          "indexed": true,
          "internalType": "address",
          "name": "spender",
          "type": "address"
        },
        {
          "indexed": false,
          "internalType": "uint256",
          "name": "value",
          "type": "uint256"
        }
      ],
      "name": "Approval",
      "type": "event"
    },
    {
      "anonymous": false,
      "inputs": [
        {
          "indexed": true,
          "internalType": "bytes32",
          "name": "role",
          "type": "bytes32"
        },
        {
          "indexed": true,
          "internalType": "bytes32",
          "name": "previousAdminRole",
          "type": "bytes32"
        },
        {
          "indexed": true,
          "internalType": "bytes32",
          "name": "newAdminRole",
          "type": "bytes32"
        }
      ],
      "name": "RoleAdminChanged",
      "type": "event"
    },
    {
      "anonymous": false,
      "inputs": [
        {
          "indexed": true,
          "internalType": "bytes32",
          "name": "role",
          "type": "bytes32"
        },
        {
          "indexed": true,
          "internalType": "address",
          "name": "account",
          "type": "address"
        },
        {
          "indexed": true,
          "internalType": "address",
          "name": "sender",
          "type": "address"
        }
      ],
      "name": "RoleGranted",
      "type": "event"
    },
    {
      "anonymous": false,
      "inputs": [
        {
          "indexed": true,
          "internalType": "bytes32",
          "name": "role",
          "type": "bytes32"
        },
        {
          "indexed": true,
          "internalType": "address",
          "name": "account",
          "type": "address"
        },
        {
          "indexed": true,
          "internalType": "address",
          "name": "sender",
          "type": "address"
        }
      ],
      "name": "RoleRevoked",
      "type": "event"
    },
    {
      "anonymous": false,
      "inputs": [
        {
          "indexed": true,
          "internalType": "address",
          "name": "from",
          "type": "address"
        },
        {
          "indexed": true,
          "internalType": "address",
          "name": "to",
          "type": "address"
        },
        {
          "indexed": false,
          "internalType": "uint256",
          "name": "value",
          "type": "uint256"
        }
      ],
      "name": "Transfer",
      "type": "event"
    },
    {
      "inputs": [],
      "name": "BURNER_ROLE",
      "outputs": [
        {
          "internalType": "bytes32",
          "name": "",
          "type": "bytes32"
        }
      ],
      "stateMutability": "view",
      "type": "function"
    },
    {
      "inputs": [],
      "name": "DEFAULT_ADMIN_ROLE",
      "outputs": [
        {
          "internalType": "bytes32",
          "name": "",
          "type": "bytes32"
        }
      ],
      "stateMutability": "view",
      "type": "function"
    },
    {
      "inputs": [],
      "name": "MINTER_ROLE",
      "outputs": [
        {
          "internalType": "bytes32",
          "name": "",
          "type": "bytes32"
        }
      ],
      "stateMutability": "view",
      "type": "function"
    },
    {
      "inputs": [
        {
          "internalType": "address",
          "name": "owner",
          "type": "address"
        },
        {
          "internalType": "address",
          "name": "spender",
          "type": "address"
        }
      ],
      "name": "allowance",
      "outputs": [
        {
          "internalType": "uint256",
          "name": "",
          "type": "uint256"
        }
      ],
      "stateMutability": "view",
      "type": "function"
    },
    {
      "inputs": [
        {
          "internalType": "address",
          "name": "spender",
          "type": "address"
        },
        {
          "internalType": "uint256",
          "name": "amount",
          "type": "uint256"
        }
      ],
      "name": "approve",
      "outputs": [
        {
          "internalType": "bool",
          "name": "",
          "type": "bool"
        }
      ],
      "stateMutability": "nonpayable",
      "type": "function"
    },
    {
      "inputs": [
        {
          "internalType": "address",
          "name": "account",
          "type": "address"
        }
      ],
      "name": "balanceOf",
      "outputs": [
        {
          "internalType": "uint256",
          "name": "",
          "type": "uint256"
        }
      ],
      "stateMutability": "view",
      "type": "function"
    },
    {
      "inputs": [],
      "name": "decimals",
      "outputs": [
        {
          "internalType": "uint8",
          "name": "",
          "type": "uint8"
        }
      ],
      "stateMutability": "view",
      "type": "function"
    },
    {
      "inputs": [
        {
          "internalType": "address",
          "name": "spender",
          "type": "address"
        },
        {
          "internalType": "uint256",
          "name": "subtractedValue",
          "type": "uint256"
        }
      ],
      "name": "decreaseAllowance",
      "outputs": [
        {
          "internalType": "bool",
          "name": "",
          "type": "bool"
        }
      ],
      "stateMutability": "nonpayable",
      "type": "function"
    },
    {
      "inputs": [
        {
          "internalType": "bytes32",
          "name": "role",
          "type": "bytes32"
        }
      ],
      "name": "getRoleAdmin",
      "outputs": [
        {
          "internalType": "bytes32",
          "name": "",
          "type": "bytes32"
        }
      ],
      "stateMutability": "view",
      "type": "function"
    },
    {
      "inputs": [
        {
          "internalType": "bytes32",
          "name": "role",
          "type": "bytes32"
        },
        {
          "internalType": "address",
          "name": "account",
          "type": "address"
        }
      ],
      "name": "grantRole",
      "outputs": [],
      "stateMutability": "nonpayable",
      "type": "function"
    },
    {
      "inputs": [
        {
          "internalType": "bytes32",
          "name": "role",
          "type": "bytes32"
        },
        {
          "internalType": "address",
          "name": "account",
          "type": "address"
        }
      ],
      "name": "hasRole",
      "outputs": [
        {
          "internalType": "bool",
          "name": "",
          "type": "bool"
        }
      ],
      "stateMutability": "view",
      "type": "function"
    },
    {
      "inputs": [
        {
          "internalType": "address",
          "name": "spender",
          "type": "address"
        },
        {
          "internalType": "uint256",
          "name": "addedValue",
          "type": "uint256"
        }
      ],
      "name": "increaseAllowance",
      "outputs": [
        {
          "internalType": "bool",
          "name": "",
          "type": "bool"
        }
      ],
      "stateMutability": "nonpayable",
      "type": "function"
    },
    {
      "inputs": [],
      "name": "name",
      "outputs": [
        {
          "internalType": "string",
          "name": "",
          "type": "string"
        }
      ],
      "stateMutability": "view",
      "type": "function"
    },
    {
      "inputs": [
        {
          "internalType": "bytes32",
          "name": "role",
          "type": "bytes32"
        },
        {
          "internalType": "address",
          "name": "account",
          "type": "address"
        }
      ],
      "name": "renounceRole",
      "outputs": [],
      "stateMutability": "nonpayable",
      "type": "function"
    },
    {
      "inputs": [
        {
          "internalType": "bytes32",
          "name": "role",
          "type": "bytes32"
        },
        {
          "internalType": "address",
          "name": "account",
          "type": "address"
        }
      ],
      "name": "revokeRole",
      "outputs": [],
      "stateMutability": "nonpayable",
      "type": "function"
    },
    {
      "inputs": [
        {
          "internalType": "bytes4",
          "name": "interfaceId",
          "type": "bytes4"
        }
      ],
      "name": "supportsInterface",
      "outputs": [
        {
          "internalType": "bool",
          "name": "",
          "type": "bool"
        }
      ],
      "stateMutability": "view",
      "type": "function"
    },
    {
      "inputs": [],
      "name": "symbol",
      "outputs": [
        {
          "internalType": "string",
          "name": "",
          "type": "string"
        }
      ],
      "stateMutability": "view",
      "type": "function"
    },
    {
      "inputs": [],
      "name": "totalSupply",
      "outputs": [
        {
          "internalType": "uint256",
          "name": "",
          "type": "uint256"
        }
      ],
      "stateMutability": "view",
      "type": "function"
    },
    {
      "inputs": [
        {
          "internalType": "address",
          "name": "recipient",
          "type": "address"
        },
        {
          "internalType": "uint256",
          "name": "amount",
          "type": "uint256"
        }
      ],
      "name": "transfer",
      "outputs": [
        {
          "internalType": "bool",
          "name": "",
          "type": "bool"
        }
      ],
      "stateMutability": "nonpayable",
      "type": "function"
    },
    {
      "inputs": [
        {
          "internalType": "address",
          "name": "sender",
          "type": "address"
        },
        {
          "internalType": "address",
          "name": "recipient",
          "type": "address"
        },
        {
          "internalType": "uint256",
          "name": "amount",
          "type": "uint256"
        }
      ],
      "name": "transferFrom",
      "outputs": [
        {
          "internalType": "bool",
          "name": "",
          "type": "bool"
        }
      ],
      "stateMutability": "nonpayable",
      "type": "function"
    },
    {
      "inputs": [
        {
          "internalType": "address",
          "name": "to",
          "type": "address"
        },
        {
          "internalType": "uint256",
          "name": "amount",
          "type": "uint256"
        }
      ],
      "name": "mint",
      "outputs": [],
      "stateMutability": "nonpayable",
      "type": "function"
    },
    {
      "inputs": [
        {
          "internalType": "address",
          "name": "from",
          "type": "address"
        },
        {
          "internalType": "uint256",
          "name": "amount",
          "type": "uint256"
        }
      ],
      "name": "burn",
      "outputs": [],
      "stateMutability": "nonpayable",
      "type": "function"
    }
  ],
  "bytecode": "0x60806040523480156200001157600080fd5b5060405162001cbe38038062001cbe83398101604081905262000034916200058f565b8151829082906200004d9060039060208501906200045a565b508051620000639060049060208401906200045a565b506200007591506000905033620000d5565b620000a17f9f2df0fed2c77648de5860a4cc508cd0818c85b8b8a1ab4ceeef8d981c8956a633620000e5565b620000cd7f3c11d16cbaffd01df69ce1c404f6340ee057498f5f00246190ea54220576a84833620000e5565b505062000797565b620000e1828262000114565b5050565b600082815260056020526040902060010154620001038133620001b8565b6200010f838362000114565b505050565b60008281526005602090815260408083206001600160a01b038516845290915290205460ff16620000e15760008281526005602090815260408083206001600160a01b03851684529091529020805460ff19166001179055620001743390565b6001600160a01b0316816001600160a01b0316837f2f8788117e7eff1d82e926ec794901d17c78024a50270940304540a733656f0d60405160405180910390a45050565b60008281526005602090815260408083206001600160a01b038516845290915290205460ff16620000e15762000204816001600160a01b031660146200025e60201b620008191760201c565b6200021a836020620008196200025e821b17811c565b6040516020016200022d929190620005f6565b60408051601f198184030181529082905262461bcd60e51b825262000255916004016200066f565b60405180910390fd5b606060006200026f836002620006bf565b6200027c906002620006a4565b6001600160401b03811115620002a257634e487b7160e01b600052604160045260246000fd5b6040519080825280601f01601f191660200182016040528015620002cd576020820181803683370190505b509050600360fc1b81600081518110620002f757634e487b7160e01b600052603260045260246000fd5b60200101906001600160f81b031916908160001a905350600f60fb1b816001815181106200033557634e487b7160e01b600052603260045260246000fd5b60200101906001600160f81b031916908160001a90535060006200035b846002620006bf565b62000368906001620006a4565b90505b600181111562000402576f181899199a1a9b1b9c1cb0b131b232b360811b85600f1660108110620003ac57634e487b7160e01b600052603260045260246000fd5b1a60f81b828281518110620003d157634e487b7160e01b600052603260045260246000fd5b60200101906001600160f81b031916908160001a90535060049490941c93620003fa8162000714565b90506200036b565b508315620004535760405162461bcd60e51b815260206004820181905260248201527f537472696e67733a20686578206c656e67746820696e73756666696369656e74604482015260640162000255565b9392505050565b82805462000468906200072e565b90600052602060002090601f0160209004810192826200048c5760008555620004d7565b82601f10620004a757805160ff1916838001178555620004d7565b82800160010185558215620004d7579182015b82811115620004d7578251825591602001919060010190620004ba565b50620004e5929150620004e9565b5090565b5b80821115620004e55760008155600101620004ea565b600082601f83011262000511578081fd5b81516001600160401b03808211156200052e576200052e62000781565b604051601f8301601f19908116603f0116810190828211818310171562000559576200055962000781565b8160405283815286602085880101111562000572578485fd5b62000585846020830160208901620006e1565b9695505050505050565b60008060408385031215620005a2578182fd5b82516001600160401b0380821115620005b9578384fd5b620005c78683870162000500565b93506020850151915080821115620005dd578283fd5b50620005ec8582860162000500565b9150509250929050565b60007f416363657373436f6e74726f6c3a206163636f756e74200000000000000000008252835162000630816017850160208801620006e1565b7001034b99036b4b9b9b4b733903937b6329607d1b601791840191820152835162000663816028840160208801620006e1565b01602801949350505050565b600060208252825180602084015262000690816040850160208701620006e1565b601f01601f19169190910160400192915050565b60008219821115620006ba57620006ba6200076b565b500190565b6000816000190483118215151615620006dc57620006dc6200076b565b500290565b60005b83811015620006fe578181015183820152602001620006e4565b838111156200070e576000848401525b50505050565b6000816200072657620007266200076b565b506000190190565b6002810460018216806200074357607f821691505b602082108114156200076557634e487b7160e01b600052602260045260246000fd5b50919050565b634e487b7160e01b600052601160045260246000fd5b634e487b7160e01b600052604160045260246000fd5b61151780620007a76000396000f3fe608060405234801561001057600080fd5b50600436106101825760003560e01c806340c10f19116100d8578063a217fddf1161008c578063d539139311610066578063d53913931461034e578063d547741f14610375578063dd62ed3e1461038857610182565b8063a217fddf14610320578063a457c2d714610328578063a9059cbb1461033b57610182565b806391d14854116100bd57806391d14854146102cc57806395d89b41146103055780639dc29fac1461030d57610182565b806340c10f191461029057806370a08231146102a357610182565b8063248a9ca31161013a578063313ce56711610114578063313ce5671461025b57806336568abe1461026a578063395093511461027d57610182565b8063248a9ca3146101fc578063282c51f31461021f5780632f2ff15d1461024657610182565b8063095ea7b31161016b578063095ea7b3146101c457806318160ddd146101d757806323b872dd146101e957610182565b806301ffc9a71461018757806306fdde03146101af575b600080fd5b61019a61019536600461130b565b6103c1565b60405190151581526020015b60405180910390f35b6101b761045c565b6040516101a691906113cc565b61019a6101d23660046112a8565b6104ee565b6002545b6040519081526020016101a6565b61019a6101f736600461126d565b610504565b6101db61020a3660046112d1565b60009081526005602052604090206001015490565b6101db7f3c11d16cbaffd01df69ce1c404f6340ee057498f5f00246190ea54220576a84881565b6102596102543660046112e9565b6105c8565b005b604051601281526020016101a6565b6102596102783660046112e9565b6105f4565b61019a61028b3660046112a8565b610680565b61025961029e3660046112a8565b6106bc565b6101db6102b1366004611221565b6001600160a01b031660009081526020819052604090205490565b61019a6102da3660046112e9565b60009182526005602090815260408084206001600160a01b0393909316845291905290205460ff1690565b6101b76106f1565b61025961031b3660046112a8565b610700565b6101db600081565b61019a6103363660046112a8565b610735565b61019a6103493660046112a8565b6107e6565b6101db7f9f2df0fed2c77648de5860a4cc508cd0818c85b8b8a1ab4ceeef8d981c8956a681565b6102596103833660046112e9565b6107f3565b6101db61039636600461123b565b6001600160a01b03918216600090815260016020908152604080832093909416825291909152205490565b60007fffffffff0000000000000000000000000000000000000000000000000000000082167f7965db0b00000000000000000000000000000000000000000000000000000000148061045457507f01ffc9a7000000000000000000000000000000000000000000000000000000007fffffffff000000000000000000000000000000000000000000000000000000008316145b90505b919050565b60606003805461046b90611490565b80601f016020809104026020016040519081016040528092919081815260200182805461049790611490565b80156104e45780601f106104b9576101008083540402835291602001916104e4565b820191906000526020600020905b8154815290600101906020018083116104c757829003601f168201915b5050505050905090565b60006104fb338484610a8f565b50600192915050565b6000610511848484610be7565b6001600160a01b0384166000908152600160209081526040808320338452909152902054828110156105b05760405162461bcd60e51b815260206004820152602860248201527f45524332303a207472616e7366657220616d6f756e742065786365656473206160448201527f6c6c6f77616e636500000000000000000000000000000000000000000000000060648201526084015b60405180910390fd5b6105bd8533858403610a8f565b506001949350505050565b6000828152600560205260409020600101546105e581335b610e00565b6105ef8383610e80565b505050565b6001600160a01b03811633146106725760405162461bcd60e51b815260206004820152602f60248201527f416363657373436f6e74726f6c3a2063616e206f6e6c792072656e6f756e636560448201527f20726f6c657320666f722073656c66000000000000000000000000000000000060648201526084016105a7565b61067c8282610f22565b5050565b3360008181526001602090815260408083206001600160a01b038716845290915281205490916104fb9185906106b79086906113ff565b610a8f565b7f9f2df0fed2c77648de5860a4cc508cd0818c85b8b8a1ab4ceeef8d981c8956a66106e781336105e0565b6105ef8383610fa5565b60606004805461046b90611490565b7f3c11d16cbaffd01df69ce1c404f6340ee057498f5f00246190ea54220576a84861072b81336105e0565b6105ef8383611085565b3360009081526001602090815260408083206001600160a01b0386168452909152812054828110156107cf5760405162461bcd60e51b815260206004820152602560248201527f45524332303a2064656372656173656420616c6c6f77616e63652062656c6f7760448201527f207a65726f00000000000000000000000000000000000000000000000000000060648201526084016105a7565b6107dc3385858403610a8f565b5060019392505050565b60006104fb338484610be7565b60008281526005602052604090206001015461080f81336105e0565b6105ef8383610f22565b60606000610828836002611417565b6108339060026113ff565b67ffffffffffffffff81111561085957634e487b7160e01b600052604160045260246000fd5b6040519080825280601f01601f191660200182016040528015610883576020820181803683370190505b5090507f3000000000000000000000000000000000000000000000000000000000000000816000815181106108c857634e487b7160e01b600052603260045260246000fd5b60200101907effffffffffffffffffffffffffffffffffffffffffffffffffffffffffffff1916908160001a9053507f78000000000000000000000000000000000000000000000000000000000000008160018151811061093957634e487b7160e01b600052603260045260246000fd5b60200101907effffffffffffffffffffffffffffffffffffffffffffffffffffffffffffff1916908160001a9053506000610975846002611417565b6109809060016113ff565b90505b6001811115610a39577f303132333435363738396162636465660000000000000000000000000000000085600f16601081106109cf57634e487b7160e01b600052603260045260246000fd5b1a60f81b8282815181106109f357634e487b7160e01b600052603260045260246000fd5b60200101907effffffffffffffffffffffffffffffffffffffffffffffffffffffffffffff1916908160001a90535060049490941c93610a3281611479565b9050610983565b508315610a885760405162461bcd60e51b815260206004820181905260248201527f537472696e67733a20686578206c656e67746820696e73756666696369656e7460448201526064016105a7565b9392505050565b6001600160a01b038316610b0a5760405162461bcd60e51b8152602060048201526024808201527f45524332303a20617070726f76652066726f6d20746865207a65726f2061646460448201527f726573730000000000000000000000000000000000000000000000000000000060648201526084016105a7565b6001600160a01b038216610b865760405162461bcd60e51b815260206004820152602260248201527f45524332303a20617070726f766520746f20746865207a65726f20616464726560448201527f737300000000000000000000000000000000000000000000000000000000000060648201526084016105a7565b6001600160a01b0383811660008181526001602090815260408083209487168084529482529182902085905590518481527f8c5be1e5ebec7d5bd14f71427d1e84f3dd0314c0f7b2291e5b200ac8c7c3b925910160405180910390a3505050565b6001600160a01b038316610c635760405162461bcd60e51b815260206004820152602560248201527f45524332303a207472616e736665722066726f6d20746865207a65726f20616460448201527f647265737300000000000000000000000000000000000000000000000000000060648201526084016105a7565b6001600160a01b038216610cdf5760405162461bcd60e51b815260206004820152602360248201527f45524332303a207472616e7366657220746f20746865207a65726f206164647260448201527f657373000000000000000000000000000000000000000000000000000000000060648201526084016105a7565b6001600160a01b03831660009081526020819052604090205481811015610d6e5760405162461bcd60e51b815260206004820152602660248201527f45524332303a207472616e7366657220616d6f756e742065786365656473206260448201527f616c616e6365000000000000000000000000000000000000000000000000000060648201526084016105a7565b6001600160a01b03808516600090815260208190526040808220858503905591851681529081208054849290610da59084906113ff565b92505081905550826001600160a01b0316846001600160a01b03167fddf252ad1be2c89b69c2b068fc378daa952ba7f163c4a11628f55a4df523b3ef84604051610df191815260200190565b60405180910390a35b50505050565b60008281526005602090815260408083206001600160a01b038516845290915290205460ff1661067c57610e3e816001600160a01b03166014610819565b610e49836020610819565b604051602001610e5a92919061134b565b60408051601f198184030181529082905262461bcd60e51b82526105a7916004016113cc565b60008281526005602090815260408083206001600160a01b038516845290915290205460ff1661067c5760008281526005602090815260408083206001600160a01b03851684529091529020805460ff19166001179055610ede3390565b6001600160a01b0316816001600160a01b0316837f2f8788117e7eff1d82e926ec794901d17c78024a50270940304540a733656f0d60405160405180910390a45050565b60008281526005602090815260408083206001600160a01b038516845290915290205460ff161561067c5760008281526005602090815260408083206001600160a01b0385168085529252808320805460ff1916905551339285917ff6391f5c32d9c69d2a47ea670b442974b53935d1edc7fd64eb21e047a839171b9190a45050565b6001600160a01b038216610ffb5760405162461bcd60e51b815260206004820152601f60248201527f45524332303a206d696e7420746f20746865207a65726f20616464726573730060448201526064016105a7565b806002600082825461100d91906113ff565b90915550506001600160a01b0382166000908152602081905260408120805483929061103a9084906113ff565b90915550506040518181526001600160a01b038316906000907fddf252ad1be2c89b69c2b068fc378daa952ba7f163c4a11628f55a4df523b3ef9060200160405180910390a361067c565b6001600160a01b0382166111015760405162461bcd60e51b815260206004820152602160248201527f45524332303a206275726e2066726f6d20746865207a65726f2061646472657360448201527f730000000000000000000000000000000000000000000000000000000000000060648201526084016105a7565b6001600160a01b038216600090815260208190526040902054818110156111905760405162461bcd60e51b815260206004820152602260248201527f45524332303a206275726e20616d6f756e7420657863656564732062616c616e60448201527f636500000000000000000000000000000000000000000000000000000000000060648201526084016105a7565b6001600160a01b03831660009081526020819052604081208383039055600280548492906111bf908490611436565b90915550506040518281526000906001600160a01b038516907fddf252ad1be2c89b69c2b068fc378daa952ba7f163c4a11628f55a4df523b3ef9060200160405180910390a36105ef565b80356001600160a01b038116811461045757600080fd5b600060208284031215611232578081fd5b610a888261120a565b6000806040838503121561124d578081fd5b6112568361120a565b91506112646020840161120a565b90509250929050565b600080600060608486031215611281578081fd5b61128a8461120a565b92506112986020850161120a565b9150604084013590509250925092565b600080604083850312156112ba578182fd5b6112c38361120a565b946020939093013593505050565b6000602082840312156112e2578081fd5b5035919050565b600080604083850312156112fb578182fd5b823591506112646020840161120a565b60006020828403121561131c578081fd5b81357fffffffff0000000000000000000000000000000000000000000000000000000081168114610a88578182fd5b60007f416363657373436f6e74726f6c3a206163636f756e74200000000000000000008252835161138381601785016020880161144d565b7f206973206d697373696e6720726f6c652000000000000000000000000000000060179184019182015283516113c081602884016020880161144d565b01602801949350505050565b60006020825282518060208401526113eb81604085016020870161144d565b601f01601f19169190910160400192915050565b60008219821115611412576114126114cb565b500190565b6000816000190483118215151615611431576114316114cb565b500290565b600082821015611448576114486114cb565b500390565b60005b83811015611468578181015183820152602001611450565b83811115610dfa5750506000910152565b600081611488576114886114cb565b506000190190565b6002810460018216806114a457607f821691505b602082108114156114c557634e487b7160e01b600052602260045260246000fd5b50919050565b634e487b7160e01b600052601160045260246000fdfea2646970667358221220e441a017096c6ac617ad2d8d396c9a681ea466a1c46930483b5ca0722e46308264736f6c63430008020033",
  "immutableReferences": {},
  "source": "// contracts/MyToken.sol\r\n// SPDX-License-Identifier: MIT\r\npragma solidity ^0.8.2;\r\n\r\nimport '@openzeppelin/contracts/access/AccessControl.sol';\r\nimport '@openzeppelin/contracts/token/ERC20/ERC20.sol';\r\n\r\ncontract MyAccessControlledToken is ERC20, AccessControl {\r\n    bytes32 public constant MINTER_ROLE = keccak256('MINTER_ROLE');\r\n    bytes32 public constant BURNER_ROLE = keccak256('BURNER_ROLE');\r\n\r\n    constructor(string memory name, string memory symbol) ERC20(name, symbol) {\r\n        // Grant the contract deployer the default admin role: it will be able\r\n        // to grant and revoke any roles\r\n        _setupRole(DEFAULT_ADMIN_ROLE, msg.sender);\r\n        grantRole(MINTER_ROLE, address(msg.sender));\r\n        grantRole(BURNER_ROLE, address(msg.sender));\r\n    }\r\n\r\n    function mint(address to, uint256 amount) public onlyRole(MINTER_ROLE) {\r\n        _mint(to, amount);\r\n    }\r\n\r\n    function burn(address from, uint256 amount) public onlyRole(BURNER_ROLE) {\r\n        _burn(from, amount);\r\n    }\r\n}\r\n",
  "sourcePath": "C:\\Users\\Owner\\Dropbox\\general\\dev\\web\\projects\\100 - blockchain\\Second blockchain project\\s06-tokenisation\\contracts\\MyAccessControlledToken.sol",
  "compiler": {
    "name": "solc",
    "version": "0.8.2+commit.661d1103.Emscripten.clang"
  },
  "schemaVersion": "3.4.2",
  "updatedAt": "2021-10-12T14:09:43.921Z",
  "devdoc": {
    "kind": "dev",
    "methods": {
      "allowance(address,address)": {
        "details": "See {IERC20-allowance}."
      },
      "approve(address,uint256)": {
        "details": "See {IERC20-approve}. Requirements: - `spender` cannot be the zero address."
      },
      "balanceOf(address)": {
        "details": "See {IERC20-balanceOf}."
      },
      "decimals()": {
        "details": "Returns the number of decimals used to get its user representation. For example, if `decimals` equals `2`, a balance of `505` tokens should be displayed to a user as `5.05` (`505 / 10 ** 2`). Tokens usually opt for a value of 18, imitating the relationship between Ether and Wei. This is the value {ERC20} uses, unless this function is overridden; NOTE: This information is only used for _display_ purposes: it in no way affects any of the arithmetic of the contract, including {IERC20-balanceOf} and {IERC20-transfer}."
      },
      "decreaseAllowance(address,uint256)": {
        "details": "Atomically decreases the allowance granted to `spender` by the caller. This is an alternative to {approve} that can be used as a mitigation for problems described in {IERC20-approve}. Emits an {Approval} event indicating the updated allowance. Requirements: - `spender` cannot be the zero address. - `spender` must have allowance for the caller of at least `subtractedValue`."
      },
      "getRoleAdmin(bytes32)": {
        "details": "Returns the admin role that controls `role`. See {grantRole} and {revokeRole}. To change a role's admin, use {_setRoleAdmin}."
      },
      "grantRole(bytes32,address)": {
        "details": "Grants `role` to `account`. If `account` had not been already granted `role`, emits a {RoleGranted} event. Requirements: - the caller must have ``role``'s admin role."
      },
      "hasRole(bytes32,address)": {
        "details": "Returns `true` if `account` has been granted `role`."
      },
      "increaseAllowance(address,uint256)": {
        "details": "Atomically increases the allowance granted to `spender` by the caller. This is an alternative to {approve} that can be used as a mitigation for problems described in {IERC20-approve}. Emits an {Approval} event indicating the updated allowance. Requirements: - `spender` cannot be the zero address."
      },
      "name()": {
        "details": "Returns the name of the token."
      },
      "renounceRole(bytes32,address)": {
        "details": "Revokes `role` from the calling account. Roles are often managed via {grantRole} and {revokeRole}: this function's purpose is to provide a mechanism for accounts to lose their privileges if they are compromised (such as when a trusted device is misplaced). If the calling account had been granted `role`, emits a {RoleRevoked} event. Requirements: - the caller must be `account`."
      },
      "revokeRole(bytes32,address)": {
        "details": "Revokes `role` from `account`. If `account` had been granted `role`, emits a {RoleRevoked} event. Requirements: - the caller must have ``role``'s admin role."
      },
      "supportsInterface(bytes4)": {
        "details": "See {IERC165-supportsInterface}."
      },
      "symbol()": {
        "details": "Returns the symbol of the token, usually a shorter version of the name."
      },
      "totalSupply()": {
        "details": "See {IERC20-totalSupply}."
      },
      "transfer(address,uint256)": {
        "details": "See {IERC20-transfer}. Requirements: - `recipient` cannot be the zero address. - the caller must have a balance of at least `amount`."
      },
      "transferFrom(address,address,uint256)": {
        "details": "See {IERC20-transferFrom}. Emits an {Approval} event indicating the updated allowance. This is not required by the EIP. See the note at the beginning of {ERC20}. Requirements: - `sender` and `recipient` cannot be the zero address. - `sender` must have a balance of at least `amount`. - the caller must have allowance for ``sender``'s tokens of at least `amount`."
      }
    },
    "version": 1
  },
  "userdoc": {
    "kind": "user",
    "methods": {},
    "version": 1
  }
}