{
  "contractName": "MyGovernerContract",
  "abi": [
    {
      "inputs": [
        {
          "internalType": "contract ERC20Votes",
          "name": "_token",
          "type": "address"
        },
        {
          "internalType": "contract TimelockController",
          "name": "_timelock",
          "type": "address"
        }
      ],
      "stateMutability": "nonpayable",
      "type": "constructor"
    },
    {
      "anonymous": false,
      "inputs": [
        {
          "indexed": false,
          "internalType": "uint256",
          "name": "proposalId",
          "type": "uint256"
        }
      ],
      "name": "ProposalCanceled",
      "type": "event"
    },
    {
      "anonymous": false,
      "inputs": [
        {
          "indexed": false,
          "internalType": "uint256",
          "name": "proposalId",
          "type": "uint256"
        },
        {
          "indexed": false,
          "internalType": "address",
          "name": "proposer",
          "type": "address"
        },
        {
          "indexed": false,
          "internalType": "address[]",
          "name": "targets",
          "type": "address[]"
        },
        {
          "indexed": false,
          "internalType": "uint256[]",
          "name": "values",
          "type": "uint256[]"
        },
        {
          "indexed": false,
          "internalType": "string[]",
          "name": "signatures",
          "type": "string[]"
        },
        {
          "indexed": false,
          "internalType": "bytes[]",
          "name": "calldatas",
          "type": "bytes[]"
        },
        {
          "indexed": false,
          "internalType": "uint256",
          "name": "startBlock",
          "type": "uint256"
        },
        {
          "indexed": false,
          "internalType": "uint256",
          "name": "endBlock",
          "type": "uint256"
        },
        {
          "indexed": false,
          "internalType": "string",
          "name": "description",
          "type": "string"
        }
      ],
      "name": "ProposalCreated",
      "type": "event"
    },
    {
      "anonymous": false,
      "inputs": [
        {
          "indexed": false,
          "internalType": "uint256",
          "name": "proposalId",
          "type": "uint256"
        }
      ],
      "name": "ProposalExecuted",
      "type": "event"
    },
    {
      "anonymous": false,
      "inputs": [
        {
          "indexed": false,
          "internalType": "uint256",
          "name": "proposalId",
          "type": "uint256"
        },
        {
          "indexed": false,
          "internalType": "uint256",
          "name": "eta",
          "type": "uint256"
        }
      ],
      "name": "ProposalQueued",
      "type": "event"
    },
    {
      "anonymous": false,
      "inputs": [
        {
          "indexed": false,
          "internalType": "uint256",
          "name": "oldQuorumNumerator",
          "type": "uint256"
        },
        {
          "indexed": false,
          "internalType": "uint256",
          "name": "newQuorumNumerator",
          "type": "uint256"
        }
      ],
      "name": "QuorumNumeratorUpdated",
      "type": "event"
    },
    {
      "anonymous": false,
      "inputs": [
        {
          "indexed": false,
          "internalType": "address",
          "name": "oldTimelock",
          "type": "address"
        },
        {
          "indexed": false,
          "internalType": "address",
          "name": "newTimelock",
          "type": "address"
        }
      ],
      "name": "TimelockChange",
      "type": "event"
    },
    {
      "anonymous": false,
      "inputs": [
        {
          "indexed": true,
          "internalType": "address",
          "name": "voter",
          "type": "address"
        },
        {
          "indexed": false,
          "internalType": "uint256",
          "name": "proposalId",
          "type": "uint256"
        },
        {
          "indexed": false,
          "internalType": "uint8",
          "name": "support",
          "type": "uint8"
        },
        {
          "indexed": false,
          "internalType": "uint256",
          "name": "weight",
          "type": "uint256"
        },
        {
          "indexed": false,
          "internalType": "string",
          "name": "reason",
          "type": "string"
        }
      ],
      "name": "VoteCast",
      "type": "event"
    },
    {
      "inputs": [],
      "name": "BALLOT_TYPEHASH",
      "outputs": [
        {
          "internalType": "bytes32",
          "name": "",
          "type": "bytes32"
        }
      ],
      "stateMutability": "view",
      "type": "function"
    },
    {
      "inputs": [],
      "name": "COUNTING_MODE",
      "outputs": [
        {
          "internalType": "string",
          "name": "",
          "type": "string"
        }
      ],
      "stateMutability": "pure",
      "type": "function"
    },
    {
      "inputs": [
        {
          "internalType": "uint256",
          "name": "proposalId",
          "type": "uint256"
        }
      ],
      "name": "cancel",
      "outputs": [],
      "stateMutability": "nonpayable",
      "type": "function"
    },
    {
      "inputs": [
        {
          "internalType": "uint256",
          "name": "proposalId",
          "type": "uint256"
        },
        {
          "internalType": "uint8",
          "name": "support",
          "type": "uint8"
        }
      ],
      "name": "castVote",
      "outputs": [
        {
          "internalType": "uint256",
          "name": "",
          "type": "uint256"
        }
      ],
      "stateMutability": "nonpayable",
      "type": "function"
    },
    {
      "inputs": [
        {
          "internalType": "uint256",
          "name": "proposalId",
          "type": "uint256"
        },
        {
          "internalType": "uint8",
          "name": "support",
          "type": "uint8"
        },
        {
          "internalType": "uint8",
          "name": "v",
          "type": "uint8"
        },
        {
          "internalType": "bytes32",
          "name": "r",
          "type": "bytes32"
        },
        {
          "internalType": "bytes32",
          "name": "s",
          "type": "bytes32"
        }
      ],
      "name": "castVoteBySig",
      "outputs": [
        {
          "internalType": "uint256",
          "name": "",
          "type": "uint256"
        }
      ],
      "stateMutability": "nonpayable",
      "type": "function"
    },
    {
      "inputs": [
        {
          "internalType": "uint256",
          "name": "proposalId",
          "type": "uint256"
        },
        {
          "internalType": "uint8",
          "name": "support",
          "type": "uint8"
        },
        {
          "internalType": "string",
          "name": "reason",
          "type": "string"
        }
      ],
      "name": "castVoteWithReason",
      "outputs": [
        {
          "internalType": "uint256",
          "name": "",
          "type": "uint256"
        }
      ],
      "stateMutability": "nonpayable",
      "type": "function"
    },
    {
      "inputs": [
        {
          "internalType": "address[]",
          "name": "targets",
          "type": "address[]"
        },
        {
          "internalType": "uint256[]",
          "name": "values",
          "type": "uint256[]"
        },
        {
          "internalType": "bytes[]",
          "name": "calldatas",
          "type": "bytes[]"
        },
        {
          "internalType": "bytes32",
          "name": "descriptionHash",
          "type": "bytes32"
        }
      ],
      "name": "execute",
      "outputs": [
        {
          "internalType": "uint256",
          "name": "",
          "type": "uint256"
        }
      ],
      "stateMutability": "payable",
      "type": "function"
    },
    {
      "inputs": [
        {
          "internalType": "uint256",
          "name": "proposalId",
          "type": "uint256"
        }
      ],
      "name": "execute",
      "outputs": [],
      "stateMutability": "payable",
      "type": "function"
    },
    {
      "inputs": [
        {
          "internalType": "uint256",
          "name": "proposalId",
          "type": "uint256"
        }
      ],
      "name": "getActions",
      "outputs": [
        {
          "internalType": "address[]",
          "name": "targets",
          "type": "address[]"
        },
        {
          "internalType": "uint256[]",
          "name": "values",
          "type": "uint256[]"
        },
        {
          "internalType": "string[]",
          "name": "signatures",
          "type": "string[]"
        },
        {
          "internalType": "bytes[]",
          "name": "calldatas",
          "type": "bytes[]"
        }
      ],
      "stateMutability": "view",
      "type": "function"
    },
    {
      "inputs": [
        {
          "internalType": "uint256",
          "name": "proposalId",
          "type": "uint256"
        },
        {
          "internalType": "address",
          "name": "voter",
          "type": "address"
        }
      ],
      "name": "getReceipt",
      "outputs": [
        {
          "components": [
            {
              "internalType": "bool",
              "name": "hasVoted",
              "type": "bool"
            },
            {
              "internalType": "uint8",
              "name": "support",
              "type": "uint8"
            },
            {
              "internalType": "uint96",
              "name": "votes",
              "type": "uint96"
            }
          ],
          "internalType": "struct IGovernorCompatibilityBravo.Receipt",
          "name": "",
          "type": "tuple"
        }
      ],
      "stateMutability": "view",
      "type": "function"
    },
    {
      "inputs": [
        {
          "internalType": "uint256",
          "name": "proposalId",
          "type": "uint256"
        },
        {
          "internalType": "address",
          "name": "account",
          "type": "address"
        }
      ],
      "name": "hasVoted",
      "outputs": [
        {
          "internalType": "bool",
          "name": "",
          "type": "bool"
        }
      ],
      "stateMutability": "view",
      "type": "function"
    },
    {
      "inputs": [
        {
          "internalType": "address[]",
          "name": "targets",
          "type": "address[]"
        },
        {
          "internalType": "uint256[]",
          "name": "values",
          "type": "uint256[]"
        },
        {
          "internalType": "bytes[]",
          "name": "calldatas",
          "type": "bytes[]"
        },
        {
          "internalType": "bytes32",
          "name": "descriptionHash",
          "type": "bytes32"
        }
      ],
      "name": "hashProposal",
      "outputs": [
        {
          "internalType": "uint256",
          "name": "",
          "type": "uint256"
        }
      ],
      "stateMutability": "pure",
      "type": "function"
    },
    {
      "inputs": [],
      "name": "name",
      "outputs": [
        {
          "internalType": "string",
          "name": "",
          "type": "string"
        }
      ],
      "stateMutability": "view",
      "type": "function"
    },
    {
      "inputs": [
        {
          "internalType": "uint256",
          "name": "proposalId",
          "type": "uint256"
        }
      ],
      "name": "proposalDeadline",
      "outputs": [
        {
          "internalType": "uint256",
          "name": "",
          "type": "uint256"
        }
      ],
      "stateMutability": "view",
      "type": "function"
    },
    {
      "inputs": [
        {
          "internalType": "uint256",
          "name": "proposalId",
          "type": "uint256"
        }
      ],
      "name": "proposalEta",
      "outputs": [
        {
          "internalType": "uint256",
          "name": "",
          "type": "uint256"
        }
      ],
      "stateMutability": "view",
      "type": "function"
    },
    {
      "inputs": [
        {
          "internalType": "uint256",
          "name": "proposalId",
          "type": "uint256"
        }
      ],
      "name": "proposalSnapshot",
      "outputs": [
        {
          "internalType": "uint256",
          "name": "",
          "type": "uint256"
        }
      ],
      "stateMutability": "view",
      "type": "function"
    },
    {
      "inputs": [
        {
          "internalType": "uint256",
          "name": "proposalId",
          "type": "uint256"
        }
      ],
      "name": "proposals",
      "outputs": [
        {
          "internalType": "uint256",
          "name": "id",
          "type": "uint256"
        },
        {
          "internalType": "address",
          "name": "proposer",
          "type": "address"
        },
        {
          "internalType": "uint256",
          "name": "eta",
          "type": "uint256"
        },
        {
          "internalType": "uint256",
          "name": "startBlock",
          "type": "uint256"
        },
        {
          "internalType": "uint256",
          "name": "endBlock",
          "type": "uint256"
        },
        {
          "internalType": "uint256",
          "name": "forVotes",
          "type": "uint256"
        },
        {
          "internalType": "uint256",
          "name": "againstVotes",
          "type": "uint256"
        },
        {
          "internalType": "uint256",
          "name": "abstainVotes",
          "type": "uint256"
        },
        {
          "internalType": "bool",
          "name": "canceled",
          "type": "bool"
        },
        {
          "internalType": "bool",
          "name": "executed",
          "type": "bool"
        }
      ],
      "stateMutability": "view",
      "type": "function"
    },
    {
      "inputs": [
        {
          "internalType": "address[]",
          "name": "targets",
          "type": "address[]"
        },
        {
          "internalType": "uint256[]",
          "name": "values",
          "type": "uint256[]"
        },
        {
          "internalType": "bytes[]",
          "name": "calldatas",
          "type": "bytes[]"
        },
        {
          "internalType": "bytes32",
          "name": "descriptionHash",
          "type": "bytes32"
        }
      ],
      "name": "queue",
      "outputs": [
        {
          "internalType": "uint256",
          "name": "",
          "type": "uint256"
        }
      ],
      "stateMutability": "nonpayable",
      "type": "function"
    },
    {
      "inputs": [
        {
          "internalType": "uint256",
          "name": "proposalId",
          "type": "uint256"
        }
      ],
      "name": "queue",
      "outputs": [],
      "stateMutability": "nonpayable",
      "type": "function"
    },
    {
      "inputs": [],
      "name": "quorumDenominator",
      "outputs": [
        {
          "internalType": "uint256",
          "name": "",
          "type": "uint256"
        }
      ],
      "stateMutability": "view",
      "type": "function"
    },
    {
      "inputs": [],
      "name": "quorumNumerator",
      "outputs": [
        {
          "internalType": "uint256",
          "name": "",
          "type": "uint256"
        }
      ],
      "stateMutability": "view",
      "type": "function"
    },
    {
      "inputs": [],
      "name": "quorumVotes",
      "outputs": [
        {
          "internalType": "uint256",
          "name": "",
          "type": "uint256"
        }
      ],
      "stateMutability": "view",
      "type": "function"
    },
    {
      "inputs": [],
      "name": "timelock",
      "outputs": [
        {
          "internalType": "address",
          "name": "",
          "type": "address"
        }
      ],
      "stateMutability": "view",
      "type": "function"
    },
    {
      "inputs": [],
      "name": "token",
      "outputs": [
        {
          "internalType": "contract ERC20Votes",
          "name": "",
          "type": "address"
        }
      ],
      "stateMutability": "view",
      "type": "function"
    },
    {
      "inputs": [
        {
          "internalType": "uint256",
          "name": "newQuorumNumerator",
          "type": "uint256"
        }
      ],
      "name": "updateQuorumNumerator",
      "outputs": [],
      "stateMutability": "nonpayable",
      "type": "function"
    },
    {
      "inputs": [
        {
          "internalType": "contract TimelockController",
          "name": "newTimelock",
          "type": "address"
        }
      ],
      "name": "updateTimelock",
      "outputs": [],
      "stateMutability": "nonpayable",
      "type": "function"
    },
    {
      "inputs": [],
      "name": "version",
      "outputs": [
        {
          "internalType": "string",
          "name": "",
          "type": "string"
        }
      ],
      "stateMutability": "view",
      "type": "function"
    },
    {
      "inputs": [],
      "name": "votingDelay",
      "outputs": [
        {
          "internalType": "uint256",
          "name": "",
          "type": "uint256"
        }
      ],
      "stateMutability": "pure",
      "type": "function"
    },
    {
      "inputs": [],
      "name": "votingPeriod",
      "outputs": [
        {
          "internalType": "uint256",
          "name": "",
          "type": "uint256"
        }
      ],
      "stateMutability": "pure",
      "type": "function"
    },
    {
      "inputs": [],
      "name": "proposalThreshold",
      "outputs": [
        {
          "internalType": "uint256",
          "name": "",
          "type": "uint256"
        }
      ],
      "stateMutability": "pure",
      "type": "function"
    },
    {
      "inputs": [
        {
          "internalType": "uint256",
          "name": "blockNumber",
          "type": "uint256"
        }
      ],
      "name": "quorum",
      "outputs": [
        {
          "internalType": "uint256",
          "name": "",
          "type": "uint256"
        }
      ],
      "stateMutability": "view",
      "type": "function"
    },
    {
      "inputs": [
        {
          "internalType": "address",
          "name": "account",
          "type": "address"
        },
        {
          "internalType": "uint256",
          "name": "blockNumber",
          "type": "uint256"
        }
      ],
      "name": "getVotes",
      "outputs": [
        {
          "internalType": "uint256",
          "name": "",
          "type": "uint256"
        }
      ],
      "stateMutability": "view",
      "type": "function"
    },
    {
      "inputs": [
        {
          "internalType": "uint256",
          "name": "proposalId",
          "type": "uint256"
        }
      ],
      "name": "state",
      "outputs": [
        {
          "internalType": "enum IGovernor.ProposalState",
          "name": "",
          "type": "uint8"
        }
      ],
      "stateMutability": "view",
      "type": "function"
    },
    {
      "inputs": [
        {
          "internalType": "address[]",
          "name": "targets",
          "type": "address[]"
        },
        {
          "internalType": "uint256[]",
          "name": "values",
          "type": "uint256[]"
        },
        {
          "internalType": "bytes[]",
          "name": "calldatas",
          "type": "bytes[]"
        },
        {
          "internalType": "string",
          "name": "description",
          "type": "string"
        }
      ],
      "name": "propose",
      "outputs": [
        {
          "internalType": "uint256",
          "name": "",
          "type": "uint256"
        }
      ],
      "stateMutability": "nonpayable",
      "type": "function"
    },
    {
      "inputs": [
        {
          "internalType": "address[]",
          "name": "targets",
          "type": "address[]"
        },
        {
          "internalType": "uint256[]",
          "name": "values",
          "type": "uint256[]"
        },
        {
          "internalType": "string[]",
          "name": "signatures",
          "type": "string[]"
        },
        {
          "internalType": "bytes[]",
          "name": "calldatas",
          "type": "bytes[]"
        },
        {
          "internalType": "string",
          "name": "description",
          "type": "string"
        }
      ],
      "name": "propose",
      "outputs": [
        {
          "internalType": "uint256",
          "name": "",
          "type": "uint256"
        }
      ],
      "stateMutability": "nonpayable",
      "type": "function"
    },
    {
      "inputs": [
        {
          "internalType": "bytes4",
          "name": "interfaceId",
          "type": "bytes4"
        }
      ],
      "name": "supportsInterface",
      "outputs": [
        {
          "internalType": "bool",
          "name": "",
          "type": "bool"
        }
      ],
      "stateMutability": "view",
      "type": "function"
    }
  ],
  "bytecode": "0x6101406040523480156200001257600080fd5b506040516200460538038062004605833981016040819052620000359162000339565b8060048360405180604001604052806012815260200171135e51dbdd995c9b995c90dbdb9d1c9858dd60721b81525080620000756200014260201b60201c565b815160209283012081519183019190912060c082815260e08290524660a0818152604080517f8b73c3c69bb8fe3d512ecc4cf759cc79239f7b179b0ffacaa9a75d522b39400f8189018190528183019790975260608101959095526080808601939093523085830152805180860390920182529390920190925280519084012090526101005281516200010f916000919084019062000293565b505060601b6001600160601b031916610120526200012d816200015d565b5062000139816200022a565b505050620003cd565b6040805180820190915260018152603160f81b602082015290565b6064811115620001e55760405162461bcd60e51b815260206004820152604360248201527f476f7665726e6f72566f74657351756f72756d4672616374696f6e3a2071756f60448201527f72756d4e756d657261746f72206f7665722071756f72756d44656e6f6d696e616064820152623a37b960e91b608482015260a40160405180910390fd5b600380549082905560408051828152602081018490527f0553476bf02ef2726e8ce5ced78d63e26e602e4a2257b1f559418e24b4633997910160405180910390a15050565b600454604080516001600160a01b03928316815291831660208301527f08f74ea46ef7894f65eabfb5e6e695de773a000b47c529ab559178069b226401910160405180910390a1600480546001600160a01b0319166001600160a01b0392909216919091179055565b828054620002a19062000377565b90600052602060002090601f016020900481019282620002c5576000855562000310565b82601f10620002e057805160ff191683800117855562000310565b8280016001018555821562000310579182015b8281111562000310578251825591602001919060010190620002f3565b506200031e92915062000322565b5090565b5b808211156200031e576000815560010162000323565b600080604083850312156200034c578182fd5b82516200035981620003b4565b60208401519092506200036c81620003b4565b809150509250929050565b6002810460018216806200038c57607f821691505b60208210811415620003ae57634e487b7160e01b600052602260045260246000fd5b50919050565b6001600160a01b0381168114620003ca57600080fd5b50565b60805160a05160c05160e051610100516101205160601c6141d76200042e6000396000818161083e015281816123eb015261249d0152600061267e015260006126cd015260006126a80152600061262a0152600061265301526141d76000f3fe60806040526004361061024f5760003560e01c80637d5e81e211610138578063da95691a116100b0578063e23a9a521161007f578063f8ce560a11610064578063f8ce560a1461080c578063fc0c546a1461082c578063fe0d94c1146108605761024f565b8063e23a9a5214610718578063eb9019d4146107ec5761024f565b8063da95691a1461065e578063dd4e2ba51461067e578063ddf0b009146106c4578063deaaa7cc146106e45761024f565b8063ab58fb8e11610107578063c01f9e37116100ec578063c01f9e37146105ec578063c59057e41461060c578063d33219b41461062c5761024f565b8063ab58fb8e146105b8578063b58131b0146105d85761024f565b80637d5e81e21461054f57806397c3d3341461056f578063a7713a7014610583578063a890c910146105985761024f565b8063328dd982116101cb57806340e58ee51161019a57806354fd4d501161017f57806354fd4d50146104c9578063567813881461050f5780637b3c71d31461052f5761024f565b806340e58ee51461045f578063438596321461047f5761024f565b8063328dd982146103ce5780633932abb1146103fe5780633bccf4fd146104125780633e4f49e6146104325761024f565b806306fdde031161022257806324bc1a641161020757806324bc1a64146103865780632656227d1461039b5780632d63f693146103ae5761024f565b806306fdde0314610344578063160cbed7146103665761024f565b8063013cf08b1461025457806301ffc9a7146102cf57806302a251a3146102ff57806306f3f9e614610322575b600080fd5b34801561026057600080fd5b5061027461026f366004613b60565b610873565b604080519a8b526001600160a01b0390991660208b0152978901969096526060880194909452608087019290925260a086015260c085015260e084015215156101008301521515610120820152610140015b60405180910390f35b3480156102db57600080fd5b506102ef6102ea366004613b1c565b610938565b60405190151581526020016102c6565b34801561030b57600080fd5b5061031461094b565b6040519081526020016102c6565b34801561032e57600080fd5b5061034261033d366004613b60565b610952565b005b34801561035057600080fd5b506103596109cb565b6040516102c69190613eec565b34801561037257600080fd5b506103146103813660046138e4565b610a5d565b34801561039257600080fd5b50610314610d00565b6103146103a93660046138e4565b610d15565b3480156103ba57600080fd5b506103146103c9366004613b60565b610e3e565b3480156103da57600080fd5b506103ee6103e9366004613b60565b610e77565b6040516102c69493929190613e9f565b34801561040a57600080fd5b506001610314565b34801561041e57600080fd5b5061031461042d366004613c54565b611108565b34801561043e57600080fd5b5061045261044d366004613b60565b61119c565b6040516102c69190613eff565b34801561046b57600080fd5b5061034261047a366004613b60565b6111a7565b34801561048b57600080fd5b506102ef61049a366004613b78565b60008281526002602090815260408083206001600160a01b038516845260080190915290205460ff1692915050565b3480156104d557600080fd5b5060408051808201909152600181527f31000000000000000000000000000000000000000000000000000000000000006020820152610359565b34801561051b57600080fd5b5061031461052a366004613ba7565b6114cf565b34801561053b57600080fd5b5061031461054a366004613bd2565b6114f8565b34801561055b57600080fd5b5061031461056a366004613970565b61154a565b34801561057b57600080fd5b506064610314565b34801561058f57600080fd5b50600354610314565b3480156105a457600080fd5b506103426105b3366004613b44565b611561565b3480156105c457600080fd5b506103146105d3366004613b60565b6115d2565b3480156105e457600080fd5b506000610314565b3480156105f857600080fd5b50610314610607366004613b60565b61168f565b34801561061857600080fd5b506103146106273660046138e4565b6116bf565b34801561063857600080fd5b506004546001600160a01b03165b6040516001600160a01b0390911681526020016102c6565b34801561066a57600080fd5b50610314610679366004613a18565b6116f9565b34801561068a57600080fd5b5060408051808201909152601a81527f737570706f72743d627261766f2671756f72756d3d627261766f0000000000006020820152610359565b3480156106d057600080fd5b506103426106df366004613b60565b61171e565b3480156106f057600080fd5b506103147f150214d74d59b7d1e90c73fc22ef3d991dd0a76b046543d4d80ab92d2a50328f81565b34801561072457600080fd5b506107b7610733366004613b78565b60408051606081018252600080825260208201819052918101919091525060009182526002602090815260408084206001600160a01b0393909316845260089092018152918190208151606081018352905460ff8082161515835261010082041693820193909352620100009092046bffffffffffffffffffffffff169082015290565b6040805182511515815260208084015160ff1690820152918101516bffffffffffffffffffffffff16908201526060016102c6565b3480156107f857600080fd5b506103146108073660046138b9565b61198c565b34801561081857600080fd5b50610314610827366004613b60565b611998565b34801561083857600080fd5b506106467f000000000000000000000000000000000000000000000000000000000000000081565b61034261086e366004613b60565b6119a3565b80600080808080808080806108878a6115d2565b97506108928b610e3e565b965061089d8b61168f565b60008c815260026020526040812080546005820154600683015460078401546001600160a01b039093169e50949a5098509296509194506108dd8d61119c565b9050600281600781111561090157634e487b7160e01b600052602160045260246000fd5b149350600781600781111561092657634e487b7160e01b600052602160045260246000fd5b14925050509193959799509193959799565b600061094382611c11565b90505b919050565b61010e5b90565b61095a611c4f565b6001600160a01b0316336001600160a01b0316146109bf5760405162461bcd60e51b815260206004820152601860248201527f476f7665726e6f723a206f6e6c79476f7665726e616e6365000000000000000060448201526064015b60405180910390fd5b6109c881611c63565b50565b6060600080546109da90614110565b80601f0160208091040260200160405190810160405280929190818152602001828054610a0690614110565b8015610a535780601f10610a2857610100808354040283529160200191610a53565b820191906000526020600020905b815481529060010190602001808311610a3657829003601f168201915b5050505050905090565b600080610a6c868686866116bf565b90506004610a798261119c565b6007811115610a9857634e487b7160e01b600052602160045260246000fd5b14610aef5760405162461bcd60e51b815260206004820152602160248201527f476f7665726e6f723a2070726f706f73616c206e6f74207375636365737366756044820152601b60fa1b60648201526084016109b6565b6000600460009054906101000a90046001600160a01b03166001600160a01b031663f27a0c926040518163ffffffff1660e01b815260040160206040518083038186803b158015610b3f57600080fd5b505afa158015610b53573d6000803e3d6000fd5b505050506040513d601f19601f82011682018060405250810190610b779190613b04565b600480546040517fb1c5f4270000000000000000000000000000000000000000000000000000000081529293506001600160a01b03169163b1c5f42791610bc9918b918b918b916000918c9101613df9565b60206040518083038186803b158015610be157600080fd5b505afa158015610bf5573d6000803e3d6000fd5b505050506040513d601f19601f82011682018060405250810190610c199190613b04565b600083815260056020526040808220929092556004805492517f8f2a0bb00000000000000000000000000000000000000000000000000000000081526001600160a01b0390931692638f2a0bb092610c7d928c928c928c9290918c918a9101613e47565b600060405180830381600087803b158015610c9757600080fd5b505af1158015610cab573d6000803e3d6000fd5b505050507f9a2e42fd6722813d69113e7d0079d3d940171428df7373df9c7f7617cfda2892828242610cdd9190614046565b604080519283526020830191909152015b60405180910390a15095945050505050565b6000610d106108276001436140c9565b905090565b600080610d24868686866116bf565b90506000610d318261119c565b90506004816007811115610d5557634e487b7160e01b600052602160045260246000fd5b1480610d8057506005816007811115610d7e57634e487b7160e01b600052602160045260246000fd5b145b610dd65760405162461bcd60e51b815260206004820152602160248201527f476f7665726e6f723a2070726f706f73616c206e6f74207375636365737366756044820152601b60fa1b60648201526084016109b6565b600082815260016020818152604092839020600201805460ff191690921790915590518381527f712ae1383f79ac853f8d882153778e0260ef8f03b504e2866e0593e04d2b291f910160405180910390a1610e348288888888611d45565b5095945050505050565b600081815260016020908152604080832081519283019091525467ffffffffffffffff16908190525b67ffffffffffffffff1692915050565b60608060608060006002600087815260200190815260200160002090508060010181600201826003018360040183805480602002602001604051908101604052809291908181526020018280548015610ef957602002820191906000526020600020905b81546001600160a01b03168152600190910190602001808311610edb575b5050505050935082805480602002602001604051908101604052809291908181526020018280548015610f4b57602002820191906000526020600020905b815481526020019060010190808311610f37575b5050505050925081805480602002602001604051908101604052809291908181526020016000905b8282101561101f578382906000526020600020018054610f9290614110565b80601f0160208091040260200160405190810160405280929190818152602001828054610fbe90614110565b801561100b5780601f10610fe05761010080835404028352916020019161100b565b820191906000526020600020905b815481529060010190602001808311610fee57829003601f168201915b505050505081526020019060010190610f73565b50505050915080805480602002602001604051908101604052809291908181526020016000905b828210156110f257838290600052602060002001805461106590614110565b80601f016020809104026020016040519081016040528092919081815260200182805461109190614110565b80156110de5780601f106110b3576101008083540402835291602001916110de565b820191906000526020600020905b8154815290600101906020018083116110c157829003601f168201915b505050505081526020019060010190611046565b5050505090509450945094509450509193509193565b604080517f150214d74d59b7d1e90c73fc22ef3d991dd0a76b046543d4d80ab92d2a50328f602082015290810186905260ff8516606082015260009081906111749061116c9060800160405160208183030381529060405280519060200120611d59565b868686611dc2565b905061119187828860405180602001604052806000815250611de0565b979650505050505050565b600061094382611f14565b600081815260026020526040902080546001600160a01b0316336001600160a01b031614806111ef5750600081546111ed906001600160a01b03166108076001436140c9565b105b6112615760405162461bcd60e51b815260206004820152602760248201527f476f7665726e6f72427261766f3a2070726f706f7365722061626f766520746860448201527f726573686f6c640000000000000000000000000000000000000000000000000060648201526084016109b6565b6114ca816001018054806020026020016040519081016040528092919081815260200182805480156112bc57602002820191906000526020600020905b81546001600160a01b0316815260019091019060200180831161129e575b50505050508260020180548060200260200160405190810160405280929190818152602001828054801561130f57602002820191906000526020600020905b8154815260200190600101908083116112fb575b50505050506114c084600301805480602002602001604051908101604052809291908181526020016000905b828210156113e757838290600052602060002001805461135a90614110565b80601f016020809104026020016040519081016040528092919081815260200182805461138690614110565b80156113d35780601f106113a8576101008083540402835291602001916113d3565b820191906000526020600020905b8154815290600101906020018083116113b657829003601f168201915b50505050508152602001906001019061133b565b50505060048701805460408051602080840282018101909252828152935060009084015b828210156114b757838290600052602060002001805461142a90614110565b80601f016020809104026020016040519081016040528092919081815260200182805461145690614110565b80156114a35780601f10611478576101008083540402835291602001916114a3565b820191906000526020600020905b81548152906001019060200180831161148657829003601f168201915b50505050508152602001906001019061140b565b5050505061201a565b84600901546121e4565b505050565b6000803390506114f084828560405180602001604052806000815250611de0565b949350505050565b60008033905061154086828787878080601f016020809104026020016040519081016040528093929190818152602001838380828437600092019190915250611de092505050565b9695505050505050565b6000611558858585856121f2565b95945050505050565b611569611c4f565b6001600160a01b0316336001600160a01b0316146115c95760405162461bcd60e51b815260206004820152601860248201527f476f7665726e6f723a206f6e6c79476f7665726e616e6365000000000000000060448201526064016109b6565b6109c881612269565b600480546000838152600560205260408082205490517fd45c4435000000000000000000000000000000000000000000000000000000008152938401529182916001600160a01b03169063d45c44359060240160206040518083038186803b15801561163d57600080fd5b505afa158015611651573d6000803e3d6000fd5b505050506040513d601f19601f820116820180604052508101906116759190613b04565b9050806001146116855780611688565b60005b9392505050565b600081815260016020818152604080842081519283019091529091015467ffffffffffffffff1690819052610e67565b6000848484846040516020016116d89493929190613dae565b60408051601f19818403018152919052805160209091012095945050505050565b60006117093387878787876122df565b6115408686611718878761201a565b8561154a565b60008181526002602090815260409182902060018101805484518185028101850190955280855291936114ca9390929083018282801561178757602002820191906000526020600020905b81546001600160a01b03168152600190910190602001808311611769575b5050505050826002018054806020026020016040519081016040528092919081815260200182805480156117da57602002820191906000526020600020905b8154815260200190600101908083116117c6575b505050505061198284600301805480602002602001604051908101604052809291908181526020016000905b828210156118b257838290600052602060002001805461182590614110565b80601f016020809104026020016040519081016040528092919081815260200182805461185190614110565b801561189e5780601f106118735761010080835404028352916020019161189e565b820191906000526020600020905b81548152906001019060200180831161188157829003601f168201915b505050505081526020019060010190611806565b50505060048701805460408051602080840282018101909252828152935060009084015b828210156114b75783829060005260206000200180546118f590614110565b80601f016020809104026020016040519081016040528092919081815260200182805461192190614110565b801561196e5780601f106119435761010080835404028352916020019161196e565b820191906000526020600020905b81548152906001019060200180831161195157829003601f168201915b5050505050815260200190600101906118d6565b8460090154610a5d565b600061168883836123a9565b600061094382612467565b60008181526002602090815260409182902060018101805484518185028101850190955280855291936114ca93909290830182828015611a0c57602002820191906000526020600020905b81546001600160a01b031681526001909101906020018083116119ee575b505050505082600201805480602002602001604051908101604052809291908181526020018280548015611a5f57602002820191906000526020600020905b815481526020019060010190808311611a4b575b5050505050611c0784600301805480602002602001604051908101604052809291908181526020016000905b82821015611b37578382906000526020600020018054611aaa90614110565b80601f0160208091040260200160405190810160405280929190818152602001828054611ad690614110565b8015611b235780601f10611af857610100808354040283529160200191611b23565b820191906000526020600020905b815481529060010190602001808311611b0657829003601f168201915b505050505081526020019060010190611a8b565b50505060048701805460408051602080840282018101909252828152935060009084015b828210156114b7578382906000526020600020018054611b7a90614110565b80601f0160208091040260200160405190810160405280929190818152602001828054611ba690614110565b8015611bf35780601f10611bc857610100808354040283529160200191611bf3565b820191906000526020600020905b815481529060010190602001808311611bd657829003601f168201915b505050505081526020019060010190611b5b565b8460090154610d15565b60006001600160e01b031982167f6e665ced000000000000000000000000000000000000000000000000000000001480610943575061094382612533565b6000610d106004546001600160a01b031690565b6064811115611d005760405162461bcd60e51b815260206004820152604360248201527f476f7665726e6f72566f74657351756f72756d4672616374696f6e3a2071756f60448201527f72756d4e756d657261746f72206f7665722071756f72756d44656e6f6d696e6160648201527f746f720000000000000000000000000000000000000000000000000000000000608482015260a4016109b6565b600380549082905560408051828152602081018490527f0553476bf02ef2726e8ce5ced78d63e26e602e4a2257b1f559418e24b4633997910160405180910390a15050565b611d52858585858561259a565b5050505050565b6000610943611d66612626565b836040517f19010000000000000000000000000000000000000000000000000000000000006020820152602281018390526042810182905260009060620160405160208183030381529060405280519060200120905092915050565b6000806000611dd38787878761271d565b91509150610e348161280a565b6000848152600160208190526040822090611dfa8761119c565b6007811115611e1957634e487b7160e01b600052602160045260246000fd5b14611e8c5760405162461bcd60e51b815260206004820152602360248201527f476f7665726e6f723a20766f7465206e6f742063757272656e746c792061637460448201527f697665000000000000000000000000000000000000000000000000000000000060648201526084016109b6565b6040805160208101909152815467ffffffffffffffff1690819052600090611eb590879061198c565b9050611ec387878784612a0d565b856001600160a01b03167fb8e138887d0aa13bab447e82de9d5c1777041ecd21ca36ba824ff1e6c07ddda488878488604051611f029493929190613fc9565b60405180910390a29695505050505050565b600080611f2083612bec565b90506004816007811115611f4457634e487b7160e01b600052602160045260246000fd5b14611f50579050610946565b60008381526005602052604090205480611f6c57509050610946565b600480546040517f2ab0f5290000000000000000000000000000000000000000000000000000000081529182018390526001600160a01b031690632ab0f5299060240160206040518083038186803b158015611fc757600080fd5b505afa158015611fdb573d6000803e3d6000fd5b505050506040513d601f19601f82011682018060405250810190611fff9190613ae4565b1561200f57600792505050610946565b600592505050610946565b60606000825167ffffffffffffffff81111561204657634e487b7160e01b600052604160045260246000fd5b60405190808252806020026020018201604052801561207957816020015b60608152602001906001900390816120645790505b50905060005b84518110156121dc578481815181106120a857634e487b7160e01b600052603260045260246000fd5b602002602001015151600014612177578481815181106120d857634e487b7160e01b600052603260045260246000fd5b602002602001015184828151811061210057634e487b7160e01b600052603260045260246000fd5b60200260200101516040516024016121189190613eec565b60408051601f19818403018152908290529161213391613d92565b6040519081900390206020820180517bffffffffffffffffffffffffffffffffffffffffffffffffffffffff166001600160e01b03199092169190911790526121a0565b83818151811061219757634e487b7160e01b600052603260045260246000fd5b60200260200101515b8282815181106121c057634e487b7160e01b600052603260045260246000fd5b6020026020010181905250806121d590614145565b905061207f565b509392505050565b600061155885858585612d5b565b600061225d338686865167ffffffffffffffff81111561222257634e487b7160e01b600052604160045260246000fd5b60405190808252806020026020018201604052801561225557816020015b60608152602001906001900390816122405790505b5087876122df565b61155885858585612e1c565b600454604080516001600160a01b03928316815291831660208301527f08f74ea46ef7894f65eabfb5e6e695de773a000b47c529ab559178069b226401910160405180910390a16004805473ffffffffffffffffffffffffffffffffffffffff19166001600160a01b0392909216919091179055565b8051602082012060006122fd87876122f7888861201a565b856116bf565b600081815260026020526040902060098101549192509061239e57805473ffffffffffffffffffffffffffffffffffffffff19166001600160a01b038a16178155875161235390600183019060208b019061344a565b50865161236990600283019060208a01906134b8565b50855161237f90600383019060208901906134f3565b508451612395906004830190602088019061354c565b50600981018390555b505050505050505050565b6040517f3a46b1a80000000000000000000000000000000000000000000000000000000081526001600160a01b038381166004830152602482018390526000917f000000000000000000000000000000000000000000000000000000000000000090911690633a46b1a89060440160206040518083038186803b15801561242f57600080fd5b505afa158015612443573d6000803e3d6000fd5b505050506040513d601f19601f820116820180604052508101906116889190613b04565b600060646003546040517f8e539e8c000000000000000000000000000000000000000000000000000000008152600481018590527f00000000000000000000000000000000000000000000000000000000000000006001600160a01b031690638e539e8c9060240160206040518083038186803b1580156124e757600080fd5b505afa1580156124fb573d6000803e3d6000fd5b505050506040513d601f19601f8201168201806040525081019061251f9190613b04565b61252991906140aa565b610943919061408a565b60006001600160e01b031982167fbf26d89700000000000000000000000000000000000000000000000000000000148061094357507f01ffc9a7000000000000000000000000000000000000000000000000000000006001600160e01b0319831614610943565b600480546040517fe38335e50000000000000000000000000000000000000000000000000000000081526001600160a01b039091169163e38335e59134916125ed918991899189916000918a9101613df9565b6000604051808303818588803b15801561260657600080fd5b505af115801561261a573d6000803e3d6000fd5b50505050505050505050565b60007f000000000000000000000000000000000000000000000000000000000000000046141561267757507f000000000000000000000000000000000000000000000000000000000000000061094f565b50604080517f00000000000000000000000000000000000000000000000000000000000000006020808301919091527f0000000000000000000000000000000000000000000000000000000000000000828401527f000000000000000000000000000000000000000000000000000000000000000060608301524660808301523060a0808401919091528351808403909101815260c0909201909252805191012061094f565b6000807f7fffffffffffffffffffffffffffffff5d576e7357a4501ddfe92f46681b20a08311156127545750600090506003612801565b8460ff16601b1415801561276c57508460ff16601c14155b1561277d5750600090506004612801565b6040805160008082526020820180845289905260ff881692820192909252606081018690526080810185905260019060a0016020604051602081039080840390855afa1580156127d1573d6000803e3d6000fd5b5050604051601f1901519150506001600160a01b0381166127fa57600060019250925050612801565b9150600090505b94509492505050565b600081600481111561282c57634e487b7160e01b600052602160045260246000fd5b1415612837576109c8565b600181600481111561285957634e487b7160e01b600052602160045260246000fd5b14156128a75760405162461bcd60e51b815260206004820152601860248201527f45434453413a20696e76616c6964207369676e6174757265000000000000000060448201526064016109b6565b60028160048111156128c957634e487b7160e01b600052602160045260246000fd5b14156129175760405162461bcd60e51b815260206004820152601f60248201527f45434453413a20696e76616c6964207369676e6174757265206c656e6774680060448201526064016109b6565b600381600481111561293957634e487b7160e01b600052602160045260246000fd5b14156129925760405162461bcd60e51b815260206004820152602260248201527f45434453413a20696e76616c6964207369676e6174757265202773272076616c604482015261756560f01b60648201526084016109b6565b60048160048111156129b457634e487b7160e01b600052602160045260246000fd5b14156109c85760405162461bcd60e51b815260206004820152602260248201527f45434453413a20696e76616c6964207369676e6174757265202776272076616c604482015261756560f01b60648201526084016109b6565b60008481526002602090815260408083206001600160a01b038716845260088101909252909120805460ff1615612aac5760405162461bcd60e51b815260206004820152602d60248201527f476f7665726e6f72436f6d7061746962696c697479427261766f3a20766f746560448201527f20616c726561647920636173740000000000000000000000000000000000000060648201526084016109b6565b8054600160ff199091161761ff00191661010060ff861602178155612ad083612ed4565b81546bffffffffffffffffffffffff9190911662010000027fffffffffffffffffffffffffffffffffffff000000000000000000000000ffff90911617815560ff8416612b365782826006016000828254612b2b9190614046565b90915550612be49050565b60ff841660011415612b565782826005016000828254612b2b9190614046565b60ff841660021415612b765782826007016000828254612b2b9190614046565b60405162461bcd60e51b815260206004820152602d60248201527f476f7665726e6f72436f6d7061746962696c697479427261766f3a20696e766160448201527f6c696420766f746520747970650000000000000000000000000000000000000060648201526084016109b6565b505050505050565b6000818152600160208181526040808420815160a081018352815467ffffffffffffffff90811660808301908152825283518086018552958301541685529283019390935260029092015460ff80821615801594840194909452610100909104161515606082015290612c63576007915050610946565b806060015115612c77576002915050610946565b8051514367ffffffffffffffff9091161115612c97576000915050610946565b6020810151514367ffffffffffffffff9091161115612cba576001915050610946565b612cc78160200151612f5c565b15612d0d57612cd583612f8d565b8015612cf7575060008381526002602052604090206006810154600590910154115b612d02576003612d05565b60045b915050610946565b60405162461bcd60e51b815260206004820152601d60248201527f476f7665726e6f723a20756e6b6e6f776e2070726f706f73616c20696400000060448201526064016109b6565b50919050565b600080612d6a86868686612fb4565b600081815260056020526040902054909150156115585760048054600083815260056020526040908190205490517fc4d252f5000000000000000000000000000000000000000000000000000000008152928301526001600160a01b03169063c4d252f590602401600060405180830381600087803b158015612dec57600080fd5b505af1158015612e00573d6000803e3d6000fd5b5050506000828152600560205260408120555095945050505050565b600080612e2e336108076001436140c9565b1015612ec85760405162461bcd60e51b815260206004820152604360248201527f476f7665726e6f72436f6d7061746962696c697479427261766f3a2070726f7060448201527f6f73657220766f7465732062656c6f772070726f706f73616c2074687265736860648201527f6f6c640000000000000000000000000000000000000000000000000000000000608482015260a4016109b6565b611558858585856130ea565b60006bffffffffffffffffffffffff821115612f585760405162461bcd60e51b815260206004820152602660248201527f53616665436173743a2076616c756520646f65736e27742066697420696e203960448201527f362062697473000000000000000000000000000000000000000000000000000060648201526084016109b6565b5090565b6000612f72825167ffffffffffffffff16151590565b8015610943575050514367ffffffffffffffff909116111590565b60008181526002602052604081206005810154612fac61082785610e3e565b109392505050565b600080612fc3868686866116bf565b90506000612fd08261119c565b90506002816007811115612ff457634e487b7160e01b600052602160045260246000fd5b141580156130225750600681600781111561301f57634e487b7160e01b600052602160045260246000fd5b14155b801561304e5750600781600781111561304b57634e487b7160e01b600052602160045260246000fd5b14155b61309a5760405162461bcd60e51b815260206004820152601d60248201527f476f7665726e6f723a2070726f706f73616c206e6f742061637469766500000060448201526064016109b6565b60008281526001602052604090819020600201805461ff001916610100179055517f789cf55be980739dad1d0699b93b58e806b51c9d96619bfa8fe0a28abaa7b30c90610cee9084815260200190565b60008061310086868686805190602001206116bf565b9050845186511461315d5760405162461bcd60e51b815260206004820152602160248201527f476f7665726e6f723a20696e76616c69642070726f706f73616c206c656e67746044820152600d60fb1b60648201526084016109b6565b83518651146131b85760405162461bcd60e51b815260206004820152602160248201527f476f7665726e6f723a20696e76616c69642070726f706f73616c206c656e67746044820152600d60fb1b60648201526084016109b6565b60008651116132095760405162461bcd60e51b815260206004820152601860248201527f476f7665726e6f723a20656d7074792070726f706f73616c000000000000000060448201526064016109b6565b6000818152600160209081526040918290208251918201909252815467ffffffffffffffff1690819052156132a65760405162461bcd60e51b815260206004820152602160248201527f476f7665726e6f723a2070726f706f73616c20616c726561647920657869737460448201527f730000000000000000000000000000000000000000000000000000000000000060648201526084016109b6565b60006132b360015b6133ca565b6132bc436133ca565b6132c6919061405e565b905060006132d56132ae61094b565b6132df908361405e565b835467ffffffffffffffff191667ffffffffffffffff8416178455905060018301805467ffffffffffffffff191667ffffffffffffffff83161790557f7d84a6263ae0d98d3329bd7b46bb4e8d6f98cd35a7adb45c274c8b7fd5ebd5e084338b8b8d5167ffffffffffffffff81111561336857634e487b7160e01b600052604160045260246000fd5b60405190808252806020026020018201604052801561339b57816020015b60608152602001906001900390816133865790505b508c88888e6040516133b599989796959493929190613f27565b60405180910390a15091979650505050505050565b600067ffffffffffffffff821115612f585760405162461bcd60e51b815260206004820152602660248201527f53616665436173743a2076616c756520646f65736e27742066697420696e203660448201527f342062697473000000000000000000000000000000000000000000000000000060648201526084016109b6565b8280548282559060005260206000209081019282156134ac579160200282015b828111156134ac578251825473ffffffffffffffffffffffffffffffffffffffff19166001600160a01b0390911617825560209092019160019091019061346a565b50612f589291506135a5565b8280548282559060005260206000209081019282156134ac579160200282015b828111156134ac5782518255916020019190600101906134d8565b828054828255906000526020600020908101928215613540579160200282015b8281111561354057825180516135309184916020909101906135ba565b5091602001919060010190613513565b50612f5892915061362d565b828054828255906000526020600020908101928215613599579160200282015b8281111561359957825180516135899184916020909101906135ba565b509160200191906001019061356c565b50612f5892915061364a565b5b80821115612f5857600081556001016135a6565b8280546135c690614110565b90600052602060002090601f0160209004810192826135e857600085556134ac565b82601f1061360157805160ff19168380011785556134ac565b828001600101855582156134ac57918201828111156134ac5782518255916020019190600101906134d8565b80821115612f585760006136418282613667565b5060010161362d565b80821115612f5857600061365e8282613667565b5060010161364a565b50805461367390614110565b6000825580601f1061368557506109c8565b601f0160209004906000526020600020908101906109c891906135a5565b600067ffffffffffffffff8311156136bd576136bd614176565b6136d0601f8401601f1916602001613ff1565b90508281528383830111156136e457600080fd5b828260208301376000602084830101529392505050565b600082601f83011261370b578081fd5b8135602061372061371b83614022565b613ff1565b828152818101908583018385028701840188101561373c578586fd5b855b858110156137635781356137518161418c565b8452928401929084019060010161373e565b5090979650505050505050565b600082601f830112613780578081fd5b8135602061379061371b83614022565b82815281810190858301855b85811015613763578135880189603f8201126137b6578788fd5b6137c78a87830135604084016136a3565b855250928401929084019060010161379c565b600082601f8301126137ea578081fd5b813560206137fa61371b83614022565b82815281810190858301855b858110156137635761381d898684358b0101613889565b84529284019290840190600101613806565b600082601f83011261383f578081fd5b8135602061384f61371b83614022565b828152818101908583018385028701840188101561386b578586fd5b855b858110156137635781358452928401929084019060010161386d565b600082601f830112613899578081fd5b611688838335602085016136a3565b803560ff8116811461094657600080fd5b600080604083850312156138cb578182fd5b82356138d68161418c565b946020939093013593505050565b600080600080608085870312156138f9578182fd5b843567ffffffffffffffff80821115613910578384fd5b61391c888389016136fb565b95506020870135915080821115613931578384fd5b61393d8883890161382f565b94506040870135915080821115613952578384fd5b5061395f87828801613770565b949793965093946060013593505050565b60008060008060808587031215613985578182fd5b843567ffffffffffffffff8082111561399c578384fd5b6139a8888389016136fb565b955060208701359150808211156139bd578384fd5b6139c98883890161382f565b945060408701359150808211156139de578384fd5b6139ea88838901613770565b935060608701359150808211156139ff578283fd5b50613a0c87828801613889565b91505092959194509250565b600080600080600060a08688031215613a2f578283fd5b853567ffffffffffffffff80821115613a46578485fd5b613a5289838a016136fb565b96506020880135915080821115613a67578485fd5b613a7389838a0161382f565b95506040880135915080821115613a88578485fd5b613a9489838a016137da565b94506060880135915080821115613aa9578283fd5b613ab589838a01613770565b93506080880135915080821115613aca578283fd5b50613ad788828901613889565b9150509295509295909350565b600060208284031215613af5578081fd5b81518015158114611688578182fd5b600060208284031215613b15578081fd5b5051919050565b600060208284031215613b2d578081fd5b81356001600160e01b031981168114611688578182fd5b600060208284031215613b55578081fd5b81356116888161418c565b600060208284031215613b71578081fd5b5035919050565b60008060408385031215613b8a578182fd5b823591506020830135613b9c8161418c565b809150509250929050565b60008060408385031215613bb9578182fd5b82359150613bc9602084016138a8565b90509250929050565b60008060008060608587031215613be7578182fd5b84359350613bf7602086016138a8565b9250604085013567ffffffffffffffff80821115613c13578384fd5b818701915087601f830112613c26578384fd5b813581811115613c34578485fd5b886020828501011115613c45578485fd5b95989497505060200194505050565b600080600080600060a08688031215613c6b578283fd5b85359450613c7b602087016138a8565b9350613c89604087016138a8565b94979396509394606081013594506080013592915050565b6000815180845260208085019450808401835b83811015613cd95781516001600160a01b031687529582019590820190600101613cb4565b509495945050505050565b6000815180845260208085018081965082840281019150828601855b85811015613d2a578284038952613d18848351613d66565b98850198935090840190600101613d00565b5091979650505050505050565b6000815180845260208085019450808401835b83811015613cd957815187529582019590820190600101613d4a565b60008151808452613d7e8160208601602086016140e0565b601f01601f19169290920160200192915050565b60008251613da48184602087016140e0565b9190910192915050565b600060808252613dc16080830187613ca1565b8281036020840152613dd38187613d37565b90508281036040840152613de78186613ce4565b91505082606083015295945050505050565b600060a08252613e0c60a0830188613ca1565b8281036020840152613e1e8188613d37565b90508281036040840152613e328187613ce4565b60608401959095525050608001529392505050565b600060c08252613e5a60c0830189613ca1565b8281036020840152613e6c8189613d37565b90508281036040840152613e808188613ce4565b60608401969096525050608081019290925260a0909101529392505050565b600060808252613eb26080830187613ca1565b8281036020840152613ec48187613d37565b90508281036040840152613ed88186613ce4565b905082810360608401526111918185613ce4565b6000602082526116886020830184613d66565b6020810160088310613f2157634e487b7160e01b600052602160045260246000fd5b91905290565b60006101208b83526001600160a01b038b166020840152806040840152613f508184018b613ca1565b90508281036060840152613f64818a613d37565b90508281036080840152613f788189613ce4565b905082810360a0840152613f8c8188613ce4565b67ffffffffffffffff87811660c0860152861660e08501528381036101008501529050613fb98185613d66565b9c9b505050505050505050505050565b600085825260ff85166020830152836040830152608060608301526115406080830184613d66565b604051601f8201601f1916810167ffffffffffffffff8111828210171561401a5761401a614176565b604052919050565b600067ffffffffffffffff82111561403c5761403c614176565b5060209081020190565b6000821982111561405957614059614160565b500190565b600067ffffffffffffffff80831681851680830382111561408157614081614160565b01949350505050565b6000826140a557634e487b7160e01b81526012600452602481fd5b500490565b60008160001904831182151516156140c4576140c4614160565b500290565b6000828210156140db576140db614160565b500390565b60005b838110156140fb5781810151838201526020016140e3565b8381111561410a576000848401525b50505050565b60028104600182168061412457607f821691505b60208210811415612d5557634e487b7160e01b600052602260045260246000fd5b600060001982141561415957614159614160565b5060010190565b634e487b7160e01b600052601160045260246000fd5b634e487b7160e01b600052604160045260246000fd5b6001600160a01b03811681146109c857600080fdfea264697066735822122086c05082d696f0ef2878d578b060cb7574a8e8409317b57a9fa81b243d5ccbe864736f6c63430008020033",
  "immutableReferences": {
    "4548": [
      {
        "length": 32,
        "start": 2110
      },
      {
        "length": 32,
        "start": 9195
      },
      {
        "length": 32,
        "start": 9373
      }
    ],
    "8508": [
      {
        "length": 32,
        "start": 9811
      }
    ],
    "8510": [
      {
        "length": 32,
        "start": 9770
      }
    ],
    "8512": [
      {
        "length": 32,
        "start": 9896
      }
    ],
    "8514": [
      {
        "length": 32,
        "start": 9933
      }
    ],
    "8516": [
      {
        "length": 32,
        "start": 9854
      }
    ]
  },
  "source": "// SPDX-License-Identifier: MIT\r\npragma solidity ^0.8.2;\r\n\r\nimport '@openzeppelin/contracts/governance/Governor.sol';\r\nimport '@openzeppelin/contracts/governance/compatibility/GovernorCompatibilityBravo.sol';\r\nimport '@openzeppelin/contracts/governance/extensions/GovernorVotes.sol';\r\nimport '@openzeppelin/contracts/governance/extensions/GovernorVotesQuorumFraction.sol';\r\nimport '@openzeppelin/contracts/governance/extensions/GovernorTimelockControl.sol';\r\n\r\ncontract MyGovernerContract is\r\n    Governor,\r\n    GovernorCompatibilityBravo,\r\n    GovernorVotes,\r\n    GovernorVotesQuorumFraction,\r\n    GovernorTimelockControl\r\n{\r\n    constructor(ERC20Votes _token, TimelockController _timelock)\r\n        Governor('MyGovernerContract')\r\n        GovernorVotes(_token)\r\n        GovernorVotesQuorumFraction(4)\r\n        GovernorTimelockControl(_timelock)\r\n    {}\r\n\r\n    function votingDelay() public pure override returns (uint256) {\r\n        return 1; //6575; // 1 day\r\n    }\r\n\r\n    function votingPeriod() public pure override returns (uint256) {\r\n        return 270; //46027; // 1 week\r\n    }\r\n\r\n    function proposalThreshold() public pure override returns (uint256) {\r\n        return 0;\r\n    }\r\n\r\n    function quorum(uint256 blockNumber)\r\n        public\r\n        view\r\n        override(IGovernor, GovernorVotesQuorumFraction)\r\n        returns (uint256)\r\n    {\r\n        return super.quorum(blockNumber);\r\n    }\r\n\r\n    function getVotes(address account, uint256 blockNumber)\r\n        public\r\n        view\r\n        override(IGovernor, GovernorVotes)\r\n        returns (uint256)\r\n    {\r\n        return super.getVotes(account, blockNumber);\r\n    }\r\n\r\n    function state(uint256 proposalId)\r\n        public\r\n        view\r\n        override(Governor, IGovernor, GovernorTimelockControl)\r\n        returns (ProposalState)\r\n    {\r\n        return super.state(proposalId);\r\n    }\r\n\r\n    function propose(\r\n        address[] memory targets,\r\n        uint256[] memory values,\r\n        bytes[] memory calldatas,\r\n        string memory description\r\n    ) public override(Governor, GovernorCompatibilityBravo, IGovernor) returns (uint256) {\r\n        return super.propose(targets, values, calldatas, description);\r\n    }\r\n\r\n    function _execute(\r\n        uint256 proposalId,\r\n        address[] memory targets,\r\n        uint256[] memory values,\r\n        bytes[] memory calldatas,\r\n        bytes32 descriptionHash\r\n    ) internal override(Governor, GovernorTimelockControl) {\r\n        super._execute(proposalId, targets, values, calldatas, descriptionHash);\r\n    }\r\n\r\n    function _cancel(\r\n        address[] memory targets,\r\n        uint256[] memory values,\r\n        bytes[] memory calldatas,\r\n        bytes32 descriptionHash\r\n    ) internal override(Governor, GovernorTimelockControl) returns (uint256) {\r\n        return super._cancel(targets, values, calldatas, descriptionHash);\r\n    }\r\n\r\n    function _executor() internal view override(Governor, GovernorTimelockControl) returns (address) {\r\n        return super._executor();\r\n    }\r\n\r\n    function supportsInterface(bytes4 interfaceId)\r\n        public\r\n        view\r\n        override(Governor, IERC165, GovernorTimelockControl)\r\n        returns (bool)\r\n    {\r\n        return super.supportsInterface(interfaceId);\r\n    }\r\n}\r\n",
  "sourcePath": "C:\\Users\\Owner\\Dropbox\\general\\dev\\web\\projects\\100 - blockchain\\Second blockchain project\\s06-tokenisation\\contracts\\MyGovernerContract.sol",
  "compiler": {
    "name": "solc",
    "version": "0.8.2+commit.661d1103.Emscripten.clang"
  },
  "schemaVersion": "3.4.2",
  "updatedAt": "2021-10-12T14:09:43.932Z",
  "devdoc": {
    "kind": "dev",
    "methods": {
      "COUNTING_MODE()": {
        "details": "A description of the possible `support` values for {castVote} and the way these votes are counted, meant to be consumed by UIs to show correct vote options and interpret the results. The string is a URL-encoded sequence of key-value pairs that each describe one aspect, for example `support=bravo&quorum=for,abstain`. There are 2 standard keys: `support` and `quorum`. - `support=bravo` refers to the vote options 0 = For, 1 = Against, 2 = Abstain, as in `GovernorBravo`. - `quorum=bravo` means that only For votes are counted towards quorum. - `quorum=for,abstain` means that both For and Abstain votes are counted towards quorum. NOTE: The string can be decoded by the standard https://developer.mozilla.org/en-US/docs/Web/API/URLSearchParams[`URLSearchParams`] JavaScript class."
      },
      "cancel(uint256)": {
        "details": "Cancels a proposal only if sender is the proposer, or proposer delegates dropped below proposal threshold."
      },
      "castVote(uint256,uint8)": {
        "details": "See {IGovernor-castVote}."
      },
      "castVoteBySig(uint256,uint8,uint8,bytes32,bytes32)": {
        "details": "See {IGovernor-castVoteBySig}."
      },
      "castVoteWithReason(uint256,uint8,string)": {
        "details": "See {IGovernor-castVoteWithReason}."
      },
      "execute(address[],uint256[],bytes[],bytes32)": {
        "details": "See {IGovernor-execute}."
      },
      "execute(uint256)": {
        "details": "See {IGovernorCompatibilityBravo-execute}."
      },
      "getActions(uint256)": {
        "details": "See {IGovernorCompatibilityBravo-getActions}."
      },
      "getReceipt(uint256,address)": {
        "details": "See {IGovernorCompatibilityBravo-getReceipt}."
      },
      "hasVoted(uint256,address)": {
        "details": "See {IGovernor-hasVoted}."
      },
      "hashProposal(address[],uint256[],bytes[],bytes32)": {
        "details": "See {IGovernor-hashProposal}. The proposal id is produced by hashing the RLC encoded `targets` array, the `values` array, the `calldatas` array and the descriptionHash (bytes32 which itself is the keccak256 hash of the description string). This proposal id can be produced from the proposal data which is part of the {ProposalCreated} event. It can even be computed in advance, before the proposal is submitted. Note that the chainId and the governor address are not part of the proposal id computation. Consequently, the same proposal (with same operation and same description) will have the same id if submitted on multiple governors accross multiple networks. This also means that in order to execute the same operation twice (on the same governor) the proposer will have to change the description in order to avoid proposal id conflicts."
      },
      "name()": {
        "details": "See {IGovernor-name}."
      },
      "proposalDeadline(uint256)": {
        "details": "See {IGovernor-proposalDeadline}."
      },
      "proposalEta(uint256)": {
        "details": "Public accessor to check the eta of a queued proposal"
      },
      "proposalSnapshot(uint256)": {
        "details": "See {IGovernor-proposalSnapshot}."
      },
      "proposalThreshold()": {
        "details": "Part of the Governor Bravo's interface: _\"The number of votes required in order for a voter to become a proposer\"_."
      },
      "proposals(uint256)": {
        "details": "See {IGovernorCompatibilityBravo-proposals}."
      },
      "propose(address[],uint256[],string[],bytes[],string)": {
        "details": "See {IGovernorCompatibilityBravo-propose}."
      },
      "queue(address[],uint256[],bytes[],bytes32)": {
        "details": "Function to queue a proposal to the timelock."
      },
      "queue(uint256)": {
        "details": "See {IGovernorCompatibilityBravo-queue}."
      },
      "quorumVotes()": {
        "details": "See {IGovernorCompatibilityBravo-quorumVotes}."
      },
      "timelock()": {
        "details": "Public accessor to check the address of the timelock"
      },
      "updateTimelock(address)": {
        "details": "Public endpoint to update the underlying timelock instance. Restricted to the timelock itself, so updates must be proposed, scheduled and executed using the {Governor} workflow."
      },
      "version()": {
        "details": "See {IGovernor-version}."
      },
      "votingDelay()": {
        "details": "delay, in number of block, between the proposal is created and the vote starts. This can be increassed to leave time for users to buy voting power, of delegate it, before the voting of a proposal starts."
      },
      "votingPeriod()": {
        "details": "delay, in number of blocks, between the vote start and vote ends. Note: the {votingDelay} can delay the start of the vote. This must be considered when setting the voting duration compared to the voting delay."
      }
    },
    "version": 1
  },
  "userdoc": {
    "kind": "user",
    "methods": {
      "COUNTING_MODE()": {
        "notice": "module:voting"
      },
      "votingDelay()": {
        "notice": "module:user-config"
      },
      "votingPeriod()": {
        "notice": "module:user-config"
      }
    },
    "version": 1
  }
}