{
  "contractName": "MyNFT",
  "abi": [
    {
      "inputs": [],
      "stateMutability": "nonpayable",
      "type": "constructor"
    },
    {
      "anonymous": false,
      "inputs": [
        {
          "indexed": true,
          "internalType": "address",
          "name": "owner",
          "type": "address"
        },
        {
          "indexed": true,
          "internalType": "address",
          "name": "approved",
          "type": "address"
        },
        {
          "indexed": true,
          "internalType": "uint256",
          "name": "tokenId",
          "type": "uint256"
        }
      ],
      "name": "Approval",
      "type": "event"
    },
    {
      "anonymous": false,
      "inputs": [
        {
          "indexed": true,
          "internalType": "address",
          "name": "owner",
          "type": "address"
        },
        {
          "indexed": true,
          "internalType": "address",
          "name": "operator",
          "type": "address"
        },
        {
          "indexed": false,
          "internalType": "bool",
          "name": "approved",
          "type": "bool"
        }
      ],
      "name": "ApprovalForAll",
      "type": "event"
    },
    {
      "anonymous": false,
      "inputs": [
        {
          "indexed": true,
          "internalType": "address",
          "name": "from",
          "type": "address"
        },
        {
          "indexed": true,
          "internalType": "address",
          "name": "to",
          "type": "address"
        },
        {
          "indexed": true,
          "internalType": "uint256",
          "name": "tokenId",
          "type": "uint256"
        }
      ],
      "name": "Transfer",
      "type": "event"
    },
    {
      "inputs": [
        {
          "internalType": "address",
          "name": "to",
          "type": "address"
        },
        {
          "internalType": "uint256",
          "name": "tokenId",
          "type": "uint256"
        }
      ],
      "name": "approve",
      "outputs": [],
      "stateMutability": "nonpayable",
      "type": "function"
    },
    {
      "inputs": [
        {
          "internalType": "address",
          "name": "owner",
          "type": "address"
        }
      ],
      "name": "balanceOf",
      "outputs": [
        {
          "internalType": "uint256",
          "name": "",
          "type": "uint256"
        }
      ],
      "stateMutability": "view",
      "type": "function"
    },
    {
      "inputs": [
        {
          "internalType": "uint256",
          "name": "tokenId",
          "type": "uint256"
        }
      ],
      "name": "getApproved",
      "outputs": [
        {
          "internalType": "address",
          "name": "",
          "type": "address"
        }
      ],
      "stateMutability": "view",
      "type": "function"
    },
    {
      "inputs": [
        {
          "internalType": "address",
          "name": "owner",
          "type": "address"
        },
        {
          "internalType": "address",
          "name": "operator",
          "type": "address"
        }
      ],
      "name": "isApprovedForAll",
      "outputs": [
        {
          "internalType": "bool",
          "name": "",
          "type": "bool"
        }
      ],
      "stateMutability": "view",
      "type": "function"
    },
    {
      "inputs": [],
      "name": "name",
      "outputs": [
        {
          "internalType": "string",
          "name": "",
          "type": "string"
        }
      ],
      "stateMutability": "view",
      "type": "function"
    },
    {
      "inputs": [
        {
          "internalType": "uint256",
          "name": "tokenId",
          "type": "uint256"
        }
      ],
      "name": "ownerOf",
      "outputs": [
        {
          "internalType": "address",
          "name": "",
          "type": "address"
        }
      ],
      "stateMutability": "view",
      "type": "function"
    },
    {
      "inputs": [
        {
          "internalType": "address",
          "name": "from",
          "type": "address"
        },
        {
          "internalType": "address",
          "name": "to",
          "type": "address"
        },
        {
          "internalType": "uint256",
          "name": "tokenId",
          "type": "uint256"
        }
      ],
      "name": "safeTransferFrom",
      "outputs": [],
      "stateMutability": "nonpayable",
      "type": "function"
    },
    {
      "inputs": [
        {
          "internalType": "address",
          "name": "from",
          "type": "address"
        },
        {
          "internalType": "address",
          "name": "to",
          "type": "address"
        },
        {
          "internalType": "uint256",
          "name": "tokenId",
          "type": "uint256"
        },
        {
          "internalType": "bytes",
          "name": "_data",
          "type": "bytes"
        }
      ],
      "name": "safeTransferFrom",
      "outputs": [],
      "stateMutability": "nonpayable",
      "type": "function"
    },
    {
      "inputs": [
        {
          "internalType": "address",
          "name": "operator",
          "type": "address"
        },
        {
          "internalType": "bool",
          "name": "approved",
          "type": "bool"
        }
      ],
      "name": "setApprovalForAll",
      "outputs": [],
      "stateMutability": "nonpayable",
      "type": "function"
    },
    {
      "inputs": [
        {
          "internalType": "bytes4",
          "name": "interfaceId",
          "type": "bytes4"
        }
      ],
      "name": "supportsInterface",
      "outputs": [
        {
          "internalType": "bool",
          "name": "",
          "type": "bool"
        }
      ],
      "stateMutability": "view",
      "type": "function"
    },
    {
      "inputs": [],
      "name": "symbol",
      "outputs": [
        {
          "internalType": "string",
          "name": "",
          "type": "string"
        }
      ],
      "stateMutability": "view",
      "type": "function"
    },
    {
      "inputs": [
        {
          "internalType": "uint256",
          "name": "tokenId",
          "type": "uint256"
        }
      ],
      "name": "tokenURI",
      "outputs": [
        {
          "internalType": "string",
          "name": "",
          "type": "string"
        }
      ],
      "stateMutability": "view",
      "type": "function"
    },
    {
      "inputs": [
        {
          "internalType": "address",
          "name": "from",
          "type": "address"
        },
        {
          "internalType": "address",
          "name": "to",
          "type": "address"
        },
        {
          "internalType": "uint256",
          "name": "tokenId",
          "type": "uint256"
        }
      ],
      "name": "transferFrom",
      "outputs": [],
      "stateMutability": "nonpayable",
      "type": "function"
    },
    {
      "inputs": [
        {
          "internalType": "address",
          "name": "fan",
          "type": "address"
        },
        {
          "internalType": "string",
          "name": "tokenURI",
          "type": "string"
        }
      ],
      "name": "awardItem",
      "outputs": [
        {
          "internalType": "uint256",
          "name": "",
          "type": "uint256"
        }
      ],
      "stateMutability": "nonpayable",
      "type": "function"
    }
  ],
  "bytecode": "0x60806040523480156200001157600080fd5b50604080518082018252601581527f5269636b416e644d6f7274794368617261637465720000000000000000000000602080830191825283518085019094526003845262524d4360e81b908401528151919291620000729160009162000091565b5080516200008890600190602084019062000091565b50505062000174565b8280546200009f9062000137565b90600052602060002090601f016020900481019282620000c357600085556200010e565b82601f10620000de57805160ff19168380011785556200010e565b828001600101855582156200010e579182015b828111156200010e578251825591602001919060010190620000f1565b506200011c92915062000120565b5090565b5b808211156200011c576000815560010162000121565b6002810460018216806200014c57607f821691505b602082108114156200016e57634e487b7160e01b600052602260045260246000fd5b50919050565b61193380620001846000396000f3fe608060405234801561001057600080fd5b50600436106100ea5760003560e01c806370a082311161008c578063b88d4fde11610066578063b88d4fde146101e1578063c87b56dd146101f4578063cf37834314610207578063e985e9c51461021a576100ea565b806370a08231146101a557806395d89b41146101c6578063a22cb465146101ce576100ea565b8063095ea7b3116100c8578063095ea7b31461015757806323b872dd1461016c57806342842e0e1461017f5780636352211e14610192576100ea565b806301ffc9a7146100ef57806306fdde0314610117578063081812fc1461012c575b600080fd5b6101026100fd3660046116cf565b610256565b60405190151581526020015b60405180910390f35b61011f6102f5565b60405161010e91906117b6565b61013f61013a366004611707565b610387565b6040516001600160a01b03909116815260200161010e565b61016a6101653660046116a6565b610432565b005b61016a61017a366004611559565b610564565b61016a61018d366004611559565b6105eb565b61013f6101a0366004611707565b610606565b6101b86101b336600461150d565b610691565b60405190815260200161010e565b61011f61072b565b61016a6101dc36600461160d565b61073a565b61016a6101ef366004611594565b61080c565b61011f610202366004611707565b61089a565b6101b8610215366004611647565b610a2e565b610102610228366004611527565b6001600160a01b03918216600090815260056020908152604080832093909416825291909152205460ff1690565b60006001600160e01b031982167f80ac58cd0000000000000000000000000000000000000000000000000000000014806102b957506001600160e01b031982167f5b5e139f00000000000000000000000000000000000000000000000000000000145b806102ed57507f01ffc9a7000000000000000000000000000000000000000000000000000000006001600160e01b03198316145b90505b919050565b60606000805461030490611838565b80601f016020809104026020016040519081016040528092919081815260200182805461033090611838565b801561037d5780601f106103525761010080835404028352916020019161037d565b820191906000526020600020905b81548152906001019060200180831161036057829003601f168201915b5050505050905090565b6000818152600260205260408120546001600160a01b03166104165760405162461bcd60e51b815260206004820152602c60248201527f4552433732313a20617070726f76656420717565727920666f72206e6f6e657860448201527f697374656e7420746f6b656e000000000000000000000000000000000000000060648201526084015b60405180910390fd5b506000908152600460205260409020546001600160a01b031690565b600061043d82610606565b9050806001600160a01b0316836001600160a01b031614156104c75760405162461bcd60e51b815260206004820152602160248201527f4552433732313a20617070726f76616c20746f2063757272656e74206f776e6560448201527f7200000000000000000000000000000000000000000000000000000000000000606482015260840161040d565b336001600160a01b03821614806104e357506104e38133610228565b6105555760405162461bcd60e51b815260206004820152603860248201527f4552433732313a20617070726f76652063616c6c6572206973206e6f74206f7760448201527f6e6572206e6f7220617070726f76656420666f7220616c6c0000000000000000606482015260840161040d565b61055f8383610a66565b505050565b61056e3382610ae1565b6105e05760405162461bcd60e51b815260206004820152603160248201527f4552433732313a207472616e736665722063616c6c6572206973206e6f74206f60448201527f776e6572206e6f7220617070726f766564000000000000000000000000000000606482015260840161040d565b61055f838383610be5565b61055f8383836040518060200160405280600081525061080c565b6000818152600260205260408120546001600160a01b0316806102ed5760405162461bcd60e51b815260206004820152602960248201527f4552433732313a206f776e657220717565727920666f72206e6f6e657869737460448201527f656e7420746f6b656e0000000000000000000000000000000000000000000000606482015260840161040d565b60006001600160a01b03821661070f5760405162461bcd60e51b815260206004820152602a60248201527f4552433732313a2062616c616e636520717565727920666f7220746865207a6560448201527f726f206164647265737300000000000000000000000000000000000000000000606482015260840161040d565b506001600160a01b031660009081526003602052604090205490565b60606001805461030490611838565b6001600160a01b0382163314156107935760405162461bcd60e51b815260206004820152601960248201527f4552433732313a20617070726f766520746f2063616c6c657200000000000000604482015260640161040d565b3360008181526005602090815260408083206001600160a01b0387168085529252909120805460ff1916841515179055906001600160a01b03167f17307eab39ab6107e8899845ad3d59bd9653f200f220920489ca2b5937696c3183604051610800911515815260200190565b60405180910390a35050565b6108163383610ae1565b6108885760405162461bcd60e51b815260206004820152603160248201527f4552433732313a207472616e736665722063616c6c6572206973206e6f74206f60448201527f776e6572206e6f7220617070726f766564000000000000000000000000000000606482015260840161040d565b61089484848484610dbf565b50505050565b6000818152600260205260409020546060906001600160a01b03166109275760405162461bcd60e51b815260206004820152603160248201527f45524337323155524953746f726167653a2055524920717565727920666f722060448201527f6e6f6e6578697374656e7420746f6b656e000000000000000000000000000000606482015260840161040d565b6000828152600660205260408120805461094090611838565b80601f016020809104026020016040519081016040528092919081815260200182805461096c90611838565b80156109b95780601f1061098e576101008083540402835291602001916109b9565b820191906000526020600020905b81548152906001019060200180831161099c57829003601f168201915b5050505050905060006109d760408051602081019091526000815290565b90508051600014156109eb575090506102f0565b815115610a1d578082604051602001610a0592919061174b565b604051602081830303815290604052925050506102f0565b610a2684610e48565b949350505050565b6000610a3e600780546001019055565b6000610a4960075490565b9050610a558482610f3d565b610a5f818461108c565b9392505050565b6000818152600460205260409020805473ffffffffffffffffffffffffffffffffffffffff19166001600160a01b0384169081179091558190610aa882610606565b6001600160a01b03167f8c5be1e5ebec7d5bd14f71427d1e84f3dd0314c0f7b2291e5b200ac8c7c3b92560405160405180910390a45050565b6000818152600260205260408120546001600160a01b0316610b6b5760405162461bcd60e51b815260206004820152602c60248201527f4552433732313a206f70657261746f7220717565727920666f72206e6f6e657860448201527f697374656e7420746f6b656e0000000000000000000000000000000000000000606482015260840161040d565b6000610b7683610606565b9050806001600160a01b0316846001600160a01b03161480610bb15750836001600160a01b0316610ba684610387565b6001600160a01b0316145b80610a2657506001600160a01b0380821660009081526005602090815260408083209388168352929052205460ff16610a26565b826001600160a01b0316610bf882610606565b6001600160a01b031614610c745760405162461bcd60e51b815260206004820152602960248201527f4552433732313a207472616e73666572206f6620746f6b656e2074686174206960448201527f73206e6f74206f776e0000000000000000000000000000000000000000000000606482015260840161040d565b6001600160a01b038216610cef5760405162461bcd60e51b8152602060048201526024808201527f4552433732313a207472616e7366657220746f20746865207a65726f2061646460448201527f7265737300000000000000000000000000000000000000000000000000000000606482015260840161040d565b610cfa600082610a66565b6001600160a01b0383166000908152600360205260408120805460019290610d239084906117f5565b90915550506001600160a01b0382166000908152600360205260408120805460019290610d519084906117c9565b9091555050600081815260026020526040808220805473ffffffffffffffffffffffffffffffffffffffff19166001600160a01b0386811691821790925591518493918716917fddf252ad1be2c89b69c2b068fc378daa952ba7f163c4a11628f55a4df523b3ef91a4505050565b610dca848484610be5565b610dd684848484611135565b6108945760405162461bcd60e51b815260206004820152603260248201527f4552433732313a207472616e7366657220746f206e6f6e20455243373231526560448201527f63656976657220696d706c656d656e7465720000000000000000000000000000606482015260840161040d565b6000818152600260205260409020546060906001600160a01b0316610ed55760405162461bcd60e51b815260206004820152602f60248201527f4552433732314d657461646174613a2055524920717565727920666f72206e6f60448201527f6e6578697374656e7420746f6b656e0000000000000000000000000000000000606482015260840161040d565b6000610eec60408051602081019091526000815290565b90506000815111610f0c5760405180602001604052806000815250610a5f565b80610f1684611298565b604051602001610f2792919061174b565b6040516020818303038152906040529392505050565b6001600160a01b038216610f935760405162461bcd60e51b815260206004820181905260248201527f4552433732313a206d696e7420746f20746865207a65726f2061646472657373604482015260640161040d565b6000818152600260205260409020546001600160a01b031615610ff85760405162461bcd60e51b815260206004820152601c60248201527f4552433732313a20746f6b656e20616c7265616479206d696e74656400000000604482015260640161040d565b6001600160a01b03821660009081526003602052604081208054600192906110219084906117c9565b9091555050600081815260026020526040808220805473ffffffffffffffffffffffffffffffffffffffff19166001600160a01b03861690811790915590518392907fddf252ad1be2c89b69c2b068fc378daa952ba7f163c4a11628f55a4df523b3ef908290a45050565b6000828152600260205260409020546001600160a01b03166111165760405162461bcd60e51b815260206004820152602e60248201527f45524337323155524953746f726167653a2055524920736574206f66206e6f6e60448201527f6578697374656e7420746f6b656e000000000000000000000000000000000000606482015260840161040d565b6000828152600660209081526040909120825161055f928401906113e7565b60006001600160a01b0384163b1561128d57604051630a85bd0160e11b81526001600160a01b0385169063150b7a029061117990339089908890889060040161177a565b602060405180830381600087803b15801561119357600080fd5b505af19250505080156111c3575060408051601f3d908101601f191682019092526111c0918101906116eb565b60015b611273573d8080156111f1576040519150601f19603f3d011682016040523d82523d6000602084013e6111f6565b606091505b50805161126b5760405162461bcd60e51b815260206004820152603260248201527f4552433732313a207472616e7366657220746f206e6f6e20455243373231526560448201527f63656976657220696d706c656d656e7465720000000000000000000000000000606482015260840161040d565b805181602001fd5b6001600160e01b031916630a85bd0160e11b149050610a26565b506001949350505050565b6060816112d9575060408051808201909152600181527f300000000000000000000000000000000000000000000000000000000000000060208201526102f0565b8160005b811561130357806112ed81611873565b91506112fc9050600a836117e1565b91506112dd565b60008167ffffffffffffffff81111561132c57634e487b7160e01b600052604160045260246000fd5b6040519080825280601f01601f191660200182016040528015611356576020820181803683370190505b5090505b8415610a265761136b6001836117f5565b9150611378600a8661188e565b6113839060306117c9565b60f81b8183815181106113a657634e487b7160e01b600052603260045260246000fd5b60200101907effffffffffffffffffffffffffffffffffffffffffffffffffffffffffffff1916908160001a9053506113e0600a866117e1565b945061135a565b8280546113f390611838565b90600052602060002090601f016020900481019282611415576000855561145b565b82601f1061142e57805160ff191683800117855561145b565b8280016001018555821561145b579182015b8281111561145b578251825591602001919060010190611440565b5061146792915061146b565b5090565b5b80821115611467576000815560010161146c565b600067ffffffffffffffff8084111561149b5761149b6118ce565b604051601f8501601f19908116603f011681019082821181831017156114c3576114c36118ce565b816040528093508581528686860111156114dc57600080fd5b858560208301376000602087830101525050509392505050565b80356001600160a01b03811681146102f057600080fd5b60006020828403121561151e578081fd5b610a5f826114f6565b60008060408385031215611539578081fd5b611542836114f6565b9150611550602084016114f6565b90509250929050565b60008060006060848603121561156d578081fd5b611576846114f6565b9250611584602085016114f6565b9150604084013590509250925092565b600080600080608085870312156115a9578081fd5b6115b2856114f6565b93506115c0602086016114f6565b925060408501359150606085013567ffffffffffffffff8111156115e2578182fd5b8501601f810187136115f2578182fd5b61160187823560208401611480565b91505092959194509250565b6000806040838503121561161f578182fd5b611628836114f6565b91506020830135801515811461163c578182fd5b809150509250929050565b60008060408385031215611659578182fd5b611662836114f6565b9150602083013567ffffffffffffffff81111561167d578182fd5b8301601f8101851361168d578182fd5b61169c85823560208401611480565b9150509250929050565b600080604083850312156116b8578182fd5b6116c1836114f6565b946020939093013593505050565b6000602082840312156116e0578081fd5b8135610a5f816118e4565b6000602082840312156116fc578081fd5b8151610a5f816118e4565b600060208284031215611718578081fd5b5035919050565b6000815180845261173781602086016020860161180c565b601f01601f19169290920160200192915050565b6000835161175d81846020880161180c565b83519083019061177181836020880161180c565b01949350505050565b60006001600160a01b038087168352808616602084015250836040830152608060608301526117ac608083018461171f565b9695505050505050565b600060208252610a5f602083018461171f565b600082198211156117dc576117dc6118a2565b500190565b6000826117f0576117f06118b8565b500490565b600082821015611807576118076118a2565b500390565b60005b8381101561182757818101518382015260200161180f565b838111156108945750506000910152565b60028104600182168061184c57607f821691505b6020821081141561186d57634e487b7160e01b600052602260045260246000fd5b50919050565b6000600019821415611887576118876118a2565b5060010190565b60008261189d5761189d6118b8565b500690565b634e487b7160e01b600052601160045260246000fd5b634e487b7160e01b600052601260045260246000fd5b634e487b7160e01b600052604160045260246000fd5b6001600160e01b0319811681146118fa57600080fd5b5056fea2646970667358221220d0ebdacfa1e82103e1cb710729553018e41d6cd4caae586fbab084178833b29b64736f6c63430008020033",
  "immutableReferences": {},
  "source": "// contracts/GameItem.sol\r\n// SPDX-License-Identifier: MIT\r\npragma solidity ^0.8.2;\r\n\r\nimport '@openzeppelin/contracts/token/ERC721/extensions/ERC721URIStorage.sol';\r\nimport '@openzeppelin/contracts/utils/Counters.sol';\r\n\r\ncontract MyNFT is ERC721URIStorage {\r\n    using Counters for Counters.Counter;\r\n    Counters.Counter private _tokenIds;\r\n\r\n    constructor() ERC721('RickAndMortyCharacter', 'RMC') {}\r\n\r\n    function awardItem(address fan, string memory tokenURI) public returns (uint256) {\r\n        _tokenIds.increment();\r\n\r\n        uint256 newItemId = _tokenIds.current();\r\n        _mint(fan, newItemId);\r\n        _setTokenURI(newItemId, tokenURI);\r\n\r\n        return newItemId;\r\n    }\r\n}\r\n",
  "sourcePath": "C:\\Users\\Owner\\Dropbox\\general\\dev\\web\\projects\\100 - blockchain\\Second blockchain project\\s06-tokenisation\\contracts\\MyNFT.sol",
  "compiler": {
    "name": "solc",
    "version": "0.8.2+commit.661d1103.Emscripten.clang"
  },
  "schemaVersion": "3.4.2",
  "updatedAt": "2021-10-12T14:09:43.954Z",
  "devdoc": {
    "kind": "dev",
    "methods": {
      "approve(address,uint256)": {
        "details": "See {IERC721-approve}."
      },
      "balanceOf(address)": {
        "details": "See {IERC721-balanceOf}."
      },
      "getApproved(uint256)": {
        "details": "See {IERC721-getApproved}."
      },
      "isApprovedForAll(address,address)": {
        "details": "See {IERC721-isApprovedForAll}."
      },
      "name()": {
        "details": "See {IERC721Metadata-name}."
      },
      "ownerOf(uint256)": {
        "details": "See {IERC721-ownerOf}."
      },
      "safeTransferFrom(address,address,uint256)": {
        "details": "See {IERC721-safeTransferFrom}."
      },
      "safeTransferFrom(address,address,uint256,bytes)": {
        "details": "See {IERC721-safeTransferFrom}."
      },
      "setApprovalForAll(address,bool)": {
        "details": "See {IERC721-setApprovalForAll}."
      },
      "supportsInterface(bytes4)": {
        "details": "See {IERC165-supportsInterface}."
      },
      "symbol()": {
        "details": "See {IERC721Metadata-symbol}."
      },
      "tokenURI(uint256)": {
        "details": "See {IERC721Metadata-tokenURI}."
      },
      "transferFrom(address,address,uint256)": {
        "details": "See {IERC721-transferFrom}."
      }
    },
    "version": 1
  },
  "userdoc": {
    "kind": "user",
    "methods": {},
    "version": 1
  }
}