{
  "contractName": "MyTimelockController",
  "abi": [
    {
      "inputs": [
        {
          "internalType": "uint256",
          "name": "minDelay",
          "type": "uint256"
        },
        {
          "internalType": "address[]",
          "name": "proposers",
          "type": "address[]"
        },
        {
          "internalType": "address[]",
          "name": "executors",
          "type": "address[]"
        }
      ],
      "stateMutability": "nonpayable",
      "type": "constructor"
    },
    {
      "anonymous": false,
      "inputs": [
        {
          "indexed": true,
          "internalType": "bytes32",
          "name": "id",
          "type": "bytes32"
        },
        {
          "indexed": true,
          "internalType": "uint256",
          "name": "index",
          "type": "uint256"
        },
        {
          "indexed": false,
          "internalType": "address",
          "name": "target",
          "type": "address"
        },
        {
          "indexed": false,
          "internalType": "uint256",
          "name": "value",
          "type": "uint256"
        },
        {
          "indexed": false,
          "internalType": "bytes",
          "name": "data",
          "type": "bytes"
        }
      ],
      "name": "CallExecuted",
      "type": "event"
    },
    {
      "anonymous": false,
      "inputs": [
        {
          "indexed": true,
          "internalType": "bytes32",
          "name": "id",
          "type": "bytes32"
        },
        {
          "indexed": true,
          "internalType": "uint256",
          "name": "index",
          "type": "uint256"
        },
        {
          "indexed": false,
          "internalType": "address",
          "name": "target",
          "type": "address"
        },
        {
          "indexed": false,
          "internalType": "uint256",
          "name": "value",
          "type": "uint256"
        },
        {
          "indexed": false,
          "internalType": "bytes",
          "name": "data",
          "type": "bytes"
        },
        {
          "indexed": false,
          "internalType": "bytes32",
          "name": "predecessor",
          "type": "bytes32"
        },
        {
          "indexed": false,
          "internalType": "uint256",
          "name": "delay",
          "type": "uint256"
        }
      ],
      "name": "CallScheduled",
      "type": "event"
    },
    {
      "anonymous": false,
      "inputs": [
        {
          "indexed": true,
          "internalType": "bytes32",
          "name": "id",
          "type": "bytes32"
        }
      ],
      "name": "Cancelled",
      "type": "event"
    },
    {
      "anonymous": false,
      "inputs": [
        {
          "indexed": false,
          "internalType": "uint256",
          "name": "oldDuration",
          "type": "uint256"
        },
        {
          "indexed": false,
          "internalType": "uint256",
          "name": "newDuration",
          "type": "uint256"
        }
      ],
      "name": "MinDelayChange",
      "type": "event"
    },
    {
      "anonymous": false,
      "inputs": [
        {
          "indexed": true,
          "internalType": "bytes32",
          "name": "role",
          "type": "bytes32"
        },
        {
          "indexed": true,
          "internalType": "bytes32",
          "name": "previousAdminRole",
          "type": "bytes32"
        },
        {
          "indexed": true,
          "internalType": "bytes32",
          "name": "newAdminRole",
          "type": "bytes32"
        }
      ],
      "name": "RoleAdminChanged",
      "type": "event"
    },
    {
      "anonymous": false,
      "inputs": [
        {
          "indexed": true,
          "internalType": "bytes32",
          "name": "role",
          "type": "bytes32"
        },
        {
          "indexed": true,
          "internalType": "address",
          "name": "account",
          "type": "address"
        },
        {
          "indexed": true,
          "internalType": "address",
          "name": "sender",
          "type": "address"
        }
      ],
      "name": "RoleGranted",
      "type": "event"
    },
    {
      "anonymous": false,
      "inputs": [
        {
          "indexed": true,
          "internalType": "bytes32",
          "name": "role",
          "type": "bytes32"
        },
        {
          "indexed": true,
          "internalType": "address",
          "name": "account",
          "type": "address"
        },
        {
          "indexed": true,
          "internalType": "address",
          "name": "sender",
          "type": "address"
        }
      ],
      "name": "RoleRevoked",
      "type": "event"
    },
    {
      "inputs": [],
      "name": "DEFAULT_ADMIN_ROLE",
      "outputs": [
        {
          "internalType": "bytes32",
          "name": "",
          "type": "bytes32"
        }
      ],
      "stateMutability": "view",
      "type": "function"
    },
    {
      "inputs": [],
      "name": "EXECUTOR_ROLE",
      "outputs": [
        {
          "internalType": "bytes32",
          "name": "",
          "type": "bytes32"
        }
      ],
      "stateMutability": "view",
      "type": "function"
    },
    {
      "inputs": [],
      "name": "PROPOSER_ROLE",
      "outputs": [
        {
          "internalType": "bytes32",
          "name": "",
          "type": "bytes32"
        }
      ],
      "stateMutability": "view",
      "type": "function"
    },
    {
      "inputs": [],
      "name": "TIMELOCK_ADMIN_ROLE",
      "outputs": [
        {
          "internalType": "bytes32",
          "name": "",
          "type": "bytes32"
        }
      ],
      "stateMutability": "view",
      "type": "function"
    },
    {
      "inputs": [
        {
          "internalType": "bytes32",
          "name": "id",
          "type": "bytes32"
        }
      ],
      "name": "cancel",
      "outputs": [],
      "stateMutability": "nonpayable",
      "type": "function"
    },
    {
      "inputs": [
        {
          "internalType": "address",
          "name": "target",
          "type": "address"
        },
        {
          "internalType": "uint256",
          "name": "value",
          "type": "uint256"
        },
        {
          "internalType": "bytes",
          "name": "data",
          "type": "bytes"
        },
        {
          "internalType": "bytes32",
          "name": "predecessor",
          "type": "bytes32"
        },
        {
          "internalType": "bytes32",
          "name": "salt",
          "type": "bytes32"
        }
      ],
      "name": "execute",
      "outputs": [],
      "stateMutability": "payable",
      "type": "function"
    },
    {
      "inputs": [
        {
          "internalType": "address[]",
          "name": "targets",
          "type": "address[]"
        },
        {
          "internalType": "uint256[]",
          "name": "values",
          "type": "uint256[]"
        },
        {
          "internalType": "bytes[]",
          "name": "datas",
          "type": "bytes[]"
        },
        {
          "internalType": "bytes32",
          "name": "predecessor",
          "type": "bytes32"
        },
        {
          "internalType": "bytes32",
          "name": "salt",
          "type": "bytes32"
        }
      ],
      "name": "executeBatch",
      "outputs": [],
      "stateMutability": "payable",
      "type": "function"
    },
    {
      "inputs": [],
      "name": "getMinDelay",
      "outputs": [
        {
          "internalType": "uint256",
          "name": "duration",
          "type": "uint256"
        }
      ],
      "stateMutability": "view",
      "type": "function"
    },
    {
      "inputs": [
        {
          "internalType": "bytes32",
          "name": "role",
          "type": "bytes32"
        }
      ],
      "name": "getRoleAdmin",
      "outputs": [
        {
          "internalType": "bytes32",
          "name": "",
          "type": "bytes32"
        }
      ],
      "stateMutability": "view",
      "type": "function"
    },
    {
      "inputs": [
        {
          "internalType": "bytes32",
          "name": "id",
          "type": "bytes32"
        }
      ],
      "name": "getTimestamp",
      "outputs": [
        {
          "internalType": "uint256",
          "name": "timestamp",
          "type": "uint256"
        }
      ],
      "stateMutability": "view",
      "type": "function"
    },
    {
      "inputs": [
        {
          "internalType": "bytes32",
          "name": "role",
          "type": "bytes32"
        },
        {
          "internalType": "address",
          "name": "account",
          "type": "address"
        }
      ],
      "name": "grantRole",
      "outputs": [],
      "stateMutability": "nonpayable",
      "type": "function"
    },
    {
      "inputs": [
        {
          "internalType": "bytes32",
          "name": "role",
          "type": "bytes32"
        },
        {
          "internalType": "address",
          "name": "account",
          "type": "address"
        }
      ],
      "name": "hasRole",
      "outputs": [
        {
          "internalType": "bool",
          "name": "",
          "type": "bool"
        }
      ],
      "stateMutability": "view",
      "type": "function"
    },
    {
      "inputs": [
        {
          "internalType": "address",
          "name": "target",
          "type": "address"
        },
        {
          "internalType": "uint256",
          "name": "value",
          "type": "uint256"
        },
        {
          "internalType": "bytes",
          "name": "data",
          "type": "bytes"
        },
        {
          "internalType": "bytes32",
          "name": "predecessor",
          "type": "bytes32"
        },
        {
          "internalType": "bytes32",
          "name": "salt",
          "type": "bytes32"
        }
      ],
      "name": "hashOperation",
      "outputs": [
        {
          "internalType": "bytes32",
          "name": "hash",
          "type": "bytes32"
        }
      ],
      "stateMutability": "pure",
      "type": "function"
    },
    {
      "inputs": [
        {
          "internalType": "address[]",
          "name": "targets",
          "type": "address[]"
        },
        {
          "internalType": "uint256[]",
          "name": "values",
          "type": "uint256[]"
        },
        {
          "internalType": "bytes[]",
          "name": "datas",
          "type": "bytes[]"
        },
        {
          "internalType": "bytes32",
          "name": "predecessor",
          "type": "bytes32"
        },
        {
          "internalType": "bytes32",
          "name": "salt",
          "type": "bytes32"
        }
      ],
      "name": "hashOperationBatch",
      "outputs": [
        {
          "internalType": "bytes32",
          "name": "hash",
          "type": "bytes32"
        }
      ],
      "stateMutability": "pure",
      "type": "function"
    },
    {
      "inputs": [
        {
          "internalType": "bytes32",
          "name": "id",
          "type": "bytes32"
        }
      ],
      "name": "isOperation",
      "outputs": [
        {
          "internalType": "bool",
          "name": "pending",
          "type": "bool"
        }
      ],
      "stateMutability": "view",
      "type": "function"
    },
    {
      "inputs": [
        {
          "internalType": "bytes32",
          "name": "id",
          "type": "bytes32"
        }
      ],
      "name": "isOperationDone",
      "outputs": [
        {
          "internalType": "bool",
          "name": "done",
          "type": "bool"
        }
      ],
      "stateMutability": "view",
      "type": "function"
    },
    {
      "inputs": [
        {
          "internalType": "bytes32",
          "name": "id",
          "type": "bytes32"
        }
      ],
      "name": "isOperationPending",
      "outputs": [
        {
          "internalType": "bool",
          "name": "pending",
          "type": "bool"
        }
      ],
      "stateMutability": "view",
      "type": "function"
    },
    {
      "inputs": [
        {
          "internalType": "bytes32",
          "name": "id",
          "type": "bytes32"
        }
      ],
      "name": "isOperationReady",
      "outputs": [
        {
          "internalType": "bool",
          "name": "ready",
          "type": "bool"
        }
      ],
      "stateMutability": "view",
      "type": "function"
    },
    {
      "inputs": [
        {
          "internalType": "bytes32",
          "name": "role",
          "type": "bytes32"
        },
        {
          "internalType": "address",
          "name": "account",
          "type": "address"
        }
      ],
      "name": "renounceRole",
      "outputs": [],
      "stateMutability": "nonpayable",
      "type": "function"
    },
    {
      "inputs": [
        {
          "internalType": "bytes32",
          "name": "role",
          "type": "bytes32"
        },
        {
          "internalType": "address",
          "name": "account",
          "type": "address"
        }
      ],
      "name": "revokeRole",
      "outputs": [],
      "stateMutability": "nonpayable",
      "type": "function"
    },
    {
      "inputs": [
        {
          "internalType": "address",
          "name": "target",
          "type": "address"
        },
        {
          "internalType": "uint256",
          "name": "value",
          "type": "uint256"
        },
        {
          "internalType": "bytes",
          "name": "data",
          "type": "bytes"
        },
        {
          "internalType": "bytes32",
          "name": "predecessor",
          "type": "bytes32"
        },
        {
          "internalType": "bytes32",
          "name": "salt",
          "type": "bytes32"
        },
        {
          "internalType": "uint256",
          "name": "delay",
          "type": "uint256"
        }
      ],
      "name": "schedule",
      "outputs": [],
      "stateMutability": "nonpayable",
      "type": "function"
    },
    {
      "inputs": [
        {
          "internalType": "address[]",
          "name": "targets",
          "type": "address[]"
        },
        {
          "internalType": "uint256[]",
          "name": "values",
          "type": "uint256[]"
        },
        {
          "internalType": "bytes[]",
          "name": "datas",
          "type": "bytes[]"
        },
        {
          "internalType": "bytes32",
          "name": "predecessor",
          "type": "bytes32"
        },
        {
          "internalType": "bytes32",
          "name": "salt",
          "type": "bytes32"
        },
        {
          "internalType": "uint256",
          "name": "delay",
          "type": "uint256"
        }
      ],
      "name": "scheduleBatch",
      "outputs": [],
      "stateMutability": "nonpayable",
      "type": "function"
    },
    {
      "inputs": [
        {
          "internalType": "bytes4",
          "name": "interfaceId",
          "type": "bytes4"
        }
      ],
      "name": "supportsInterface",
      "outputs": [
        {
          "internalType": "bool",
          "name": "",
          "type": "bool"
        }
      ],
      "stateMutability": "view",
      "type": "function"
    },
    {
      "inputs": [
        {
          "internalType": "uint256",
          "name": "newDelay",
          "type": "uint256"
        }
      ],
      "name": "updateDelay",
      "outputs": [],
      "stateMutability": "nonpayable",
      "type": "function"
    },
    {
      "stateMutability": "payable",
      "type": "receive"
    }
  ],
  "bytecode": "0x60806040523480156200001157600080fd5b506040516200226a3803806200226a8339810160408190526200003491620003cb565b828282620000526000805160206200220a83398151915280620001e7565b6200007c6000805160206200222a8339815191526000805160206200220a833981519152620001e7565b620000a66000805160206200224a8339815191526000805160206200220a833981519152620001e7565b620000c16000805160206200220a833981519152336200023c565b620000dc6000805160206200220a833981519152306200023c565b60005b82518110156200014557620001326000805160206200222a8339815191528483815181106200011e57634e487b7160e01b600052603260045260246000fd5b60200260200101516200023c60201b60201c565b6200013d816200043c565b9050620000df565b5060005b81518110156200019b57620001886000805160206200224a8339815191528383815181106200011e57634e487b7160e01b600052603260045260246000fd5b62000193816200043c565b905062000149565b5060028390556040805160008152602081018590527f11c24f4ead16507c69ac467fbd5e4eed5fb5c699626d2cc6d66421df253886d5910160405180910390a15050505050506200047a565b6000620001f4836200024c565b600084815260208190526040808220600101859055519192508391839186917fbd79b86ffe0ab8e8776151514217cd7cacd52c909f66475c3af44e129f0b00ff9190a4505050565b62000248828262000264565b5050565b6000818152602081905260409020600101545b919050565b6000828152602081815260408083206001600160a01b038516845290915290205460ff1662000248576000828152602081815260408083206001600160a01b03851684529091529020805460ff19166001179055620002c03390565b6001600160a01b0316816001600160a01b0316837f2f8788117e7eff1d82e926ec794901d17c78024a50270940304540a733656f0d60405160405180910390a45050565b80516001600160a01b03811681146200025f57600080fd5b600082601f8301126200032d578081fd5b815160206001600160401b03808311156200034c576200034c62000464565b818302604051601f19603f8301168101818110848211171562000373576200037362000464565b6040528481528381019250868401828801850189101562000392578687fd5b8692505b85831015620003bf57620003aa8162000304565b84529284019260019290920191840162000396565b50979650505050505050565b600080600060608486031215620003e0578283fd5b835160208501519093506001600160401b0380821115620003ff578384fd5b6200040d878388016200031c565b9350604086015191508082111562000423578283fd5b5062000432868287016200031c565b9150509250925092565b60006000198214156200045d57634e487b7160e01b81526011600452602481fd5b5060010190565b634e487b7160e01b600052604160045260246000fd5b611d80806200048a6000396000f3fe60806040526004361061018f5760003560e01c806364d62353116100d6578063b1c5f4271161007f578063d547741f11610059578063d547741f146104d6578063e38335e5146104f6578063f27a0c921461050957610196565b8063b1c5f42714610469578063c4d252f514610489578063d45c4435146104a957610196565b80638f61f4f5116100b05780638f61f4f5146103dc57806391d1485414610410578063a217fddf1461045457610196565b806364d623531461037c5780638065657f1461039c5780638f2a0bb0146103bc57610196565b8063248a9ca31161013857806331d507501161011257806331d507501461031c57806336568abe1461033c578063584b153e1461035c57610196565b8063248a9ca31461029b5780632ab0f529146102cb5780632f2ff15d146102fc57610196565b80630d3cf6fc116101695780630d3cf6fc14610234578063134008d31461026857806313bc9f201461027b57610196565b806301d5062a1461019b57806301ffc9a7146101bd57806307bd0265146101f257610196565b3661019657005b600080fd5b3480156101a757600080fd5b506101bb6101b6366004611765565b61051e565b005b3480156101c957600080fd5b506101dd6101d836600461196e565b6105b5565b60405190151581526020015b60405180910390f35b3480156101fe57600080fd5b506102267fd8aa0f3194971a2a116679f7c2090f6939c8d4e01a2a8d7e41d55e5351469e6381565b6040519081526020016101e9565b34801561024057600080fd5b506102267f5f58e3a2316349923ce3780f8d587db2d72378aed66a8261c916544fa6846ca581565b6101bb6102763660046116fb565b610650565b34801561028757600080fd5b506101dd61029636600461192b565b61070b565b3480156102a757600080fd5b506102266102b636600461192b565b60009081526020819052604090206001015490565b3480156102d757600080fd5b506101dd6102e636600461192b565b6000908152600160208190526040909120541490565b34801561030857600080fd5b506101bb610317366004611943565b610731565b34801561032857600080fd5b506101dd61033736600461192b565b61075c565b34801561034857600080fd5b506101bb610357366004611943565b610775565b34801561036857600080fd5b506101dd61037736600461192b565b610806565b34801561038857600080fd5b506101bb61039736600461192b565b61081c565b3480156103a857600080fd5b506102266103b73660046116fb565b6108d2565b3480156103c857600080fd5b506101bb6103d736600461187d565b610911565b3480156103e857600080fd5b506102267fb09aa5aeb3702cfd50b6b62bc4532604938f21248a27a1d5ca736082b6819cc181565b34801561041c57600080fd5b506101dd61042b366004611943565b6000918252602082815260408084206001600160a01b0393909316845291905290205460ff1690565b34801561046057600080fd5b50610226600081565b34801561047557600080fd5b506102266104843660046117d8565b610b06565b34801561049557600080fd5b506101bb6104a436600461192b565b610b4b565b3480156104b557600080fd5b506102266104c436600461192b565b60009081526001602052604090205490565b3480156104e257600080fd5b506101bb6104f1366004611943565b610c2d565b6101bb6105043660046117d8565b610c53565b34801561051557600080fd5b50600254610226565b7fb09aa5aeb3702cfd50b6b62bc4532604938f21248a27a1d5ca736082b6819cc161054a81335b610e6d565b600061055a8989898989896108d2565b90506105668184610eeb565b6000817f4cf4410cc57040e44862ef0f45f3dd5a5e02db8eb8add648d4b0e236f1d07dca8b8b8b8b8b8a6040516105a296959493929190611b27565b60405180910390a3505050505050505050565b60007fffffffff0000000000000000000000000000000000000000000000000000000082167f7965db0b00000000000000000000000000000000000000000000000000000000148061064857507f01ffc9a7000000000000000000000000000000000000000000000000000000007fffffffff000000000000000000000000000000000000000000000000000000008316145b90505b919050565b600080527fdae2aa361dfd1ca020a396615627d436107c35eff9fe7738a3512819782d70696020527f5ba6852781629bcdcd4bdaa6de76d786f1c64b16acdac474e55bebc0ea157951547fd8aa0f3194971a2a116679f7c2090f6939c8d4e01a2a8d7e41d55e5351469e639060ff166106cd576106cd8133610545565b60006106dd8888888888886108d2565b90506106e98185610fff565b6106f88160008a8a8a8a611108565b61070181611226565b5050505050505050565b60008181526001602052604081205460018111801561072a5750428111155b9392505050565b60008281526020819052604090206001015461074d8133610545565b61075783836112b5565b505050565b60008181526001602052604081205481905b1192915050565b6001600160a01b03811633146107f85760405162461bcd60e51b815260206004820152602f60248201527f416363657373436f6e74726f6c3a2063616e206f6e6c792072656e6f756e636560448201527f20726f6c657320666f722073656c66000000000000000000000000000000000060648201526084015b60405180910390fd5b6108028282611353565b5050565b600081815260016020819052604082205461076e565b3330146108915760405162461bcd60e51b815260206004820152602b60248201527f54696d656c6f636b436f6e74726f6c6c65723a2063616c6c6572206d7573742060448201527f62652074696d656c6f636b00000000000000000000000000000000000000000060648201526084016107ef565b60025460408051918252602082018390527f11c24f4ead16507c69ac467fbd5e4eed5fb5c699626d2cc6d66421df253886d5910160405180910390a1600255565b60008686868686866040516020016108ef96959493929190611b27565b6040516020818303038152906040528051906020012090509695505050505050565b7fb09aa5aeb3702cfd50b6b62bc4532604938f21248a27a1d5ca736082b6819cc161093c8133610545565b8887146109975760405162461bcd60e51b815260206004820152602360248201527f54696d656c6f636b436f6e74726f6c6c65723a206c656e677468206d69736d616044820152620e8c6d60eb1b60648201526084016107ef565b8885146109f25760405162461bcd60e51b815260206004820152602360248201527f54696d656c6f636b436f6e74726f6c6c65723a206c656e677468206d69736d616044820152620e8c6d60eb1b60648201526084016107ef565b6000610a048b8b8b8b8b8b8b8b610b06565b9050610a108184610eeb565b60005b8a811015610af85780827f4cf4410cc57040e44862ef0f45f3dd5a5e02db8eb8add648d4b0e236f1d07dca8e8e85818110610a5e57634e487b7160e01b600052603260045260246000fd5b9050602002016020810190610a7391906116e1565b8d8d86818110610a9357634e487b7160e01b600052603260045260246000fd5b905060200201358c8c87818110610aba57634e487b7160e01b600052603260045260246000fd5b9050602002810190610acc9190611c56565b8c8b604051610ae096959493929190611b27565b60405180910390a3610af181611d19565b9050610a13565b505050505050505050505050565b60008888888888888888604051602001610b27989796959493929190611b65565b60405160208183030381529060405280519060200120905098975050505050505050565b7fb09aa5aeb3702cfd50b6b62bc4532604938f21248a27a1d5ca736082b6819cc1610b768133610545565b610b7f82610806565b610bf15760405162461bcd60e51b815260206004820152603160248201527f54696d656c6f636b436f6e74726f6c6c65723a206f7065726174696f6e20636160448201527f6e6e6f742062652063616e63656c6c656400000000000000000000000000000060648201526084016107ef565b6000828152600160205260408082208290555183917fbaa1eb22f2a492ba1a5fea61b8df4d27c6c8b5f3971e63bb58fa14ff72eedb7091a25050565b600082815260208190526040902060010154610c498133610545565b6107578383611353565b600080527fdae2aa361dfd1ca020a396615627d436107c35eff9fe7738a3512819782d70696020527f5ba6852781629bcdcd4bdaa6de76d786f1c64b16acdac474e55bebc0ea157951547fd8aa0f3194971a2a116679f7c2090f6939c8d4e01a2a8d7e41d55e5351469e639060ff16610cd057610cd08133610545565b878614610d2b5760405162461bcd60e51b815260206004820152602360248201527f54696d656c6f636b436f6e74726f6c6c65723a206c656e677468206d69736d616044820152620e8c6d60eb1b60648201526084016107ef565b878414610d865760405162461bcd60e51b815260206004820152602360248201527f54696d656c6f636b436f6e74726f6c6c65723a206c656e677468206d69736d616044820152620e8c6d60eb1b60648201526084016107ef565b6000610d988a8a8a8a8a8a8a8a610b06565b9050610da48185610fff565b60005b89811015610e5757610e4782828d8d85818110610dd457634e487b7160e01b600052603260045260246000fd5b9050602002016020810190610de991906116e1565b8c8c86818110610e0957634e487b7160e01b600052603260045260246000fd5b905060200201358b8b87818110610e3057634e487b7160e01b600052603260045260246000fd5b9050602002810190610e429190611c56565b611108565b610e5081611d19565b9050610da7565b50610e6181611226565b50505050505050505050565b6000828152602081815260408083206001600160a01b038516845290915290205460ff1661080257610ea9816001600160a01b031660146113d2565b610eb48360206113d2565b604051602001610ec5929190611a73565b60408051601f198184030181529082905262461bcd60e51b82526107ef91600401611c23565b610ef48261075c565b15610f675760405162461bcd60e51b815260206004820152602f60248201527f54696d656c6f636b436f6e74726f6c6c65723a206f7065726174696f6e20616c60448201527f7265616479207363686564756c6564000000000000000000000000000000000060648201526084016107ef565b600254811015610fdf5760405162461bcd60e51b815260206004820152602660248201527f54696d656c6f636b436f6e74726f6c6c65723a20696e73756666696369656e7460448201527f2064656c6179000000000000000000000000000000000000000000000000000060648201526084016107ef565b610fe98142611c9b565b6000928352600160205260409092209190915550565b6110088261070b565b61107a5760405162461bcd60e51b815260206004820152602a60248201527f54696d656c6f636b436f6e74726f6c6c65723a206f7065726174696f6e20697360448201527f206e6f742072656164790000000000000000000000000000000000000000000060648201526084016107ef565b8015806110965750600081815260016020819052604090912054145b6108025760405162461bcd60e51b815260206004820152602660248201527f54696d656c6f636b436f6e74726f6c6c65723a206d697373696e67206465706560448201527f6e64656e6379000000000000000000000000000000000000000000000000000060648201526084016107ef565b6000846001600160a01b0316848484604051611125929190611a63565b60006040518083038185875af1925050503d8060008114611162576040519150601f19603f3d011682016040523d82523d6000602084013e611167565b606091505b50509050806111de5760405162461bcd60e51b815260206004820152603360248201527f54696d656c6f636b436f6e74726f6c6c65723a20756e6465726c79696e67207460448201527f72616e73616374696f6e2072657665727465640000000000000000000000000060648201526084016107ef565b85877fc2617efa69bab66782fa219543714338489c4e9e178271560a91b82c3f612b58878787876040516112159493929190611af4565b60405180910390a350505050505050565b61122f8161070b565b6112a15760405162461bcd60e51b815260206004820152602a60248201527f54696d656c6f636b436f6e74726f6c6c65723a206f7065726174696f6e20697360448201527f206e6f742072656164790000000000000000000000000000000000000000000060648201526084016107ef565b600090815260016020819052604090912055565b6000828152602081815260408083206001600160a01b038516845290915290205460ff16610802576000828152602081815260408083206001600160a01b03851684529091529020805460ff1916600117905561130f3390565b6001600160a01b0316816001600160a01b0316837f2f8788117e7eff1d82e926ec794901d17c78024a50270940304540a733656f0d60405160405180910390a45050565b6000828152602081815260408083206001600160a01b038516845290915290205460ff1615610802576000828152602081815260408083206001600160a01b0385168085529252808320805460ff1916905551339285917ff6391f5c32d9c69d2a47ea670b442974b53935d1edc7fd64eb21e047a839171b9190a45050565b606060006113e1836002611cb3565b6113ec906002611c9b565b67ffffffffffffffff81111561141257634e487b7160e01b600052604160045260246000fd5b6040519080825280601f01601f19166020018201604052801561143c576020820181803683370190505b5090507f30000000000000000000000000000000000000000000000000000000000000008160008151811061148157634e487b7160e01b600052603260045260246000fd5b60200101907effffffffffffffffffffffffffffffffffffffffffffffffffffffffffffff1916908160001a9053507f7800000000000000000000000000000000000000000000000000000000000000816001815181106114f257634e487b7160e01b600052603260045260246000fd5b60200101907effffffffffffffffffffffffffffffffffffffffffffffffffffffffffffff1916908160001a905350600061152e846002611cb3565b611539906001611c9b565b90505b60018111156115f2577f303132333435363738396162636465660000000000000000000000000000000085600f166010811061158857634e487b7160e01b600052603260045260246000fd5b1a60f81b8282815181106115ac57634e487b7160e01b600052603260045260246000fd5b60200101907effffffffffffffffffffffffffffffffffffffffffffffffffffffffffffff1916908160001a90535060049490941c936115eb81611d02565b905061153c565b50831561072a5760405162461bcd60e51b815260206004820181905260248201527f537472696e67733a20686578206c656e67746820696e73756666696369656e7460448201526064016107ef565b80356001600160a01b038116811461064b57600080fd5b60008083601f840112611669578182fd5b50813567ffffffffffffffff811115611680578182fd5b602083019150836020808302850101111561169a57600080fd5b9250929050565b60008083601f8401126116b2578182fd5b50813567ffffffffffffffff8111156116c9578182fd5b60208301915083602082850101111561169a57600080fd5b6000602082840312156116f2578081fd5b61072a82611641565b60008060008060008060a08789031215611713578182fd5b61171c87611641565b955060208701359450604087013567ffffffffffffffff81111561173e578283fd5b61174a89828a016116a1565b979a9699509760608101359660809091013595509350505050565b600080600080600080600060c0888a03121561177f578081fd5b61178888611641565b965060208801359550604088013567ffffffffffffffff8111156117aa578182fd5b6117b68a828b016116a1565b989b979a50986060810135976080820135975060a09091013595509350505050565b60008060008060008060008060a0898b0312156117f3578081fd5b883567ffffffffffffffff8082111561180a578283fd5b6118168c838d01611658565b909a50985060208b013591508082111561182e578283fd5b61183a8c838d01611658565b909850965060408b0135915080821115611852578283fd5b5061185f8b828c01611658565b999c989b509699959896976060870135966080013595509350505050565b600080600080600080600080600060c08a8c03121561189a578081fd5b893567ffffffffffffffff808211156118b1578283fd5b6118bd8d838e01611658565b909b50995060208c01359150808211156118d5578283fd5b6118e18d838e01611658565b909950975060408c01359150808211156118f9578283fd5b506119068c828d01611658565b9a9d999c50979a969997986060880135976080810135975060a0013595509350505050565b60006020828403121561193c578081fd5b5035919050565b60008060408385031215611955578182fd5b8235915061196560208401611641565b90509250929050565b60006020828403121561197f578081fd5b81357fffffffff000000000000000000000000000000000000000000000000000000008116811461072a578182fd5b818352602080840193600091908185020181018584845b87811015611a2c5782840389528135601e198836030181126119e5578687fd5b8701803567ffffffffffffffff8111156119fd578788fd5b803603891315611a0b578788fd5b611a188682898501611a39565b9a87019a95505050908401906001016119c5565b5091979650505050505050565b60008284528282602086013780602084860101526020601f19601f85011685010190509392505050565b6000828483379101908152919050565b60007f416363657373436f6e74726f6c3a206163636f756e742000000000000000000082528351611aab816017850160208801611cd2565b7f206973206d697373696e6720726f6c65200000000000000000000000000000006017918401918201528351611ae8816028840160208801611cd2565b01602801949350505050565b60006001600160a01b038616825284602083015260606040830152611b1d606083018486611a39565b9695505050505050565b60006001600160a01b038816825286602083015260a06040830152611b5060a083018688611a39565b60608301949094525060800152949350505050565b60a0808252810188905260008960c08301825b8b811015611ba6576001600160a01b03611b9184611641565b16825260209283019290910190600101611b78565b5083810360208501528881527f07ffffffffffffffffffffffffffffffffffffffffffffffffffffffffffffff891115611bde578283fd5b602089029150818a60208301370160208181018381528483039091016040850152611c0a81888a6119ae565b6060850196909652505050608001529695505050505050565b6000602082528251806020840152611c42816040850160208701611cd2565b601f01601f19169190910160400192915050565b6000808335601e19843603018112611c6c578283fd5b83018035915067ffffffffffffffff821115611c86578283fd5b60200191503681900382131561169a57600080fd5b60008219821115611cae57611cae611d34565b500190565b6000816000190483118215151615611ccd57611ccd611d34565b500290565b60005b83811015611ced578181015183820152602001611cd5565b83811115611cfc576000848401525b50505050565b600081611d1157611d11611d34565b506000190190565b6000600019821415611d2d57611d2d611d34565b5060010190565b634e487b7160e01b600052601160045260246000fdfea264697066735822122044af22df07f57661f4fd50bc6b729157862e1d3d4af2759f7e75e4e2cb6e11b264736f6c634300080200335f58e3a2316349923ce3780f8d587db2d72378aed66a8261c916544fa6846ca5b09aa5aeb3702cfd50b6b62bc4532604938f21248a27a1d5ca736082b6819cc1d8aa0f3194971a2a116679f7c2090f6939c8d4e01a2a8d7e41d55e5351469e63",
  "immutableReferences": {},
  "source": "// SPDX-License-Identifier: MIT\r\npragma solidity ^0.8.2;\r\n\r\nimport '@openzeppelin/contracts/governance/TimelockController.sol';\r\n\r\n//person who creates smart contract recieves the initialSupply of tokens\r\ncontract MyTimelockController is TimelockController {\r\n    constructor(\r\n        uint256 minDelay,\r\n        address[] memory proposers,\r\n        address[] memory executors\r\n    ) TimelockController(minDelay, proposers, executors) {}\r\n}\r\n\r\n//test transferOwnership\r\n",
  "sourcePath": "C:\\Users\\Owner\\Dropbox\\general\\dev\\web\\projects\\100 - blockchain\\Second blockchain project\\s06-tokenisation\\contracts\\MyTimelockController.sol",
  "compiler": {
    "name": "solc",
    "version": "0.8.2+commit.661d1103.Emscripten.clang"
  },
  "schemaVersion": "3.4.2",
  "updatedAt": "2021-10-12T14:09:43.964Z",
  "devdoc": {
    "kind": "dev",
    "methods": {
      "cancel(bytes32)": {
        "details": "Cancel an operation. Requirements: - the caller must have the 'proposer' role."
      },
      "execute(address,uint256,bytes,bytes32,bytes32)": {
        "details": "Execute an (ready) operation containing a single transaction. Emits a {CallExecuted} event. Requirements: - the caller must have the 'executor' role."
      },
      "executeBatch(address[],uint256[],bytes[],bytes32,bytes32)": {
        "details": "Execute an (ready) operation containing a batch of transactions. Emits one {CallExecuted} event per transaction in the batch. Requirements: - the caller must have the 'executor' role."
      },
      "getMinDelay()": {
        "details": "Returns the minimum delay for an operation to become valid. This value can be changed by executing an operation that calls `updateDelay`."
      },
      "getRoleAdmin(bytes32)": {
        "details": "Returns the admin role that controls `role`. See {grantRole} and {revokeRole}. To change a role's admin, use {_setRoleAdmin}."
      },
      "getTimestamp(bytes32)": {
        "details": "Returns the timestamp at with an operation becomes ready (0 for unset operations, 1 for done operations)."
      },
      "grantRole(bytes32,address)": {
        "details": "Grants `role` to `account`. If `account` had not been already granted `role`, emits a {RoleGranted} event. Requirements: - the caller must have ``role``'s admin role."
      },
      "hasRole(bytes32,address)": {
        "details": "Returns `true` if `account` has been granted `role`."
      },
      "hashOperation(address,uint256,bytes,bytes32,bytes32)": {
        "details": "Returns the identifier of an operation containing a single transaction."
      },
      "hashOperationBatch(address[],uint256[],bytes[],bytes32,bytes32)": {
        "details": "Returns the identifier of an operation containing a batch of transactions."
      },
      "isOperation(bytes32)": {
        "details": "Returns whether an id correspond to a registered operation. This includes both Pending, Ready and Done operations."
      },
      "isOperationDone(bytes32)": {
        "details": "Returns whether an operation is done or not."
      },
      "isOperationPending(bytes32)": {
        "details": "Returns whether an operation is pending or not."
      },
      "isOperationReady(bytes32)": {
        "details": "Returns whether an operation is ready or not."
      },
      "renounceRole(bytes32,address)": {
        "details": "Revokes `role` from the calling account. Roles are often managed via {grantRole} and {revokeRole}: this function's purpose is to provide a mechanism for accounts to lose their privileges if they are compromised (such as when a trusted device is misplaced). If the calling account had been granted `role`, emits a {RoleRevoked} event. Requirements: - the caller must be `account`."
      },
      "revokeRole(bytes32,address)": {
        "details": "Revokes `role` from `account`. If `account` had been granted `role`, emits a {RoleRevoked} event. Requirements: - the caller must have ``role``'s admin role."
      },
      "schedule(address,uint256,bytes,bytes32,bytes32,uint256)": {
        "details": "Schedule an operation containing a single transaction. Emits a {CallScheduled} event. Requirements: - the caller must have the 'proposer' role."
      },
      "scheduleBatch(address[],uint256[],bytes[],bytes32,bytes32,uint256)": {
        "details": "Schedule an operation containing a batch of transactions. Emits one {CallScheduled} event per transaction in the batch. Requirements: - the caller must have the 'proposer' role."
      },
      "supportsInterface(bytes4)": {
        "details": "See {IERC165-supportsInterface}."
      },
      "updateDelay(uint256)": {
        "details": "Changes the minimum timelock duration for future operations. Emits a {MinDelayChange} event. Requirements: - the caller must be the timelock itself. This can only be achieved by scheduling and later executing an operation where the timelock is the target and the data is the ABI-encoded call to this function."
      }
    },
    "version": 1
  },
  "userdoc": {
    "kind": "user",
    "methods": {},
    "version": 1
  }
}