{
  "contractName": "MyUpgradeableToken",
  "abi": [
    {
      "anonymous": false,
      "inputs": [
        {
          "indexed": true,
          "internalType": "address",
          "name": "owner",
          "type": "address"
        },
        {
          "indexed": true,
          "internalType": "address",
          "name": "spender",
          "type": "address"
        },
        {
          "indexed": false,
          "internalType": "uint256",
          "name": "value",
          "type": "uint256"
        }
      ],
      "name": "Approval",
      "type": "event"
    },
    {
      "anonymous": false,
      "inputs": [
        {
          "indexed": false,
          "internalType": "uint256",
          "name": "total",
          "type": "uint256"
        }
      ],
      "name": "TokensMinted",
      "type": "event"
    },
    {
      "anonymous": false,
      "inputs": [
        {
          "indexed": true,
          "internalType": "address",
          "name": "from",
          "type": "address"
        },
        {
          "indexed": true,
          "internalType": "address",
          "name": "to",
          "type": "address"
        },
        {
          "indexed": false,
          "internalType": "uint256",
          "name": "value",
          "type": "uint256"
        }
      ],
      "name": "Transfer",
      "type": "event"
    },
    {
      "inputs": [
        {
          "internalType": "address",
          "name": "owner",
          "type": "address"
        },
        {
          "internalType": "address",
          "name": "spender",
          "type": "address"
        }
      ],
      "name": "allowance",
      "outputs": [
        {
          "internalType": "uint256",
          "name": "",
          "type": "uint256"
        }
      ],
      "stateMutability": "view",
      "type": "function"
    },
    {
      "inputs": [
        {
          "internalType": "address",
          "name": "spender",
          "type": "address"
        },
        {
          "internalType": "uint256",
          "name": "amount",
          "type": "uint256"
        }
      ],
      "name": "approve",
      "outputs": [
        {
          "internalType": "bool",
          "name": "",
          "type": "bool"
        }
      ],
      "stateMutability": "nonpayable",
      "type": "function"
    },
    {
      "inputs": [
        {
          "internalType": "address",
          "name": "account",
          "type": "address"
        }
      ],
      "name": "balanceOf",
      "outputs": [
        {
          "internalType": "uint256",
          "name": "",
          "type": "uint256"
        }
      ],
      "stateMutability": "view",
      "type": "function"
    },
    {
      "inputs": [],
      "name": "decimals",
      "outputs": [
        {
          "internalType": "uint8",
          "name": "",
          "type": "uint8"
        }
      ],
      "stateMutability": "view",
      "type": "function"
    },
    {
      "inputs": [
        {
          "internalType": "address",
          "name": "spender",
          "type": "address"
        },
        {
          "internalType": "uint256",
          "name": "subtractedValue",
          "type": "uint256"
        }
      ],
      "name": "decreaseAllowance",
      "outputs": [
        {
          "internalType": "bool",
          "name": "",
          "type": "bool"
        }
      ],
      "stateMutability": "nonpayable",
      "type": "function"
    },
    {
      "inputs": [
        {
          "internalType": "address",
          "name": "spender",
          "type": "address"
        },
        {
          "internalType": "uint256",
          "name": "addedValue",
          "type": "uint256"
        }
      ],
      "name": "increaseAllowance",
      "outputs": [
        {
          "internalType": "bool",
          "name": "",
          "type": "bool"
        }
      ],
      "stateMutability": "nonpayable",
      "type": "function"
    },
    {
      "inputs": [],
      "name": "name",
      "outputs": [
        {
          "internalType": "string",
          "name": "",
          "type": "string"
        }
      ],
      "stateMutability": "view",
      "type": "function"
    },
    {
      "inputs": [],
      "name": "symbol",
      "outputs": [
        {
          "internalType": "string",
          "name": "",
          "type": "string"
        }
      ],
      "stateMutability": "view",
      "type": "function"
    },
    {
      "inputs": [],
      "name": "totalSupply",
      "outputs": [
        {
          "internalType": "uint256",
          "name": "",
          "type": "uint256"
        }
      ],
      "stateMutability": "view",
      "type": "function"
    },
    {
      "inputs": [
        {
          "internalType": "address",
          "name": "recipient",
          "type": "address"
        },
        {
          "internalType": "uint256",
          "name": "amount",
          "type": "uint256"
        }
      ],
      "name": "transfer",
      "outputs": [
        {
          "internalType": "bool",
          "name": "",
          "type": "bool"
        }
      ],
      "stateMutability": "nonpayable",
      "type": "function"
    },
    {
      "inputs": [
        {
          "internalType": "address",
          "name": "sender",
          "type": "address"
        },
        {
          "internalType": "address",
          "name": "recipient",
          "type": "address"
        },
        {
          "internalType": "uint256",
          "name": "amount",
          "type": "uint256"
        }
      ],
      "name": "transferFrom",
      "outputs": [
        {
          "internalType": "bool",
          "name": "",
          "type": "bool"
        }
      ],
      "stateMutability": "nonpayable",
      "type": "function"
    },
    {
      "inputs": [
        {
          "internalType": "string",
          "name": "name",
          "type": "string"
        },
        {
          "internalType": "string",
          "name": "symbol",
          "type": "string"
        },
        {
          "internalType": "uint256",
          "name": "initialSupply",
          "type": "uint256"
        },
        {
          "internalType": "uint256",
          "name": "decimals",
          "type": "uint256"
        }
      ],
      "name": "initialize",
      "outputs": [],
      "stateMutability": "nonpayable",
      "type": "function"
    }
  ],
  "bytecode": "0x608060405234801561001057600080fd5b50611df4806100206000396000f3fe608060405234801561001057600080fd5b50600436106100b45760003560e01c80636fe0e395116100715780636fe0e395146101a357806370a08231146101bf57806395d89b41146101ef578063a457c2d71461020d578063a9059cbb1461023d578063dd62ed3e1461026d576100b4565b806306fdde03146100b9578063095ea7b3146100d757806318160ddd1461010757806323b872dd14610125578063313ce567146101555780633950935114610173575b600080fd5b6100c161029d565b6040516100ce9190611806565b60405180910390f35b6100f160048036038101906100ec9190611346565b61032f565b6040516100fe91906117eb565b60405180910390f35b61010f61034d565b60405161011c9190611948565b60405180910390f35b61013f600480360381019061013a91906112f7565b610357565b60405161014c91906117eb565b60405180910390f35b61015d61044f565b60405161016a9190611963565b60405180910390f35b61018d60048036038101906101889190611346565b610458565b60405161019a91906117eb565b60405180910390f35b6101bd60048036038101906101b89190611382565b610504565b005b6101d960048036038101906101d49190611292565b610661565b6040516101e69190611948565b60405180910390f35b6101f76106aa565b6040516102049190611806565b60405180910390f35b61022760048036038101906102229190611346565b61073c565b60405161023491906117eb565b60405180910390f35b61025760048036038101906102529190611346565b610827565b60405161026491906117eb565b60405180910390f35b610287600480360381019061028291906112bb565b610845565b6040516102949190611948565b60405180910390f35b6060603680546102ac90611cb3565b80601f01602080910402602001604051908101604052809291908181526020018280546102d890611cb3565b80156103255780601f106102fa57610100808354040283529160200191610325565b820191906000526020600020905b81548152906001019060200180831161030857829003601f168201915b5050505050905090565b600061034361033c6108cc565b84846108d4565b6001905092915050565b6000603554905090565b6000610364848484610a9f565b6000603460008673ffffffffffffffffffffffffffffffffffffffff1673ffffffffffffffffffffffffffffffffffffffff16815260200190815260200160002060006103af6108cc565b73ffffffffffffffffffffffffffffffffffffffff1673ffffffffffffffffffffffffffffffffffffffff1681526020019081526020016000205490508281101561042f576040517f08c379a0000000000000000000000000000000000000000000000000000000008152600401610426906118a8565b60405180910390fd5b6104438561043b6108cc565b8584036108d4565b60019150509392505050565b60006012905090565b60006104fa6104656108cc565b8484603460006104736108cc565b73ffffffffffffffffffffffffffffffffffffffff1673ffffffffffffffffffffffffffffffffffffffff16815260200190815260200160002060008873ffffffffffffffffffffffffffffffffffffffff1673ffffffffffffffffffffffffffffffffffffffff168152602001908152602001600020546104f591906119fb565b6108d4565b6001905092915050565b600060019054906101000a900460ff168061052a575060008054906101000a900460ff16155b610569576040517f08c379a000000000000000000000000000000000000000000000000000000000815260040161056090611888565b60405180910390fd5b60008060019054906101000a900460ff1615905080156105b9576001600060016101000a81548160ff02191690831515021790555060016000806101000a81548160ff0219169083151502179055505b7f772f66a00a405709c30e7f18feadcc8f123b20c09c7260165d3eec36c9f2137282600a6105e79190611aa4565b846105f29190611bc2565b6040516105ff9190611948565b60405180910390a16106118585610d23565b61063961061c6108cc565b83600a6106299190611aa4565b856106349190611bc2565b610e10565b801561065a5760008060016101000a81548160ff0219169083151502179055505b5050505050565b6000603360008373ffffffffffffffffffffffffffffffffffffffff1673ffffffffffffffffffffffffffffffffffffffff168152602001908152602001600020549050919050565b6060603780546106b990611cb3565b80601f01602080910402602001604051908101604052809291908181526020018280546106e590611cb3565b80156107325780601f1061070757610100808354040283529160200191610732565b820191906000526020600020905b81548152906001019060200180831161071557829003601f168201915b5050505050905090565b6000806034600061074b6108cc565b73ffffffffffffffffffffffffffffffffffffffff1673ffffffffffffffffffffffffffffffffffffffff16815260200190815260200160002060008573ffffffffffffffffffffffffffffffffffffffff1673ffffffffffffffffffffffffffffffffffffffff16815260200190815260200160002054905082811015610808576040517f08c379a00000000000000000000000000000000000000000000000000000000081526004016107ff90611908565b60405180910390fd5b61081c6108136108cc565b858584036108d4565b600191505092915050565b600061083b6108346108cc565b8484610a9f565b6001905092915050565b6000603460008473ffffffffffffffffffffffffffffffffffffffff1673ffffffffffffffffffffffffffffffffffffffff16815260200190815260200160002060008373ffffffffffffffffffffffffffffffffffffffff1673ffffffffffffffffffffffffffffffffffffffff16815260200190815260200160002054905092915050565b600033905090565b600073ffffffffffffffffffffffffffffffffffffffff168373ffffffffffffffffffffffffffffffffffffffff161415610944576040517f08c379a000000000000000000000000000000000000000000000000000000000815260040161093b906118e8565b60405180910390fd5b600073ffffffffffffffffffffffffffffffffffffffff168273ffffffffffffffffffffffffffffffffffffffff1614156109b4576040517f08c379a00000000000000000000000000000000000000000000000000000000081526004016109ab90611848565b60405180910390fd5b80603460008573ffffffffffffffffffffffffffffffffffffffff1673ffffffffffffffffffffffffffffffffffffffff16815260200190815260200160002060008473ffffffffffffffffffffffffffffffffffffffff1673ffffffffffffffffffffffffffffffffffffffff168152602001908152602001600020819055508173ffffffffffffffffffffffffffffffffffffffff168373ffffffffffffffffffffffffffffffffffffffff167f8c5be1e5ebec7d5bd14f71427d1e84f3dd0314c0f7b2291e5b200ac8c7c3b92583604051610a929190611948565b60405180910390a3505050565b600073ffffffffffffffffffffffffffffffffffffffff168373ffffffffffffffffffffffffffffffffffffffff161415610b0f576040517f08c379a0000000000000000000000000000000000000000000000000000000008152600401610b06906118c8565b60405180910390fd5b600073ffffffffffffffffffffffffffffffffffffffff168273ffffffffffffffffffffffffffffffffffffffff161415610b7f576040517f08c379a0000000000000000000000000000000000000000000000000000000008152600401610b7690611828565b60405180910390fd5b610b8a838383610f71565b6000603360008573ffffffffffffffffffffffffffffffffffffffff1673ffffffffffffffffffffffffffffffffffffffff16815260200190815260200160002054905081811015610c11576040517f08c379a0000000000000000000000000000000000000000000000000000000008152600401610c0890611868565b60405180910390fd5b818103603360008673ffffffffffffffffffffffffffffffffffffffff1673ffffffffffffffffffffffffffffffffffffffff1681526020019081526020016000208190555081603360008573ffffffffffffffffffffffffffffffffffffffff1673ffffffffffffffffffffffffffffffffffffffff1681526020019081526020016000206000828254610ca691906119fb565b925050819055508273ffffffffffffffffffffffffffffffffffffffff168473ffffffffffffffffffffffffffffffffffffffff167fddf252ad1be2c89b69c2b068fc378daa952ba7f163c4a11628f55a4df523b3ef84604051610d0a9190611948565b60405180910390a3610d1d848484610f76565b50505050565b600060019054906101000a900460ff1680610d49575060008054906101000a900460ff16155b610d88576040517f08c379a0000000000000000000000000000000000000000000000000000000008152600401610d7f90611888565b60405180910390fd5b60008060019054906101000a900460ff161590508015610dd8576001600060016101000a81548160ff02191690831515021790555060016000806101000a81548160ff0219169083151502179055505b610de0610f7b565b610dea8383611054565b8015610e0b5760008060016101000a81548160ff0219169083151502179055505b505050565b600073ffffffffffffffffffffffffffffffffffffffff168273ffffffffffffffffffffffffffffffffffffffff161415610e80576040517f08c379a0000000000000000000000000000000000000000000000000000000008152600401610e7790611928565b60405180910390fd5b610e8c60008383610f71565b8060356000828254610e9e91906119fb565b9250508190555080603360008473ffffffffffffffffffffffffffffffffffffffff1673ffffffffffffffffffffffffffffffffffffffff1681526020019081526020016000206000828254610ef491906119fb565b925050819055508173ffffffffffffffffffffffffffffffffffffffff16600073ffffffffffffffffffffffffffffffffffffffff167fddf252ad1be2c89b69c2b068fc378daa952ba7f163c4a11628f55a4df523b3ef83604051610f599190611948565b60405180910390a3610f6d60008383610f76565b5050565b505050565b505050565b600060019054906101000a900460ff1680610fa1575060008054906101000a900460ff16155b610fe0576040517f08c379a0000000000000000000000000000000000000000000000000000000008152600401610fd790611888565b60405180910390fd5b60008060019054906101000a900460ff161590508015611030576001600060016101000a81548160ff02191690831515021790555060016000806101000a81548160ff0219169083151502179055505b80156110515760008060016101000a81548160ff0219169083151502179055505b50565b600060019054906101000a900460ff168061107a575060008054906101000a900460ff16155b6110b9576040517f08c379a00000000000000000000000000000000000000000000000000000000081526004016110b090611888565b60405180910390fd5b60008060019054906101000a900460ff161590508015611109576001600060016101000a81548160ff02191690831515021790555060016000806101000a81548160ff0219169083151502179055505b826036908051906020019061111f92919061115d565b50816037908051906020019061113692919061115d565b5080156111585760008060016101000a81548160ff0219169083151502179055505b505050565b82805461116990611cb3565b90600052602060002090601f01602090048101928261118b57600085556111d2565b82601f106111a457805160ff19168380011785556111d2565b828001600101855582156111d2579182015b828111156111d15782518255916020019190600101906111b6565b5b5090506111df91906111e3565b5090565b5b808211156111fc5760008160009055506001016111e4565b5090565b600061121361120e846119af565b61197e565b90508281526020810184848401111561122b57600080fd5b611236848285611c71565b509392505050565b60008135905061124d81611d90565b92915050565b600082601f83011261126457600080fd5b8135611274848260208601611200565b91505092915050565b60008135905061128c81611da7565b92915050565b6000602082840312156112a457600080fd5b60006112b28482850161123e565b91505092915050565b600080604083850312156112ce57600080fd5b60006112dc8582860161123e565b92505060206112ed8582860161123e565b9150509250929050565b60008060006060848603121561130c57600080fd5b600061131a8682870161123e565b935050602061132b8682870161123e565b925050604061133c8682870161127d565b9150509250925092565b6000806040838503121561135957600080fd5b60006113678582860161123e565b92505060206113788582860161127d565b9150509250929050565b6000806000806080858703121561139857600080fd5b600085013567ffffffffffffffff8111156113b257600080fd5b6113be87828801611253565b945050602085013567ffffffffffffffff8111156113db57600080fd5b6113e787828801611253565b93505060406113f88782880161127d565b92505060606114098782880161127d565b91505092959194509250565b61141e81611c2e565b82525050565b600061142f826119df565b61143981856119ea565b9350611449818560208601611c80565b61145281611d72565b840191505092915050565b600061146a6023836119ea565b91507f45524332303a207472616e7366657220746f20746865207a65726f206164647260008301527f65737300000000000000000000000000000000000000000000000000000000006020830152604082019050919050565b60006114d06022836119ea565b91507f45524332303a20617070726f766520746f20746865207a65726f20616464726560008301527f73730000000000000000000000000000000000000000000000000000000000006020830152604082019050919050565b60006115366026836119ea565b91507f45524332303a207472616e7366657220616d6f756e742065786365656473206260008301527f616c616e636500000000000000000000000000000000000000000000000000006020830152604082019050919050565b600061159c602e836119ea565b91507f496e697469616c697a61626c653a20636f6e747261637420697320616c72656160008301527f647920696e697469616c697a65640000000000000000000000000000000000006020830152604082019050919050565b60006116026028836119ea565b91507f45524332303a207472616e7366657220616d6f756e742065786365656473206160008301527f6c6c6f77616e63650000000000000000000000000000000000000000000000006020830152604082019050919050565b60006116686025836119ea565b91507f45524332303a207472616e736665722066726f6d20746865207a65726f20616460008301527f64726573730000000000000000000000000000000000000000000000000000006020830152604082019050919050565b60006116ce6024836119ea565b91507f45524332303a20617070726f76652066726f6d20746865207a65726f2061646460008301527f72657373000000000000000000000000000000000000000000000000000000006020830152604082019050919050565b60006117346025836119ea565b91507f45524332303a2064656372656173656420616c6c6f77616e63652062656c6f7760008301527f207a65726f0000000000000000000000000000000000000000000000000000006020830152604082019050919050565b600061179a601f836119ea565b91507f45524332303a206d696e7420746f20746865207a65726f2061646472657373006000830152602082019050919050565b6117d681611c5a565b82525050565b6117e581611c64565b82525050565b60006020820190506118006000830184611415565b92915050565b600060208201905081810360008301526118208184611424565b905092915050565b600060208201905081810360008301526118418161145d565b9050919050565b60006020820190508181036000830152611861816114c3565b9050919050565b6000602082019050818103600083015261188181611529565b9050919050565b600060208201905081810360008301526118a18161158f565b9050919050565b600060208201905081810360008301526118c1816115f5565b9050919050565b600060208201905081810360008301526118e18161165b565b9050919050565b60006020820190508181036000830152611901816116c1565b9050919050565b6000602082019050818103600083015261192181611727565b9050919050565b600060208201905081810360008301526119418161178d565b9050919050565b600060208201905061195d60008301846117cd565b92915050565b600060208201905061197860008301846117dc565b92915050565b6000604051905081810181811067ffffffffffffffff821117156119a5576119a4611d43565b5b8060405250919050565b600067ffffffffffffffff8211156119ca576119c9611d43565b5b601f19601f8301169050602081019050919050565b600081519050919050565b600082825260208201905092915050565b6000611a0682611c5a565b9150611a1183611c5a565b9250827fffffffffffffffffffffffffffffffffffffffffffffffffffffffffffffffff03821115611a4657611a45611ce5565b5b828201905092915050565b6000808291508390505b6001851115611a9b57808604811115611a7757611a76611ce5565b5b6001851615611a865780820291505b8081029050611a9485611d83565b9450611a5b565b94509492505050565b6000611aaf82611c5a565b9150611aba83611c5a565b9250611ae77fffffffffffffffffffffffffffffffffffffffffffffffffffffffffffffffff8484611aef565b905092915050565b600082611aff5760019050611bbb565b81611b0d5760009050611bbb565b8160018114611b235760028114611b2d57611b5c565b6001915050611bbb565b60ff841115611b3f57611b3e611ce5565b5b8360020a915084821115611b5657611b55611ce5565b5b50611bbb565b5060208310610133831016604e8410600b8410161715611b915782820a905083811115611b8c57611b8b611ce5565b5b611bbb565b611b9e8484846001611a51565b92509050818404811115611bb557611bb4611ce5565b5b81810290505b9392505050565b6000611bcd82611c5a565b9150611bd883611c5a565b9250817fffffffffffffffffffffffffffffffffffffffffffffffffffffffffffffffff0483118215151615611c1157611c10611ce5565b5b828202905092915050565b6000611c2782611c3a565b9050919050565b60008115159050919050565b600073ffffffffffffffffffffffffffffffffffffffff82169050919050565b6000819050919050565b600060ff82169050919050565b82818337600083830152505050565b60005b83811015611c9e578082015181840152602081019050611c83565b83811115611cad576000848401525b50505050565b60006002820490506001821680611ccb57607f821691505b60208210811415611cdf57611cde611d14565b5b50919050565b7f4e487b7100000000000000000000000000000000000000000000000000000000600052601160045260246000fd5b7f4e487b7100000000000000000000000000000000000000000000000000000000600052602260045260246000fd5b7f4e487b7100000000000000000000000000000000000000000000000000000000600052604160045260246000fd5b6000601f19601f8301169050919050565b60008160011c9050919050565b611d9981611c1c565b8114611da457600080fd5b50565b611db081611c5a565b8114611dbb57600080fd5b5056fea2646970667358221220b4a615d21a267666c24710ad93879f125d3f4e8957fb768368bcb1abeb1c170464736f6c63430008000033",
  "immutableReferences": {},
  "source": "// SPDX-License-Identifier: MIT\r\npragma solidity ^0.8.0;\r\n\r\nimport '@openzeppelin/contracts-upgradeable/token/ERC20/ERC20Upgradeable.sol';\r\nimport '@openzeppelin/contracts-upgradeable/proxy/utils/Initializable.sol';\r\n\r\n// import \"truffle/Console.sol\";\r\n\r\ncontract MyUpgradeableToken is Initializable, ERC20Upgradeable {\r\n    event TokensMinted(uint256 total);\r\n\r\n    function initialize(\r\n        string memory name,\r\n        string memory symbol,\r\n        uint256 initialSupply,\r\n        uint256 decimals\r\n    ) public virtual initializer {\r\n        emit TokensMinted(initialSupply * 10**decimals);\r\n        __ERC20_init(name, symbol);\r\n        _mint(_msgSender(), initialSupply * 10**decimals);\r\n    }\r\n}\r\n",
  "sourcePath": "C:\\Users\\Owner\\Dropbox\\general\\dev\\web\\projects\\100 - blockchain\\Second blockchain project\\s06-tokenisation\\contracts\\MyUpgradeableToken.sol",
  "compiler": {
    "name": "solc",
    "version": "0.8.0+commit.c7dfd78e.Emscripten.clang"
  },
  "schemaVersion": "3.4.2",
  "updatedAt": "2021-09-29T13:28:37.773Z",
  "devdoc": {
    "kind": "dev",
    "methods": {
      "allowance(address,address)": {
        "details": "See {IERC20-allowance}."
      },
      "approve(address,uint256)": {
        "details": "See {IERC20-approve}. Requirements: - `spender` cannot be the zero address."
      },
      "balanceOf(address)": {
        "details": "See {IERC20-balanceOf}."
      },
      "decimals()": {
        "details": "Returns the number of decimals used to get its user representation. For example, if `decimals` equals `2`, a balance of `505` tokens should be displayed to a user as `5.05` (`505 / 10 ** 2`). Tokens usually opt for a value of 18, imitating the relationship between Ether and Wei. This is the value {ERC20} uses, unless this function is overridden; NOTE: This information is only used for _display_ purposes: it in no way affects any of the arithmetic of the contract, including {IERC20-balanceOf} and {IERC20-transfer}."
      },
      "decreaseAllowance(address,uint256)": {
        "details": "Atomically decreases the allowance granted to `spender` by the caller. This is an alternative to {approve} that can be used as a mitigation for problems described in {IERC20-approve}. Emits an {Approval} event indicating the updated allowance. Requirements: - `spender` cannot be the zero address. - `spender` must have allowance for the caller of at least `subtractedValue`."
      },
      "increaseAllowance(address,uint256)": {
        "details": "Atomically increases the allowance granted to `spender` by the caller. This is an alternative to {approve} that can be used as a mitigation for problems described in {IERC20-approve}. Emits an {Approval} event indicating the updated allowance. Requirements: - `spender` cannot be the zero address."
      },
      "name()": {
        "details": "Returns the name of the token."
      },
      "symbol()": {
        "details": "Returns the symbol of the token, usually a shorter version of the name."
      },
      "totalSupply()": {
        "details": "See {IERC20-totalSupply}."
      },
      "transfer(address,uint256)": {
        "details": "See {IERC20-transfer}. Requirements: - `recipient` cannot be the zero address. - the caller must have a balance of at least `amount`."
      },
      "transferFrom(address,address,uint256)": {
        "details": "See {IERC20-transferFrom}. Emits an {Approval} event indicating the updated allowance. This is not required by the EIP. See the note at the beginning of {ERC20}. Requirements: - `sender` and `recipient` cannot be the zero address. - `sender` must have a balance of at least `amount`. - the caller must have allowance for ``sender``'s tokens of at least `amount`."
      }
    },
    "version": 1
  },
  "userdoc": {
    "kind": "user",
    "methods": {},
    "version": 1
  }
}