{
  "contractName": "MyUpgradeableContract",
  "abi": [
    {
      "anonymous": false,
      "inputs": [
        {
          "indexed": true,
          "internalType": "address",
          "name": "previousOwner",
          "type": "address"
        },
        {
          "indexed": true,
          "internalType": "address",
          "name": "newOwner",
          "type": "address"
        }
      ],
      "name": "OwnershipTransferred",
      "type": "event"
    },
    {
      "inputs": [],
      "name": "owner",
      "outputs": [
        {
          "internalType": "address",
          "name": "",
          "type": "address"
        }
      ],
      "stateMutability": "view",
      "type": "function"
    },
    {
      "inputs": [],
      "name": "renounceOwnership",
      "outputs": [],
      "stateMutability": "nonpayable",
      "type": "function"
    },
    {
      "inputs": [],
      "name": "token",
      "outputs": [
        {
          "internalType": "contract IERC20Upgradeable",
          "name": "",
          "type": "address"
        }
      ],
      "stateMutability": "view",
      "type": "function"
    },
    {
      "inputs": [
        {
          "internalType": "address",
          "name": "newOwner",
          "type": "address"
        }
      ],
      "name": "transferOwnership",
      "outputs": [],
      "stateMutability": "nonpayable",
      "type": "function"
    },
    {
      "inputs": [
        {
          "internalType": "contract IERC20Upgradeable",
          "name": "_token",
          "type": "address"
        }
      ],
      "name": "initialize",
      "outputs": [],
      "stateMutability": "nonpayable",
      "type": "function"
    },
    {
      "inputs": [],
      "name": "getTokenAddress",
      "outputs": [
        {
          "internalType": "address",
          "name": "",
          "type": "address"
        }
      ],
      "stateMutability": "view",
      "type": "function"
    }
  ],
  "bytecode": "0x608060405234801561001057600080fd5b5061096c806100206000396000f3fe608060405234801561001057600080fd5b50600436106100625760003560e01c806310fe9ae814610067578063715018a6146100855780638da5cb5b1461008f578063c4d66de8146100ad578063f2fde38b146100c9578063fc0c546a146100e5575b600080fd5b61006f610103565b60405161007c91906107f9565b60405180910390f35b61008d6101a9565b005b610097610231565b6040516100a491906107f9565b60405180910390f35b6100c760048036038101906100c291906106a6565b61025b565b005b6100e360048036038101906100de919061067d565b61037e565b005b6100ed610476565b6040516100fa9190610814565b60405180910390f35b600061010d61049c565b73ffffffffffffffffffffffffffffffffffffffff1661012b610231565b73ffffffffffffffffffffffffffffffffffffffff1614610181576040517f08c379a00000000000000000000000000000000000000000000000000000000081526004016101789061086f565b60405180910390fd5b606560009054906101000a900473ffffffffffffffffffffffffffffffffffffffff16905090565b6101b161049c565b73ffffffffffffffffffffffffffffffffffffffff166101cf610231565b73ffffffffffffffffffffffffffffffffffffffff1614610225576040517f08c379a000000000000000000000000000000000000000000000000000000000815260040161021c9061086f565b60405180910390fd5b61022f60006104a4565b565b6000603360009054906101000a900473ffffffffffffffffffffffffffffffffffffffff16905090565b600060019054906101000a900460ff1680610281575060008054906101000a900460ff16155b6102c0576040517f08c379a00000000000000000000000000000000000000000000000000000000081526004016102b79061084f565b60405180910390fd5b60008060019054906101000a900460ff161590508015610310576001600060016101000a81548160ff02191690831515021790555060016000806101000a81548160ff0219169083151502179055505b61031861056a565b81606560006101000a81548173ffffffffffffffffffffffffffffffffffffffff021916908373ffffffffffffffffffffffffffffffffffffffff160217905550801561037a5760008060016101000a81548160ff0219169083151502179055505b5050565b61038661049c565b73ffffffffffffffffffffffffffffffffffffffff166103a4610231565b73ffffffffffffffffffffffffffffffffffffffff16146103fa576040517f08c379a00000000000000000000000000000000000000000000000000000000081526004016103f19061086f565b60405180910390fd5b600073ffffffffffffffffffffffffffffffffffffffff168173ffffffffffffffffffffffffffffffffffffffff16141561046a576040517f08c379a00000000000000000000000000000000000000000000000000000000081526004016104619061082f565b60405180910390fd5b610473816104a4565b50565b606560009054906101000a900473ffffffffffffffffffffffffffffffffffffffff1681565b600033905090565b6000603360009054906101000a900473ffffffffffffffffffffffffffffffffffffffff16905081603360006101000a81548173ffffffffffffffffffffffffffffffffffffffff021916908373ffffffffffffffffffffffffffffffffffffffff1602179055508173ffffffffffffffffffffffffffffffffffffffff168173ffffffffffffffffffffffffffffffffffffffff167f8be0079c531659141344cd1fd0a4f28419497f9722a3daafe3b4186f6b6457e060405160405180910390a35050565b600060019054906101000a900460ff1680610590575060008054906101000a900460ff16155b6105cf576040517f08c379a00000000000000000000000000000000000000000000000000000000081526004016105c69061084f565b60405180910390fd5b60008060019054906101000a900460ff16159050801561061f576001600060016101000a81548160ff02191690831515021790555060016000806101000a81548160ff0219169083151502179055505b61062f61062a61049c565b6104a4565b80156106505760008060016101000a81548160ff0219169083151502179055505b50565b60008135905061066281610908565b92915050565b6000813590506106778161091f565b92915050565b60006020828403121561068f57600080fd5b600061069d84828501610653565b91505092915050565b6000602082840312156106b857600080fd5b60006106c684828501610668565b91505092915050565b6106d8816108a0565b82525050565b6106e7816108e4565b82525050565b60006106fa60268361088f565b91507f4f776e61626c653a206e6577206f776e657220697320746865207a65726f206160008301527f64647265737300000000000000000000000000000000000000000000000000006020830152604082019050919050565b6000610760602e8361088f565b91507f496e697469616c697a61626c653a20636f6e747261637420697320616c72656160008301527f647920696e697469616c697a65640000000000000000000000000000000000006020830152604082019050919050565b60006107c660208361088f565b91507f4f776e61626c653a2063616c6c6572206973206e6f7420746865206f776e65726000830152602082019050919050565b600060208201905061080e60008301846106cf565b92915050565b600060208201905061082960008301846106de565b92915050565b60006020820190508181036000830152610848816106ed565b9050919050565b6000602082019050818103600083015261086881610753565b9050919050565b60006020820190508181036000830152610888816107b9565b9050919050565b600082825260208201905092915050565b60006108ab826108c4565b9050919050565b60006108bd826108a0565b9050919050565b600073ffffffffffffffffffffffffffffffffffffffff82169050919050565b60006108ef826108f6565b9050919050565b6000610901826108c4565b9050919050565b610911816108a0565b811461091c57600080fd5b50565b610928816108b2565b811461093357600080fd5b5056fea2646970667358221220e77f9572fcb8c6b0efc8de0d6a99ea1543adfbdf23b5dd97ea72323e5a6bc74c64736f6c63430008000033",
  "immutableReferences": {},
  "source": "// SPDX-License-Identifier: MIT\r\npragma solidity ^0.8.0;\r\n\r\nimport '@openzeppelin/contracts-upgradeable/proxy/utils/Initializable.sol';\r\nimport '@openzeppelin/contracts-upgradeable/token/ERC20/IERC20Upgradeable.sol';\r\nimport '@openzeppelin/contracts-upgradeable/access/OwnableUpgradeable.sol';\r\n\r\ncontract MyUpgradeableContract is Initializable, OwnableUpgradeable {\r\n    IERC20Upgradeable public token;\r\n\r\n    function initialize(IERC20Upgradeable _token) public initializer {\r\n        __Ownable_init_unchained();\r\n        token = _token;\r\n    }\r\n\r\n    function getTokenAddress() public view onlyOwner returns (address) {\r\n        return address(token);\r\n    }\r\n}\r\n",
  "sourcePath": "C:\\Users\\Owner\\Dropbox\\general\\dev\\web\\projects\\100 - blockchain\\Second blockchain project\\s06-tokenisation\\contracts\\MyUpgradeableContract.sol",
  "compiler": {
    "name": "solc",
    "version": "0.8.0+commit.c7dfd78e.Emscripten.clang"
  },
  "schemaVersion": "3.4.2",
  "updatedAt": "2021-09-28T10:48:20.332Z",
  "devdoc": {
    "kind": "dev",
    "methods": {
      "owner()": {
        "details": "Returns the address of the current owner."
      },
      "renounceOwnership()": {
        "details": "Leaves the contract without owner. It will not be possible to call `onlyOwner` functions anymore. Can only be called by the current owner. NOTE: Renouncing ownership will leave the contract without an owner, thereby removing any functionality that is only available to the owner."
      },
      "transferOwnership(address)": {
        "details": "Transfers ownership of the contract to a new account (`newOwner`). Can only be called by the current owner."
      }
    },
    "version": 1
  },
  "userdoc": {
    "kind": "user",
    "methods": {},
    "version": 1
  }
}