{
  "contractName": "MyUpgradeableContractV2",
  "abi": [
    {
      "anonymous": false,
      "inputs": [
        {
          "indexed": true,
          "internalType": "address",
          "name": "previousOwner",
          "type": "address"
        },
        {
          "indexed": true,
          "internalType": "address",
          "name": "newOwner",
          "type": "address"
        }
      ],
      "name": "OwnershipTransferred",
      "type": "event"
    },
    {
      "inputs": [],
      "name": "getTokenAddress",
      "outputs": [
        {
          "internalType": "address",
          "name": "",
          "type": "address"
        }
      ],
      "stateMutability": "view",
      "type": "function"
    },
    {
      "inputs": [
        {
          "internalType": "contract IERC20Upgradeable",
          "name": "_token",
          "type": "address"
        }
      ],
      "name": "initialize",
      "outputs": [],
      "stateMutability": "nonpayable",
      "type": "function"
    },
    {
      "inputs": [],
      "name": "owner",
      "outputs": [
        {
          "internalType": "address",
          "name": "",
          "type": "address"
        }
      ],
      "stateMutability": "view",
      "type": "function"
    },
    {
      "inputs": [],
      "name": "renounceOwnership",
      "outputs": [],
      "stateMutability": "nonpayable",
      "type": "function"
    },
    {
      "inputs": [],
      "name": "token",
      "outputs": [
        {
          "internalType": "contract IERC20Upgradeable",
          "name": "",
          "type": "address"
        }
      ],
      "stateMutability": "view",
      "type": "function"
    },
    {
      "inputs": [
        {
          "internalType": "address",
          "name": "newOwner",
          "type": "address"
        }
      ],
      "name": "transferOwnership",
      "outputs": [],
      "stateMutability": "nonpayable",
      "type": "function"
    },
    {
      "inputs": [],
      "name": "value",
      "outputs": [
        {
          "internalType": "uint8",
          "name": "",
          "type": "uint8"
        }
      ],
      "stateMutability": "view",
      "type": "function"
    }
  ],
  "bytecode": "0x608060405234801561001057600080fd5b50610a0b806100206000396000f3fe608060405234801561001057600080fd5b506004361061007d5760003560e01c80638da5cb5b1161005b5780638da5cb5b146100c8578063c4d66de8146100e6578063f2fde38b14610102578063fc0c546a1461011e5761007d565b806310fe9ae8146100825780633fa4f245146100a0578063715018a6146100be575b600080fd5b61008a61013c565b6040516100979190610870565b60405180910390f35b6100a86101e2565b6040516100b59190610906565b60405180910390f35b6100c66101f5565b005b6100d061027d565b6040516100dd9190610870565b60405180910390f35b61010060048036038101906100fb919061070e565b6102a7565b005b61011c600480360381019061011791906106e5565b6103e6565b005b6101266104de565b604051610133919061088b565b60405180910390f35b6000610146610504565b73ffffffffffffffffffffffffffffffffffffffff1661016461027d565b73ffffffffffffffffffffffffffffffffffffffff16146101ba576040517f08c379a00000000000000000000000000000000000000000000000000000000081526004016101b1906108e6565b60405180910390fd5b606560009054906101000a900473ffffffffffffffffffffffffffffffffffffffff16905090565b606560149054906101000a900460ff1681565b6101fd610504565b73ffffffffffffffffffffffffffffffffffffffff1661021b61027d565b73ffffffffffffffffffffffffffffffffffffffff1614610271576040517f08c379a0000000000000000000000000000000000000000000000000000000008152600401610268906108e6565b60405180910390fd5b61027b600061050c565b565b6000603360009054906101000a900473ffffffffffffffffffffffffffffffffffffffff16905090565b600060019054906101000a900460ff16806102cd575060008054906101000a900460ff16155b61030c576040517f08c379a0000000000000000000000000000000000000000000000000000000008152600401610303906108c6565b60405180910390fd5b60008060019054906101000a900460ff16159050801561035c576001600060016101000a81548160ff02191690831515021790555060016000806101000a81548160ff0219169083151502179055505b6103646105d2565b81606560006101000a81548173ffffffffffffffffffffffffffffffffffffffff021916908373ffffffffffffffffffffffffffffffffffffffff160217905550602a606560146101000a81548160ff021916908360ff16021790555080156103e25760008060016101000a81548160ff0219169083151502179055505b5050565b6103ee610504565b73ffffffffffffffffffffffffffffffffffffffff1661040c61027d565b73ffffffffffffffffffffffffffffffffffffffff1614610462576040517f08c379a0000000000000000000000000000000000000000000000000000000008152600401610459906108e6565b60405180910390fd5b600073ffffffffffffffffffffffffffffffffffffffff168173ffffffffffffffffffffffffffffffffffffffff1614156104d2576040517f08c379a00000000000000000000000000000000000000000000000000000000081526004016104c9906108a6565b60405180910390fd5b6104db8161050c565b50565b606560009054906101000a900473ffffffffffffffffffffffffffffffffffffffff1681565b600033905090565b6000603360009054906101000a900473ffffffffffffffffffffffffffffffffffffffff16905081603360006101000a81548173ffffffffffffffffffffffffffffffffffffffff021916908373ffffffffffffffffffffffffffffffffffffffff1602179055508173ffffffffffffffffffffffffffffffffffffffff168173ffffffffffffffffffffffffffffffffffffffff167f8be0079c531659141344cd1fd0a4f28419497f9722a3daafe3b4186f6b6457e060405160405180910390a35050565b600060019054906101000a900460ff16806105f8575060008054906101000a900460ff16155b610637576040517f08c379a000000000000000000000000000000000000000000000000000000000815260040161062e906108c6565b60405180910390fd5b60008060019054906101000a900460ff161590508015610687576001600060016101000a81548160ff02191690831515021790555060016000806101000a81548160ff0219169083151502179055505b610697610692610504565b61050c565b80156106b85760008060016101000a81548160ff0219169083151502179055505b50565b6000813590506106ca816109a7565b92915050565b6000813590506106df816109be565b92915050565b6000602082840312156106f757600080fd5b6000610705848285016106bb565b91505092915050565b60006020828403121561072057600080fd5b600061072e848285016106d0565b91505092915050565b61074081610932565b82525050565b61074f81610983565b82525050565b6000610762602683610921565b91507f4f776e61626c653a206e6577206f776e657220697320746865207a65726f206160008301527f64647265737300000000000000000000000000000000000000000000000000006020830152604082019050919050565b60006107c8602e83610921565b91507f496e697469616c697a61626c653a20636f6e747261637420697320616c72656160008301527f647920696e697469616c697a65640000000000000000000000000000000000006020830152604082019050919050565b600061082e602083610921565b91507f4f776e61626c653a2063616c6c6572206973206e6f7420746865206f776e65726000830152602082019050919050565b61086a81610976565b82525050565b60006020820190506108856000830184610737565b92915050565b60006020820190506108a06000830184610746565b92915050565b600060208201905081810360008301526108bf81610755565b9050919050565b600060208201905081810360008301526108df816107bb565b9050919050565b600060208201905081810360008301526108ff81610821565b9050919050565b600060208201905061091b6000830184610861565b92915050565b600082825260208201905092915050565b600061093d82610956565b9050919050565b600061094f82610932565b9050919050565b600073ffffffffffffffffffffffffffffffffffffffff82169050919050565b600060ff82169050919050565b600061098e82610995565b9050919050565b60006109a082610956565b9050919050565b6109b081610932565b81146109bb57600080fd5b50565b6109c781610944565b81146109d257600080fd5b5056fea2646970667358221220c040337b315a08135e81e5cd59ceb3470ede88532fce9484e8f62e96acd585e864736f6c63430008000033",
  "immutableReferences": {},
  "source": "// SPDX-License-Identifier: MIT\r\npragma solidity ^0.8.0;\r\n\r\nimport './MyUpgradeableContract.sol';\r\n\r\ncontract MyUpgradeableContractV2 is MyUpgradeableContract {}\r\n",
  "sourcePath": "C:\\Users\\Owner\\Dropbox\\general\\dev\\web\\projects\\100 - blockchain\\Second blockchain project\\s06-tokenisation\\contracts\\MyUpgradeableContractV2.sol",
  "compiler": {
    "name": "solc",
    "version": "0.8.0+commit.c7dfd78e.Emscripten.clang"
  },
  "schemaVersion": "3.4.2",
  "updatedAt": "2021-10-04T11:20:51.516Z",
  "devdoc": {
    "kind": "dev",
    "methods": {
      "owner()": {
        "details": "Returns the address of the current owner."
      },
      "renounceOwnership()": {
        "details": "Leaves the contract without owner. It will not be possible to call `onlyOwner` functions anymore. Can only be called by the current owner. NOTE: Renouncing ownership will leave the contract without an owner, thereby removing any functionality that is only available to the owner."
      },
      "transferOwnership(address)": {
        "details": "Transfers ownership of the contract to a new account (`newOwner`). Can only be called by the current owner."
      }
    },
    "version": 1
  },
  "userdoc": {
    "kind": "user",
    "methods": {},
    "version": 1
  }
}