{
  "contractName": "MyUpgradeableToken",
  "abi": [
    {
      "anonymous": false,
      "inputs": [
        {
          "indexed": true,
          "internalType": "address",
          "name": "owner",
          "type": "address"
        },
        {
          "indexed": true,
          "internalType": "address",
          "name": "spender",
          "type": "address"
        },
        {
          "indexed": false,
          "internalType": "uint256",
          "name": "value",
          "type": "uint256"
        }
      ],
      "name": "Approval",
      "type": "event"
    },
    {
      "anonymous": false,
      "inputs": [
        {
          "indexed": false,
          "internalType": "uint256",
          "name": "total",
          "type": "uint256"
        }
      ],
      "name": "TokensMinted",
      "type": "event"
    },
    {
      "anonymous": false,
      "inputs": [
        {
          "indexed": true,
          "internalType": "address",
          "name": "from",
          "type": "address"
        },
        {
          "indexed": true,
          "internalType": "address",
          "name": "to",
          "type": "address"
        },
        {
          "indexed": false,
          "internalType": "uint256",
          "name": "value",
          "type": "uint256"
        }
      ],
      "name": "Transfer",
      "type": "event"
    },
    {
      "inputs": [
        {
          "internalType": "address",
          "name": "owner",
          "type": "address"
        },
        {
          "internalType": "address",
          "name": "spender",
          "type": "address"
        }
      ],
      "name": "allowance",
      "outputs": [
        {
          "internalType": "uint256",
          "name": "",
          "type": "uint256"
        }
      ],
      "stateMutability": "view",
      "type": "function"
    },
    {
      "inputs": [
        {
          "internalType": "address",
          "name": "spender",
          "type": "address"
        },
        {
          "internalType": "uint256",
          "name": "amount",
          "type": "uint256"
        }
      ],
      "name": "approve",
      "outputs": [
        {
          "internalType": "bool",
          "name": "",
          "type": "bool"
        }
      ],
      "stateMutability": "nonpayable",
      "type": "function"
    },
    {
      "inputs": [
        {
          "internalType": "address",
          "name": "account",
          "type": "address"
        }
      ],
      "name": "balanceOf",
      "outputs": [
        {
          "internalType": "uint256",
          "name": "",
          "type": "uint256"
        }
      ],
      "stateMutability": "view",
      "type": "function"
    },
    {
      "inputs": [],
      "name": "decimals",
      "outputs": [
        {
          "internalType": "uint8",
          "name": "",
          "type": "uint8"
        }
      ],
      "stateMutability": "view",
      "type": "function"
    },
    {
      "inputs": [
        {
          "internalType": "address",
          "name": "spender",
          "type": "address"
        },
        {
          "internalType": "uint256",
          "name": "subtractedValue",
          "type": "uint256"
        }
      ],
      "name": "decreaseAllowance",
      "outputs": [
        {
          "internalType": "bool",
          "name": "",
          "type": "bool"
        }
      ],
      "stateMutability": "nonpayable",
      "type": "function"
    },
    {
      "inputs": [
        {
          "internalType": "address",
          "name": "spender",
          "type": "address"
        },
        {
          "internalType": "uint256",
          "name": "addedValue",
          "type": "uint256"
        }
      ],
      "name": "increaseAllowance",
      "outputs": [
        {
          "internalType": "bool",
          "name": "",
          "type": "bool"
        }
      ],
      "stateMutability": "nonpayable",
      "type": "function"
    },
    {
      "inputs": [],
      "name": "name",
      "outputs": [
        {
          "internalType": "string",
          "name": "",
          "type": "string"
        }
      ],
      "stateMutability": "view",
      "type": "function"
    },
    {
      "inputs": [],
      "name": "symbol",
      "outputs": [
        {
          "internalType": "string",
          "name": "",
          "type": "string"
        }
      ],
      "stateMutability": "view",
      "type": "function"
    },
    {
      "inputs": [],
      "name": "totalSupply",
      "outputs": [
        {
          "internalType": "uint256",
          "name": "",
          "type": "uint256"
        }
      ],
      "stateMutability": "view",
      "type": "function"
    },
    {
      "inputs": [
        {
          "internalType": "address",
          "name": "recipient",
          "type": "address"
        },
        {
          "internalType": "uint256",
          "name": "amount",
          "type": "uint256"
        }
      ],
      "name": "transfer",
      "outputs": [
        {
          "internalType": "bool",
          "name": "",
          "type": "bool"
        }
      ],
      "stateMutability": "nonpayable",
      "type": "function"
    },
    {
      "inputs": [
        {
          "internalType": "address",
          "name": "sender",
          "type": "address"
        },
        {
          "internalType": "address",
          "name": "recipient",
          "type": "address"
        },
        {
          "internalType": "uint256",
          "name": "amount",
          "type": "uint256"
        }
      ],
      "name": "transferFrom",
      "outputs": [
        {
          "internalType": "bool",
          "name": "",
          "type": "bool"
        }
      ],
      "stateMutability": "nonpayable",
      "type": "function"
    },
    {
      "inputs": [
        {
          "internalType": "string",
          "name": "name",
          "type": "string"
        },
        {
          "internalType": "string",
          "name": "symbol",
          "type": "string"
        },
        {
          "internalType": "uint256",
          "name": "initialSupply",
          "type": "uint256"
        },
        {
          "internalType": "uint256",
          "name": "decimals",
          "type": "uint256"
        }
      ],
      "name": "initialize",
      "outputs": [],
      "stateMutability": "nonpayable",
      "type": "function"
    }
  ],
  "bytecode": "0x608060405234801561001057600080fd5b50611108806100206000396000f3fe608060405234801561001057600080fd5b50600436106100d45760003560e01c80636fe0e39511610081578063a457c2d71161005b578063a457c2d714610191578063a9059cbb146101a4578063dd62ed3e146101b7576100d4565b80636fe0e3951461016157806370a082311461017657806395d89b4114610189576100d4565b806323b872dd116100b257806323b872dd1461012c578063313ce5671461013f578063395093511461014e576100d4565b806306fdde03146100d9578063095ea7b3146100f757806318160ddd1461011a575b600080fd5b6100e16101f0565b6040516100ee9190610ecd565b60405180910390f35b61010a610105366004610e33565b610282565b60405190151581526020016100ee565b6035545b6040519081526020016100ee565b61010a61013a366004610df8565b610298565b604051601281526020016100ee565b61010a61015c366004610e33565b61035e565b61017461016f366004610e5c565b61039a565b005b61011e610184366004610dac565b6104c9565b6100e16104e8565b61010a61019f366004610e33565b6104f7565b61010a6101b2366004610e33565b6105a8565b61011e6101c5366004610dc6565b6001600160a01b03918216600090815260346020908152604080832093909416825291909152205490565b6060603680546101ff9061106b565b80601f016020809104026020016040519081016040528092919081815260200182805461022b9061106b565b80156102785780601f1061024d57610100808354040283529160200191610278565b820191906000526020600020905b81548152906001019060200180831161025b57829003601f168201915b5050505050905090565b600061028f3384846105b5565b50600192915050565b60006102a584848461070d565b6001600160a01b0384166000908152603460209081526040808320338452909152902054828110156103445760405162461bcd60e51b815260206004820152602860248201527f45524332303a207472616e7366657220616d6f756e742065786365656473206160448201527f6c6c6f77616e636500000000000000000000000000000000000000000000000060648201526084015b60405180910390fd5b61035185338584036105b5565b60019150505b9392505050565b3360008181526034602090815260408083206001600160a01b0387168452909152812054909161028f918590610395908690610f20565b6105b5565b600054610100900460ff16806103b3575060005460ff16155b6104165760405162461bcd60e51b815260206004820152602e60248201527f496e697469616c697a61626c653a20636f6e747261637420697320616c72656160448201526d191e481a5b9a5d1a585b1a5e995960921b606482015260840161033b565b600054610100900460ff16158015610441576000805460ff1961ff0019909116610100171660011790555b7f772f66a00a405709c30e7f18feadcc8f123b20c09c7260165d3eec36c9f2137261046d83600a610f7e565b610477908561104c565b60405190815260200160405180910390a16104928585610925565b6104b0336104a184600a610f7e565b6104ab908661104c565b6109f5565b80156104c2576000805461ff00191690555b5050505050565b6001600160a01b0381166000908152603360205260409020545b919050565b6060603780546101ff9061106b565b3360009081526034602090815260408083206001600160a01b0386168452909152812054828110156105915760405162461bcd60e51b815260206004820152602560248201527f45524332303a2064656372656173656420616c6c6f77616e63652062656c6f7760448201527f207a65726f000000000000000000000000000000000000000000000000000000606482015260840161033b565b61059e33858584036105b5565b5060019392505050565b600061028f33848461070d565b6001600160a01b0383166106305760405162461bcd60e51b8152602060048201526024808201527f45524332303a20617070726f76652066726f6d20746865207a65726f2061646460448201527f7265737300000000000000000000000000000000000000000000000000000000606482015260840161033b565b6001600160a01b0382166106ac5760405162461bcd60e51b815260206004820152602260248201527f45524332303a20617070726f766520746f20746865207a65726f20616464726560448201527f7373000000000000000000000000000000000000000000000000000000000000606482015260840161033b565b6001600160a01b0383811660008181526034602090815260408083209487168084529482529182902085905590518481527f8c5be1e5ebec7d5bd14f71427d1e84f3dd0314c0f7b2291e5b200ac8c7c3b925910160405180910390a3505050565b6001600160a01b0383166107895760405162461bcd60e51b815260206004820152602560248201527f45524332303a207472616e736665722066726f6d20746865207a65726f20616460448201527f6472657373000000000000000000000000000000000000000000000000000000606482015260840161033b565b6001600160a01b0382166108055760405162461bcd60e51b815260206004820152602360248201527f45524332303a207472616e7366657220746f20746865207a65726f206164647260448201527f6573730000000000000000000000000000000000000000000000000000000000606482015260840161033b565b6001600160a01b038316600090815260336020526040902054818110156108945760405162461bcd60e51b815260206004820152602660248201527f45524332303a207472616e7366657220616d6f756e742065786365656473206260448201527f616c616e63650000000000000000000000000000000000000000000000000000606482015260840161033b565b6001600160a01b038085166000908152603360205260408082208585039055918516815290812080548492906108cb908490610f20565b92505081905550826001600160a01b0316846001600160a01b03167fddf252ad1be2c89b69c2b068fc378daa952ba7f163c4a11628f55a4df523b3ef8460405161091791815260200190565b60405180910390a350505050565b600054610100900460ff168061093e575060005460ff16155b6109a15760405162461bcd60e51b815260206004820152602e60248201527f496e697469616c697a61626c653a20636f6e747261637420697320616c72656160448201526d191e481a5b9a5d1a585b1a5e995960921b606482015260840161033b565b600054610100900460ff161580156109cc576000805460ff1961ff0019909116610100171660011790555b6109d4610ad4565b6109de8383610b90565b80156109f0576000805461ff00191690555b505050565b6001600160a01b038216610a4b5760405162461bcd60e51b815260206004820152601f60248201527f45524332303a206d696e7420746f20746865207a65726f206164647265737300604482015260640161033b565b8060356000828254610a5d9190610f20565b90915550506001600160a01b03821660009081526033602052604081208054839290610a8a908490610f20565b90915550506040518181526001600160a01b038316906000907fddf252ad1be2c89b69c2b068fc378daa952ba7f163c4a11628f55a4df523b3ef9060200160405180910390a35050565b600054610100900460ff1680610aed575060005460ff16155b610b505760405162461bcd60e51b815260206004820152602e60248201527f496e697469616c697a61626c653a20636f6e747261637420697320616c72656160448201526d191e481a5b9a5d1a585b1a5e995960921b606482015260840161033b565b600054610100900460ff16158015610b7b576000805460ff1961ff0019909116610100171660011790555b8015610b8d576000805461ff00191690555b50565b600054610100900460ff1680610ba9575060005460ff16155b610c0c5760405162461bcd60e51b815260206004820152602e60248201527f496e697469616c697a61626c653a20636f6e747261637420697320616c72656160448201526d191e481a5b9a5d1a585b1a5e995960921b606482015260840161033b565b600054610100900460ff16158015610c37576000805460ff1961ff0019909116610100171660011790555b8251610c4a906036906020860190610c75565b508151610c5e906037906020850190610c75565b5080156109f0576000805461ff0019169055505050565b828054610c819061106b565b90600052602060002090601f016020900481019282610ca35760008555610ce9565b82601f10610cbc57805160ff1916838001178555610ce9565b82800160010185558215610ce9579182015b82811115610ce9578251825591602001919060010190610cce565b50610cf5929150610cf9565b5090565b5b80821115610cf55760008155600101610cfa565b80356001600160a01b03811681146104e357600080fd5b600082601f830112610d35578081fd5b813567ffffffffffffffff80821115610d5057610d506110bc565b604051601f8301601f19908116603f01168101908282118183101715610d7857610d786110bc565b81604052838152866020858801011115610d90578485fd5b8360208701602083013792830160200193909352509392505050565b600060208284031215610dbd578081fd5b61035782610d0e565b60008060408385031215610dd8578081fd5b610de183610d0e565b9150610def60208401610d0e565b90509250929050565b600080600060608486031215610e0c578081fd5b610e1584610d0e565b9250610e2360208501610d0e565b9150604084013590509250925092565b60008060408385031215610e45578182fd5b610e4e83610d0e565b946020939093013593505050565b60008060008060808587031215610e71578081fd5b843567ffffffffffffffff80821115610e88578283fd5b610e9488838901610d25565b95506020870135915080821115610ea9578283fd5b50610eb687828801610d25565b949794965050505060408301359260600135919050565b6000602080835283518082850152825b81811015610ef957858101830151858201604001528201610edd565b81811115610f0a5783604083870101525b50601f01601f1916929092016040019392505050565b60008219821115610f3357610f336110a6565b500190565b80825b6001808611610f4a5750610f75565b818704821115610f5c57610f5c6110a6565b80861615610f6957918102915b9490941c938002610f3b565b94509492505050565b60006103576000198484600082610f9757506001610357565b81610fa457506000610357565b8160018114610fba5760028114610fc457610ff1565b6001915050610357565b60ff841115610fd557610fd56110a6565b6001841b915084821115610feb57610feb6110a6565b50610357565b5060208310610133831016604e8410600b8410161715611024575081810a8381111561101f5761101f6110a6565b610357565b6110318484846001610f38565b808604821115611043576110436110a6565b02949350505050565b6000816000190483118215151615611066576110666110a6565b500290565b60028104600182168061107f57607f821691505b602082108114156110a057634e487b7160e01b600052602260045260246000fd5b50919050565b634e487b7160e01b600052601160045260246000fd5b634e487b7160e01b600052604160045260246000fdfea2646970667358221220c5e39cab7a67f343b64a444e7cf2ba00f6e647cb76a191255da6c7c179e58d3b64736f6c63430008020033",
  "immutableReferences": {},
  "source": "// SPDX-License-Identifier: MIT\r\npragma solidity ^0.8.2;\r\n\r\nimport '@openzeppelin/contracts-upgradeable/token/ERC20/ERC20Upgradeable.sol';\r\nimport '@openzeppelin/contracts-upgradeable/proxy/utils/Initializable.sol';\r\n\r\n// import \"truffle/Console.sol\";\r\n\r\ncontract MyUpgradeableToken is Initializable, ERC20Upgradeable {\r\n    event TokensMinted(uint256 total);\r\n\r\n    function initialize(\r\n        string memory name,\r\n        string memory symbol,\r\n        uint256 initialSupply,\r\n        uint256 decimals\r\n    ) public virtual initializer {\r\n        emit TokensMinted(initialSupply * 10**decimals);\r\n        __ERC20_init(name, symbol);\r\n        _mint(_msgSender(), initialSupply * 10**decimals);\r\n    }\r\n}\r\n",
  "sourcePath": "C:\\Users\\Owner\\Dropbox\\general\\dev\\web\\projects\\100 - blockchain\\Second blockchain project\\s06-tokenisation\\contracts\\MyUpgradeableToken.sol",
  "compiler": {
    "name": "solc",
    "version": "0.8.2+commit.661d1103.Emscripten.clang"
  },
  "schemaVersion": "3.4.2",
  "updatedAt": "2021-10-12T14:09:43.997Z",
  "devdoc": {
    "kind": "dev",
    "methods": {
      "allowance(address,address)": {
        "details": "See {IERC20-allowance}."
      },
      "approve(address,uint256)": {
        "details": "See {IERC20-approve}. Requirements: - `spender` cannot be the zero address."
      },
      "balanceOf(address)": {
        "details": "See {IERC20-balanceOf}."
      },
      "decimals()": {
        "details": "Returns the number of decimals used to get its user representation. For example, if `decimals` equals `2`, a balance of `505` tokens should be displayed to a user as `5.05` (`505 / 10 ** 2`). Tokens usually opt for a value of 18, imitating the relationship between Ether and Wei. This is the value {ERC20} uses, unless this function is overridden; NOTE: This information is only used for _display_ purposes: it in no way affects any of the arithmetic of the contract, including {IERC20-balanceOf} and {IERC20-transfer}."
      },
      "decreaseAllowance(address,uint256)": {
        "details": "Atomically decreases the allowance granted to `spender` by the caller. This is an alternative to {approve} that can be used as a mitigation for problems described in {IERC20-approve}. Emits an {Approval} event indicating the updated allowance. Requirements: - `spender` cannot be the zero address. - `spender` must have allowance for the caller of at least `subtractedValue`."
      },
      "increaseAllowance(address,uint256)": {
        "details": "Atomically increases the allowance granted to `spender` by the caller. This is an alternative to {approve} that can be used as a mitigation for problems described in {IERC20-approve}. Emits an {Approval} event indicating the updated allowance. Requirements: - `spender` cannot be the zero address."
      },
      "name()": {
        "details": "Returns the name of the token."
      },
      "symbol()": {
        "details": "Returns the symbol of the token, usually a shorter version of the name."
      },
      "totalSupply()": {
        "details": "See {IERC20-totalSupply}."
      },
      "transfer(address,uint256)": {
        "details": "See {IERC20-transfer}. Requirements: - `recipient` cannot be the zero address. - the caller must have a balance of at least `amount`."
      },
      "transferFrom(address,address,uint256)": {
        "details": "See {IERC20-transferFrom}. Emits an {Approval} event indicating the updated allowance. This is not required by the EIP. See the note at the beginning of {ERC20}. Requirements: - `sender` and `recipient` cannot be the zero address. - `sender` must have a balance of at least `amount`. - the caller must have allowance for ``sender``'s tokens of at least `amount`."
      }
    },
    "version": 1
  },
  "userdoc": {
    "kind": "user",
    "methods": {},
    "version": 1
  }
}