{
  "contractName": "MyUpgradeableContract",
  "abi": [
    {
      "inputs": [],
      "name": "token",
      "outputs": [
        {
          "internalType": "contract IERC20Upgradeable",
          "name": "",
          "type": "address"
        }
      ],
      "stateMutability": "view",
      "type": "function"
    },
    {
      "inputs": [
        {
          "internalType": "contract IERC20Upgradeable",
          "name": "_token",
          "type": "address"
        }
      ],
      "name": "initialize",
      "outputs": [],
      "stateMutability": "nonpayable",
      "type": "function"
    }
  ],
  "bytecode": "0x608060405234801561001057600080fd5b5061036a806100206000396000f3fe608060405234801561001057600080fd5b50600436106100365760003560e01c8063c4d66de81461003b578063fc0c546a14610057575b600080fd5b610055600480360381019061005091906101cb565b610075565b005b61005f610190565b60405161006c9190610269565b60405180910390f35b600060019054906101000a900460ff168061009b575060008054906101000a900460ff16155b6100da576040517f08c379a00000000000000000000000000000000000000000000000000000000081526004016100d190610284565b60405180910390fd5b60008060019054906101000a900460ff16159050801561012a576001600060016101000a81548160ff02191690831515021790555060016000806101000a81548160ff0219169083151502179055505b81600060026101000a81548173ffffffffffffffffffffffffffffffffffffffff021916908373ffffffffffffffffffffffffffffffffffffffff160217905550801561018c5760008060016101000a81548160ff0219169083151502179055505b5050565b600060029054906101000a900473ffffffffffffffffffffffffffffffffffffffff1681565b6000813590506101c58161031d565b92915050565b6000602082840312156101dd57600080fd5b60006101eb848285016101b6565b91505092915050565b6101fd816102f9565b82525050565b6000610210602e836102a4565b91507f496e697469616c697a61626c653a20636f6e747261637420697320616c72656160008301527f647920696e697469616c697a65640000000000000000000000000000000000006020830152604082019050919050565b600060208201905061027e60008301846101f4565b92915050565b6000602082019050818103600083015261029d81610203565b9050919050565b600082825260208201905092915050565b60006102c0826102d9565b9050919050565b60006102d2826102b5565b9050919050565b600073ffffffffffffffffffffffffffffffffffffffff82169050919050565b60006103048261030b565b9050919050565b6000610316826102d9565b9050919050565b610326816102c7565b811461033157600080fd5b5056fea2646970667358221220c43b9967b56fe41992cb687e54759b1cf307bc88b74562c258fdb94da30b623264736f6c63430008000033",
  "immutableReferences": {},
  "source": "// SPDX-License-Identifier: MIT\r\npragma solidity ^0.8.0;\r\n\r\nimport '@openzeppelin/contracts-upgradeable/proxy/utils/Initializable.sol';\r\nimport '@openzeppelin/contracts-upgradeable/token/ERC20/IERC20Upgradeable.sol';\r\n\r\ncontract MyUpgradeableContract is Initializable {\r\n    IERC20Upgradeable public token;\r\n\r\n    function initialize(IERC20Upgradeable _token) public initializer {\r\n        token = _token;\r\n    }\r\n}\r\n",
  "sourcePath": "C:\\Users\\Owner\\Dropbox\\general\\dev\\web\\projects\\100 - blockchain\\Second blockchain project\\s06-tokenisation\\contracts\\MyUpgradeableContract.sol",
  "compiler": {
    "name": "solc",
    "version": "0.8.0+commit.c7dfd78e.Emscripten.clang"
  },
  "schemaVersion": "3.4.2",
  "updatedAt": "2021-09-23T13:28:54.966Z",
  "devdoc": {
    "kind": "dev",
    "methods": {},
    "version": 1
  },
  "userdoc": {
    "kind": "user",
    "methods": {},
    "version": 1
  }
}